:020000040000FA
:100000000AEF47F01200FFFF8AEF2FF01200FFFF08
:10001000FFFFFFFFFFFFFFFF62EF2FF01200FFFF68
:10002000FFFFFFFFFFFFFFFFFFFF0E006D8E0000D1
:10003000B8040000010000006C8E0000B70400004E
:10004000010000006B8E0000B604000001000000FB
:10005000688E0000FD00000003000000648E0000B8
:10006000A504000004000000638E0000B504000039
:1000700001000000618E0000AF04000002000000DB
:10008000608E0000B404000001000000957A0000BA
:10009000B3040000010000005E8E0000AD0400000B
:1000A000020000005A8E0000FC0100000400000065
:1000B000508E00007C0400000A000000FE0F0000CB
:1000C000AB04000002000000468E0000760E000027
:1000D0000A0000000C01006B080E005D06E200CC77
:1000E000CEF2B8D90C01002BF7D70201C183120060
:1000F0000C01000E226F020E236F216B080E215D92
:1001000001E3B2D0B3EC05F00C0EAFEC05F02FEC30
:1001100006F0166A176A145015101610171001E031
:100120009DD0B3EC05F00C0EC7C2EBFF0D0EC8C29C
:10013000EBFF0201C751C8111DE1000ED880CB555D
:10014000200ECC5505E3000ECB5D100ECC5903E21A
:10015000CB6B100ECC6FCBC214F0CCC215F0CB2BF6
:10016000000ECC23B3EC05F00C0E14C0EBFF0D0E0B
:1001700015C0EBFFC65105E0C251C311C411C51132
:1001800013E10A0EE66EE66AE668B3EC05F0C8EC29
:1001900005F0E6EC3EF0166E050EE15E16500CEC36
:1001A00006F0050EEF6E4DD0C651040A39E0070A7D
:1001B0001FE0020A02E0030A44E1B3EC05F0D1ECCF
:1001C00005F0020EC65D02E0000E01D0010E146EB5
:1001D000B3EC05F0140EAFEC05F01450010BF36E08
:1001E000FE0EEF14F310EF6E0CEC06F0010E28D0AB
:1001F000B3EC05F0D1EC05F0B3EC05F0130EAFEC69
:1002000005F0EF6AB3EC05F00F0EAFEC05F0270E2A
:10021000EE6EEE6AEE6AEE6A0CEC06F0020E10D09C
:100220000A0EE66EE66AC2C2E6FFC3C2E6FFB3ECA0
:1002300005F0C8EC05F0F0EC05F00CEC06F0050E4E
:10024000EF6EB3EC05F00A0EC9C2EBFF0B0ECAC28B
:10025000EBFF21CCB8F20C0121511200170E22271E
:10026000000E2323212B4AD7FF0C0C013D6B080EF7
:100270003D5D01E3E4D008EC06F0EF50050801E134
:10028000DBD008EC06F0EF50040801E1D5D008EC13
:1002900006F0EF50050A01E1CFD0010A01E1CCD010
:1002A000070A01E17AD0010A5FE0020A30E0010AA0
:1002B00001E0C2D006EC2CF0000901E1BDD00C0138
:1002C00008EC06F0EF6A34EC06F0140EAFEC05F023
:1002D000EF50010B0FE00001010EE16F0C0134EC57
:1002E00006F0EECFDEF0EECFDFF0EFCFE0F038EC4F
:1002F0002CF0A2D00001010EDD6F0C0134EC06F0F1
:10030000EECFDBF0EDCFDCF018EC2CF095D0000157
:100310003E0EE26F0C0EE36F5BEC2CF0000901E186
:100320008BD00BEC2CF000091AE00C0134EC06F039
:100330003ECCEEFF3FCCEEFF40CCEEFF41CCEEFFDB
:1003400008EC06F0020EEF6E1FEC06F0EF6A1BECF5
:1003500006F0270EEE6EEE6AEE6AEE6A6DD00C01C4
:1003600008EC06F0010E67D016EC44F006C014F05D
:1003700007C015F023EC06F006C0EEFF15C0EDFF38
:1003800034EC06F0E9CFEEF3EACFEFF31DEC33F0F7
:100390000C0108EC06F0030E4ED034EC06F0040E0F
:1003A000DEDBE9CFF2F3EACFF3F334EC06F0E9CF8A
:1003B000F0F3EACFF1F34AEC33F0000939E123EC32
:1003C00006F0E6EC05F016C0E6FF17C0E6FF16ECF7
:1003D00044F0E552E7CF17F0E552E7CF16F016509C
:1003E000065C146E17500758156E0C011BEC06F0D6
:1003F000EECF18F0EFCF19F01450185C15501958C3
:100400001BE21FEC06F0EFCF14F0060E145C0DE2B9
:100410001FEC06F0EF2A1BEC06F0D890EF36010E29
:10042000EB36020EEB36030EEB36F2DB020E03D098
:100430000C01EEDB050EEF6E0C013D2B18D7120000
:100440000201CD5182DB0E0E8ADBEF50050801E080
:10045000000C010C080E0201CE5D01E31200CE512A
:1004600074DB0C0E7CDBEE6AED6ACE516EDBEE6A5D
:10047000EE6AEE6AEE6ACE5168DB0E0E70DB040E99
:10048000EF6E1200080E0201156ACF25146ED051CE
:100490001522166A176ACF0E14260A0E1522000EB0
:1004A000162217220E0E1426000E152216221722CF
:1004B000140E1426000E15221622172214C0A9F0BD
:1004C00015C0AAF0C0EC29F0CFC2BDF2D0C2BEF276
:1004D0001200080E0201D1250401516F000E020125
:1004E000D2210401526F33EC3EF0D1C2BFF2D2C22E
:1004F000C0F2120063EC28F0000903E1F36AF46A29
:1005000012000201D3510401AB5D09E0D3C2ABF488
:100510000201B96BBA6B0201CF6BD06BB3DFD3C2F0
:10052000B8F296DBB9C21CF0BAC21DF079DB1F50DD
:100530001B5814C0F3FF15C0F4FF1200BDC214F025
:10054000BEC215F0166A176AC00E145C050E155867
:10055000000E1658000E175801E3000CD4C2BDF06F
:100560004BEC2BF00201BD2B000E2ADB01E24BDB32
:10057000010CFEDA14C004FC15C005FC0201D751C1
:10058000145CD8510C01155804E204CCD7F205CC08
:10059000D8F20201D751BD27D85112DB01E233DB7B
:1005A000D7C2C0F0D8C2C1F0D5C2BEF0D6C2BFF02B
:1005B00050EC2BF0D7C2F3FFD8C2F4FF1200D8DA08
:1005C00014C005FC15C006FC0201DC51145CDD51B1
:1005D0000C01155804E205CCDCF206CCDDF2020178
:1005E000DC51BD27DD51ECDA01E20DDBDCC2C5F0E8
:1005F000DDC2C6F0D9C2C2F0DAC2C3F0DBC2C4F0B9
:1006000069EC2BF0DCC2F3FFDDC2F4FF1200DEC2A6
:10061000E6FFDFC2E6FF00EC3FF0E552E552F3CF24
:10062000D7F2F4CFD8F2DEC2D5F2DFC2D6F2A1DF24
:100630000201DE51F324146EDF51F420156E14C054
:10064000F3FFF46E1200E0C2E6FFE1C2E6FFE2C291
:10065000E6FF0EEC3FF0E552E552E55207C0DCF252
:1006600008C0DDF2E0C2D9F2E1C2DAF2E2C2DBF2A6
:10067000A6DF196A0201E051F324146EE151F4205F
:10068000156EE2511920166E14C007F015C008F05F
:10069000096E12000201B851170DF3CF29FCF4CFF7
:1006A0002AFC000E0C012927020E2A23080E020143
:1006B000B9250C012B6F000E0201BA210C012C6F21
:1006C0008ADA0C0E4CDA93DAF3CF21FCF4CF22FC59
:1006D00082DA0A0E44DA8BDAF3CF23FCF4CF24FC5F
:1006E0008CDAF3CF25FCF4CF26FC0C01276B286BAA
:1006F00010C82DFC11C82EFC12C82FFC13C830FCEA
:100700006ADAEECF31FCEECF32FCEECF33FCEFCF26
:1007100034FC356B110E366F2BCC37FC2CCC38FCEF
:100720006CDAF3CF37FCF4CF38FC0C0E0E015E6FA1
:100730005F6B0E012D0E5C6F0C0E5D6F50EC26F0A2
:10074000F3CF27FCF4CF28FC0C01271F281F000142
:10075000DD0EA96F0A0EAA6FC0EC29F02BCC4FF466
:100760002CCC50F40401110E4E6F35DA29CC4CF428
:100770002ACC4DF4C0EC3DF0080E0001C06FC16BF7
:100780000001210EBE6F0C0EBF6F50EC2BF000016C
:10079000F10EAB6F0A0EAC6FCDEC29F0F3CF39FC44
:1007A000F4CF3AFC2BCCB1F02CCCB2F000EC2AF018
:1007B000F3CF3BFCF4CF3CFC0C01F350F41002E10E
:1007C0003B693C6939CCABF03ACCACF0CDEC29F0CC
:1007D0000001F70EA96F0A0EAA6FC0EC29F0020EF5
:1007E0000001C06FC16B00013B0EBE6F0C0EBF6FEE
:1007F00050EC2BF097EC29F00201B96BBA6B0401B5
:10080000AB691200E3C2B8F20201E3510401AC5D2E
:1008100003E0F36AF46A12000201C1A105D0C1919C
:100820000201D16BD26B55DE0201BF51BB5D146E6C
:10083000BC51C05514C0F3FFF46E12000201BB514D
:10084000BF5DBC51C05904E2B8510401AC5D01E088
:10085000000C2AEC2BF0E4C2E9FFE5C2EAFFEF6EE0
:100860000201BF2B000EC023010C0201BB51BF5D72
:10087000BC51C05904E2B8510401AC5D03E0F36A15
:10088000F46A12000201BF51BB5D0C01006F02014E
:10089000C051BC590C01016F0201E8510C01005D0F
:1008A0000201E9510C01015904E200CCE8F201CC4B
:1008B000E9F2E8C2BBF0E9C2BCF0E6C2B9F0E7C2B7
:1008C000BAF02CEC2BF0F3CFE8F2F4CFE9F202010E
:1008D000F350BF27F450C02312000201C1B309D066
:1008E00076EC28F00201BB6BBC6B0401AC69020121
:1008F000C18312000201BB6BBC6B080E0001BB6F11
:10090000BC6B0001000EB96F0C0EBA6F2CEC2BF013
:1009100000CC56FE01CC57FE35EC26F0F3CF00FCA0
:10092000F4CF01FC02CC56FE03CC57FE35EC26F08A
:10093000F3CF02FCF4CF03FC04CC56FE05CC57FEEB
:1009400035EC26F0F3CF04FCF4CF05FC0C01080EC7
:10095000045F000E055B0651071151E0EAC2E9FF92
:10096000EBC2EAFFEECF09FCEECF0AFCEECF0BFCA8
:10097000EFCF0CFCECC2E9FFEDC2EAFFEECF0DFCBD
:10098000EECF0EFCEECF0FFCEFCF10FC116B110E73
:10099000126FEEC213FCEFC214FCEEC256FEEFC2A1
:1009A00057FE35EC26F0F3CF13FCF4CF14FC0C0EFD
:1009B0000E015E6F5F6B0E01090E5C6F0C0E5D6FBA
:1009C00050EC26F0F3CF15FCF4CF16FC0C01151FEC
:1009D000161F0401516B526B33EC3EF0EEC2B1F0C6
:1009E000EFC2B2F000EC2AF0F3CF17FCF4CF18FC02
:1009F0000C01F350151916E11851161913E1ECC248
:100A0000F4F2EDC2F5F2EAC2F2F2EBC2F3F2020145
:100A1000000EF06F0C0EF16F12D80C01086FFF0E74
:100A2000085D03E176EC28F0000C08CCACF404CCB3
:100A3000BBF205CCBCF20201C181C193010CF2C230
:100A4000E9FFF3C2EAFFEE50080110190BE1EE5086
:100A5000111908E1EE50121905E1EE50131902E1E7
:100A600001E1FF0C0C011A69000E1B6F020E1C6FD6
:100A7000196B080E195D3CE286D80C0E70D89AD816
:100A8000020E6DD8A3D8165014182BE11750151864
:100A900028E179D80A0E63D88DD898D81650141842
:100AA0001EE1175015181BE1F2C2E9FFF3C2EAFF7D
:100AB000EECF14F0EECF15F089D865D8EE500001D6
:100AC00014180DE1EE5015180AE1EE50161807E162
:100AD000EE50171804E103E10C011951120019CC72
:100AE0001AFC0C01170E1B27000E1C23192BC1D753
:100AF000FF0E1A5D27E01A51170DF3CF1BFCF4CF40
:100B00001CFC000E1B27020E1C230A0EE66EE66A72
:100B1000F2C2E6FFF3C2E6FF36D81BCC14F01CCCC1
:100B200015F01BCCE6FF1CCCE6FF5AD8F0C2E9FF5B
:100B3000F1C2EAFF94D827D80A0E14C0EBFF0B0EBF
:100B400015C0EBFF0C011A511200170DF3CFE9FF8E
:100B5000F4CFEAFF000EE926020EEA221200E9268F
:100B6000000EEA22120022CCE9FF23CCEAFF120099
:100B70006FD8BDC21CF0BEC21DF052D8166E1F50F9
:100B80001B58176E12001BCCE9FF1CCCEAFF1200A9
:100B900022CC14F023CC15F022CCE6FF23CCE6FFC8
:100BA0001200C2C2EEFFC3C2EEFFC4C2EEFFC5C256
:100BB000EEFF120054D8F0C2E9FFF1C2EAFF1200C2
:100BC000BE23BD51B95DBE51BA591200EECF16F029
:100BD000EFCF17F0120029CCE9FF2ACCEAFF120070
:100BE00098EC3EF0166E060EE15E16501200EECF47
:100BF00056FEEDCF57FE35EF26F02BCC56FE2CCC13
:100C000057FE35EF26F0BDC2B9F2BEC2BAF21200ED
:100C10002BD80E0EAFEF05F0A6DF0E0EAFEF05F0EE
:100C20001E6A1F6A1C50185C146E1D501958156EF0
:100C30001E501A58120018D80F0EAFEF05F014D836
:100C4000130EAFEF05F00C010FD8150EAFEF05F046
:100C5000C00E186E050E196E1A6A1B6A1200EECFCE
:100C600014F0EFCF15F012003D51A5EF05F073C061
:100C7000C9FF9EA6FED79E96C95012008E8E979EE3
:100C800094969488949A210EC66E9E96C78CC79EA1
:100C90000001010E606F120074C06FF075C070F03B
:100CA00076C071F077C072F000016F0E616F000EB8
:100CB000626F12006F0E0001611920E1000E6219CF
:100CC0001DE10C0E00017E6F7F6B0001630E7C6FD7
:100CD000000E7D6F6FC078F070C079F071C07AF04F
:100CE00072C07BF014D80C0E00016F27000E702329
:100CF00071237223630E616F000E626F61C0E9FFA2
:100D000062C0EAFF612B000E6223EF5012000C015B
:100D1000076B086B096B0A6B5CD906C009FC07C03E
:100D20000AFC57D902C007FC03C008FC010E0C01E5
:100D3000D89009370A37E806FBE13ED9E80E736F11
:100D400096DF0ACC73F093DF010E0C010815146EC8
:100D5000FE0E091514100001736F89DF07CC73F0C4
:100D600018D941D90001736B14D900017EC014F069
:100D70007FC015F07E07000E7F5B145015100CE04D
:100D800032D900017CC0E9FF7DC0EAFF7C2B000E58
:100D90007D23C9CFEFFFE9D78E8E14D10001010E5C
:100DA000606F80C06FF081C070F082C071F083C04E
:100DB00072F0630E616F000E626F12000001600539
:100DC0000BE16FC08DF070C08EF071C08FF072C0FB
:100DD00090F06CD80001606B6FC093F070C094F01D
:100DE00071C095F072C096F084510001916F926BC2
:100DF00081D800016F2B000E7023712372239DD8C0
:100E000001E1CAD81200000187C014F088C015F0B3
:100E10008707000E885B145015100BE085C0E9FFB2
:100E200086C0EAFF852B000E8623EFCF84F0C6DF55
:100E3000EAD71BEF07F00001606B7FD801E0ACD868
:100E40001200BAD8D70E736FA4D8C9CF25FC8E8EE6
:100E5000C78C200EC66E0C0125BF000C010C0C01C6
:100E6000236B246B89C006F08AC007F08BC008F0A2
:100E70008CC009F086D806C023FC07C024FC010EF4
:100E80000C01D89023372437E806FBE19FD8FEE118
:100E900093D8830E736FEBDE24CC73F0E8DE23CCA3
:100EA00073F077D88E8E92D8FEE18CD08DC006F08C
:100EB0008EC007F08FC008F090C009F062D806C05D
:100EC00023FC07C024FC010E0C01D89023372437E3
:100ED000E806FBE17BD8FEE16FD8530E736FC7DEE7
:100EE00024CC73F0C4DE23CC73F053D88E8E6ED82E
:100EF000FEE168D00C01236B246B93C006F094C014
:100F000007F095C008F096C009F03BD802C023FC5A
:100F100003C024FC5BD8FEE14FD8840E736F39D830
:100F200024CC73F0A4DE23CC73F0A1DE91C073F067
:100F30009EDE8E8E4BD8FEE145D06FC014F070C09F
:100F400015F071C016F072C017F00C0E0B6E0C6A23
:100F50000D6A0E6A6FC006F070C007F071C008F02D
:100F600072C009F07FEC46F002C014F003C015F027
:100F700004C016F005C017F002500310041005104D
:100F80001200080E0B6E010E0C6E0D6A0E6A7FEFDA
:100F900046F06DDEF3EF07F06FC089F070C08AF0A5
:100FA00071C08BF072C08CF000018907000E8A5B63
:100FB0008B5B8C5B2FEF07F0C79C300EC66E8E9E4E
:100FC00000011200C78C200EC66E12003ADF000925
:100FD000120078C006F079C007F07AC008F07BC034
:100FE00009F0C1EF07F00001736B37EF06F0030E55
:100FF000E66E18EC47F0E55282A6FE0C000CFFFFEF
:101000000010000018200105000009780002000609
:1010100056312E3030543100000000000000000036
:101020004F43542030372032303138000000000068
:1010300031343A34343A3335000000000000000007
:1010400000000000000000000000000000000000A0
:10105000302E310000000000000000000000000001
:101060000000000000000000000000000000000080
:101070006E6E31424F4152440000000000000000FB
:10108000640164013E01640129011B010E01F800A5
:10109000A9FE0101FFFF0000A9FE0101A9FE010157
:1010A00000000000A9FE0101FFFF00000000000099
:1010B0000004A3000001030145510401AD5D01E1FD
:1010C0001200FE0EAD5D0CE01C0EE66EE66A290E07
:1010D000E66E030EE66EAD519FEC20F01EEC21F0A3
:1010E00045C3ADF4FE0E0301455D01E112001C0E87
:1010F000E66EE66A45519FEC20F0290EE66E030E7F
:10110000E66E1EEF21F00401AD51AE5D01E112006B
:10111000FE0EAE5D21E0270E0301C56FC66B030115
:10112000010EC46F0301020EC26F030EC36F0401F0
:1011300008EC21F01B0E8BEC22F0EFCFC1F308EC92
:1011400021F0EECFBFF3EFCFC0F30301270EBF5F57
:10115000000EC05B06EC1EF0ADC4AEF4270E02EC30
:1011600021F029C3C2F32AC3C3F30301C25F000EF7
:10117000C35B43EC22F0020EBF6F030EC06F06EF9D
:101180001EF00C01C00E1D6F100E1E6F03010051EA
:1011900001110FE1D3EC23F006C000F307C001F307
:1011A000FF0E03010017070E0117000E0027040EA3
:1011B00001233C0EE66EE66AE66A000EE66E0E0E4F
:1011C000E66EE6EC3EF0146E050EE15E14500C0186
:1011D000156B146B1451C8EC1EF001E38ED014CCC7
:1011E00045F369DF1FEC1FF058EC1FF0F62A000EE4
:1011F000F722F8220800F5CF1CFC1FEC1FF058EC7A
:101200001FF0020EF626000EF722F8220900F5CF95
:1012100016FC0A00F5CF17FC1FEC1FF00DEC23F0B5
:10122000040EF626000EF722F8220900F5CF18FC6E
:101230000A00F5CF19FC0C011C5128E11DCC1AFC49
:101240001ECC1BFC270E176A1625166E1751172287
:1012500046EC22F016501825146E17501921B3ECE5
:1012600022F014501D2715501E231DCC14F01ECC47
:1012700015F0166A176AD880FC0E14541F0E155408
:10128000000E1654000E175402E2EFD7FFD71CCC05
:1012900044F3270E0C011A250301296F000E0C01DF
:1012A0001B2103012A6F29510C01162503012B6F05
:1012B0002A510C01172103012C6F010E2B27000E60
:1012C0002C232B510C01182503012D6F2C510C01DF
:1012D000192103012E6F0D0E3F6F409714DF1FEC95
:1012E0001FF004C017F00DEC23F00800F5CF28F331
:1012F00096EC17F00C01142B6DD712000C01376B14
:101300003751C8EC1EF001E390D037CC45F3D3DE63
:101310000D0E03013F5D01E085D0F5DE03014D5167
:10132000285D01E07FD0180E256F020E266F4A510E
:101330000CE14BC312F34CC313F34087040E3F6F11
:101340004BC342F34CC343F36AD0000E005D040E5E
:10135000015906E3880ED8800055130E015503E2AB
:10136000006B040E016F00C312F301C313F3002BD3
:10137000000E01234BC310F34CC311F38FEC22F08A
:10138000030140894A51040A25E0070A11E0020AD4
:1013900002E0030A44E153EC21F0020E4A5D02E050
:1013A000000E01D0010E2495E8B024853F6B37D0A4
:1013B00048514625166E49514721AAEC20F053ECBE
:1013C00021F0276B270E026F036B046B056B020E77
:1013D0003F6F25D046C3E9FF47C3EAFF5CEC21F02D
:1013E00046C3E9FF47C3EAFF1850EE24166E1950B2
:1013F000EE20AAEC20F00A0EE66EE66A46C3E6FF8F
:1014000047C3E6FFC9EC21F095EC20F00301050E7F
:101410003F6FC6EC22F0020EAD6FCEEC13F00C0164
:10142000375112000C01372B6BD7FE0C03014E51C4
:10143000C8EC1EF001E3010C4EC345F33CDE030192
:1014400041A902D04199010C000C03014F51C8EC95
:101450001EF001E3000C4FC345F32DDE070E030120
:101460003F5D01E0000C010C03015051C8EC1EF07F
:1014700001E3120050C345F3F6EC21F003013F51A4
:10148000080A38E0010A36E0050A34E0020A2FE0D3
:10149000050A1FE00D0A0FE0010A0DE0070A31E01E
:1014A000020A2FE0010A2DE0060A2BE0040A22E1DD
:1014B0000BEC2CF026D091EC20F003011451151107
:1014C00006E00E512F19F7E10F513019F4E1080E23
:1014D0000FD091EC20F003011451151106E00E51CC
:1014E0002F19F7E10F513019F4E10C0E01D00D0E58
:1014F0003F6F12000301AE6B0301140EAD6FCEEC13
:1015000013F096EF17F003015151C8EC1EF001E300
:10151000120051C345F3CFDD0301409751C350F38F
:1015200034EF0AF003015251C8EC1EF003E3F36AF2
:10153000F46A120052C345F34BEC22F00A0EE66E39
:10154000E66AC9EC21F0530EE66E030EE66E95ECEA
:1015500020F010C35DF311C35EF3530E146E030E3F
:1015600098EF1FF003015F51C8EC1EF001E3120079
:101570005FC345F34BEC22F003010E512F1902E13A
:101580000F51301902E051EC1FF0120003016051BD
:10159000C8EC1EF00CE260C345F38DDD3FC304FCD4
:1015A000070E0C01045D06E00B0E045D03E0F36A18
:1015B000F46A1200030131512F5D3251305916E3A4
:1015C00029512B5D166E2C512A55176E1606000EEA
:1015D000175A31512F5D186E30513255196E18500F
:1015E000165C146E1950175898EF1FF02F51315D8B
:1015F000146E32513055156E1406000E155A14C073
:10160000F3FF15C0F4FF120003016151C8EC1EF096
:1016100001E3000C61C345F34EDD61C360F3B6DF47
:10162000F3CF28FCF4CF29FC0C01F350F41001E1B6
:10163000000C010E281904E1295102E14FEC22F0BF
:1016400003014151010B0CE1FFEC22F00C01285188
:10165000145C2951155804E34FEC22F00301418139
:10166000010E0301C56FC66B0301C46F0301620E57
:10167000C26F030EC36FDDEC22F003012F2B000EAF
:1016800030232B512F5D2C51305902E336EC21F0E1
:101690000C01010E281905E1295103E14FEC22F05C
:1016A000010C030140BB02D055EC1FF0010C0C01F2
:1016B0003B6B3C6B03016351C8EC1EF010E263C34B
:1016C00045F3F9DC63C360F361DFF3CF39FCF4CF9A
:1016D0003AFC0C01F350F41005E153EC22F0F36AEC
:1016E000F46A120039CC37FC3ACC38FCD8EC21F043
:1016F00004E266C337FC67C338FC4151010B0CE1BF
:10170000FFEC22F00C013951145C3A51155804E3F6
:1017100053EC22F00301418103012F510C013725C5
:10172000146E030130510C013821FDEC21F01EE351
:101730002F512B5D0C013B6F030130512C590C01D3
:101740003C6F3BCCC5F3E8CFC6F312EC20F00C01A4
:101750003B51030164270C013C51030165230C013B
:101760003B51375F3C51385B36EC21F037CCC5F349
:1017700038CCC6F312EC20F00C01375103012F27AF
:101780000C013851030130230C01D8EC21F003E3A4
:1017900053EC22F004D040BB02D055EC1FF00C01FA
:1017A00037513B25146E38513C2198EF1FF00C0146
:1017B0002C6B2D6B03016851C8EC1EF010E268C35E
:1017C00045F379DC68C360F3E1DEF3CF2AFCF4CFA4
:1017D0002BFC0C01F350F41005E157EC22F0F36AF6
:1017E000F46A120003014151010B0CE1FFEC22F0FD
:1017F0000C012A51145C2B51155804E357EC22F0CC
:10180000030141812ACC28FC2BCC29FC63EC21F07C
:1018100004E26CC328FC6DC329FC2F510C01282560
:10182000146E030130510C012921FDEC21F022E35B
:101830002F512B5D0C012C6F030130512C590C01E1
:101840002D6F2CCCCDF3E8CFCEF358EC20F02CCC80
:1018500014F02DCC15F0166A1450030169271550A9
:101860006A2316506B230C012C51285F2D51295BE4
:1018700036EC21F028CCCDF329CCCEF358EC20F077
:101880000C01285103012F270C012951030130239A
:1018900063EC21F003E357EC22F004D040BB02D00C
:1018A00055EC1FF00C0128512C25146E29512D21C7
:1018B00098EF1FF06FC3E6FF70C3E6FF00EC3FF048
:1018C000E552E552F3CF66F3F4CF67F36FC364F3E9
:1018D00070C365F36EC363F3EADE03016F51F32453
:1018E000146E7051F42098EF1FF072C3E6FF73C3BB
:1018F000E6FF74C3E6FF0EEC3FF0E552E552E55219
:1019000007C06CF308C06DF372C369F373C36AF365
:1019100074C36BF371C368F34ADF196A0301725130
:10192000F324146E7351F420156E74511920166E41
:1019300014C007F015C008F0096E120003017551BC
:10194000C8EC1EF003E3F36AF46A120075C345F3B2
:101950005BEC08F0030129512B5D0C01026F0301C0
:101960002A512C590C01036F010E025F000E035B1C
:1019700075C360F30BDE0C01F350025D146E03516E
:10198000F45498EF1FF076C377F30CD834EC23F0BF
:10199000F350F41006E076C345F3F6EC21F051EC79
:1019A0001FF0120003017751C8EC1EF003E3F36A45
:1019B000F46A120077C345F35BEC08F0B7EC21F052
:1019C00006E33551335D146E3451365513D035511D
:1019D0002D5D166E2E513655176E46EC22F02B51AA
:1019E000335D186E34512C55196E16501824146E30
:1019F0001750192098EF1FF078C377F3D3DFF3CF98
:101A000000FCF4CF01FC0C01F350F41001E1000CD8
:101A100078C345F35BEC08F0030179517A110FE0CC
:101A2000010E02EC21F035C3C2F336C3C3F3030148
:101A3000C16F79C3BFF37AC3C0F306EC1EF0030194
:101A4000352B000E362335512D5D36512E5902E2CD
:101A50005BEC22F00C01010E001905E1015103E1DC
:101A600003014185010C030140BB02D0B2EC1FF021
:101A7000010C0C01026B036B7BC377F393DFF3CF95
:101A800000FCF4CF01FC0C01F350F41003E1F36A05
:101A9000F46A12007BC345F35BEC08F003017E514E
:101AA0000C01005D03017F510C01015904E200CCDF
:101AB0007EF301CC7FF3030135517E25146E365140
:101AC0007F21BDEC21F029E235512D5D0C01026F23
:101AD000030136512E590C01036F010E0227000E2F
:101AE000032303017C517D110EE002CCC5F303CC2E
:101AF000C6F31BEC20F00C01025103017C270C0102
:101B0000035103017D230C01025103017E5F0C018F
:101B1000035103017F5B5BEC22F07C517D1106E0F9
:101B20007EC3C5F37FC3C6F31BEC20F003017E51D7
:101B300035277F5136230C01025103017E270C010A
:101B4000035103017F237E510C01005D146E01518E
:101B500003017F55156E14507E5D15507F5902E3C9
:101B6000418504D040BB02D0B2EC1FF07EC3F3FF2E
:101B70007FC3F4FF120003018051C8EC1EF003E3A1
:101B8000F36AF46A120080C345F35BEC08F00301CA
:101B90002B512D5D0C01026F03012C512E590C01AC
:101BA000036F80C377F3FEDE0C01F350025D146E09
:101BB0000351F45498EF1FF003018151C8EC1EF05B
:101BC00003E28451851103E1F36AF46A120081C3D0
:101BD00045F35BEC08F081C377F3E4DEF3CF02FC5E
:101BE000F4CF03FC030186518425146E87518521AF
:101BF000156E0C011450F35C1550F4580BE2030100
:101C000086510C01025D0301846F87510C01035959
:101C10000301856F0301355186250C01006F030117
:101C2000365187210C01016F005103012D5D0C011C
:101C3000015103012E5906E249EC1FF00C01005F2F
:101C40001550015B0C01005103012D5D0C01046F67
:101C5000015103012E590C01056F010E0427000EDE
:101C60000523030184510C01045D030185510C011E
:101C7000055907E384C3C5F385C3C6F3B1EC20F06F
:101C800022D004CCC5F305CCC6F3B1EC20F006ECB1
:101C90001EF00C0104510301845D0301C56F0C01AA
:101CA0000551030185596CEC21F051EC23F003013F
:101CB00082510C0104250301BF6F030183510C0104
:101CC00005210301C06F06EC1EF084C3F3FF85C33A
:101CD000F4FF120089C386F38AC387F3010E030160
:101CE000846F856B0301060E826F0C0E836F88C3B1
:101CF00081F362DF0C010651120003018B51C8EC25
:101D00001EF003E28E518F1103E1F36AF46A1200B0
:101D10008BC345F35BEC08F08BC377F343DE030121
:101D20009051F35C0C01026F03019151F4580C01C6
:101D3000036F75EC21F001E205D10301925193117B
:101D40000DE00C0102510301925D0C0103510301EE
:101D5000935904E292C302FC93C303FC35519025CE
:101D60000C01066F0301365191210C01076F0651DA
:101D700003012D5D0C01075103012E5906E249ECC8
:101D80001FF00C01065F1550075B06CC00FC07CC6A
:101D900001FC0C01065103012D5D0C01046F07517C
:101DA00003012E590C01056F010E0427000E0523B7
:101DB00090C306FC91C307FC8EC308FC8FC309FCCB
:101DC0008CC30AFC8DC30BFC03018CC3E9FF8DC3DC
:101DD000EAFF8C2B8D23EFCF0DFC0C010F6B030161
:101DE000945109E0610E0C010D5D05E30D517A0877
:101DF00002E3E00E0D270C01200E0E6FE850045D8B
:101E0000000E055902E204CC0EFC0E51025D000EDC
:101E1000035902E202CC0EFC0E5102EC21F000CC80
:101E2000C2F301CCC3F343EC22F0100EBF6F0C0ED3
:101E3000C06F06EC1EF00C010E514FEC21F0002794
:101E4000155001230E514FEC21F0045F1550055B36
:101E50000451051106E12BC300FC2CC301FC0469ED
:101E60000569030194513EE00C010C6B0E510C5DB1
:101E70005FE2E8EC1FF0EFCF14F0610E145C0BE3AF
:101E8000E8EC1FF0EF507A0806E3E00E146EE8EC81
:101E90001FF01450EF26E8EC1FF0EF500D5D0EE13F
:101EA00004EC22F02CE0BDEC20F0610E0D5D18E397
:101EB0000D517A0815E3E00E0D2712D008CC8EF3F1
:101EC00009CC8FF30F510CE066EC20F0610E0C0191
:101ED0000D5D05E30D517A0802E3E00E0D270F6B4F
:101EE0000C2BC4D70C010C6B0E510C5D21E2E8ECFD
:101EF0001FF0EF500D5D10E104EC22F00AE10C013F
:101F00000851065D166E07510955176E0C5128EFE2
:101F100020F0BDEC20F00AD008CC8EF309CC8FF372
:101F20000F5104E066EC20F00C010F6B0C2BDCD79A
:101F30000C010E514FEC21F0025F1550035B75EC64
:101F400021F003E2F368F46812000E514FEC21F027
:101F50000627155007234FD703019551C8EC1EF0F3
:101F600003E299519A1103E1F36AF46A120095C3EE
:101F700045F35BEC08F095C377F314DD03019B5147
:101F8000F35C0C01026F03019C51F4580C01036FC8
:101F90007EEC21F001E205D103019D519E110DE07F
:101FA0000C01025103019D5D0C01035103019E5977
:101FB00004E29DC302FC9EC303FC35519B250C012A
:101FC000066F030136519C210C01076F0651030176
:101FD0002D5D0C01075103012E5906E249EC1FF05B
:101FE0000C01065F1550075B06CC00FC07CC01FC1A
:101FF0000C01065103012D5D0C01046F0751030113
:102000002E590C01056F010E0427000E05239BC3FA
:1020100006FC9CC307FC99C308FC9AC309FC96C341
:102020000AFC97C30BFC98C30CFC030196C3F6FF94
:10203000962B97C3F7FFE5EC22F0106B03019F513D
:1020400009E0610E0C010E5D05E30E517A0802E312
:10205000E00E0E270C01200E0F6FE850045D000EFD
:10206000055902E204CC0FFC0F51025D000E03592A
:1020700002E202CC0FFC0F5102EC21F000CCC2F3C3
:1020800001CCC3F343EC22F0110EBF6F0C0EC06FF6
:1020900006EC1EF00C010F514FEC21F000271550FB
:1020A00001230F514FEC21F0045F1550055B0451E3
:1020B000051106E12BC300FC2CC301FC0469056972
:1020C00003019F513EE00C010D6B0F510D5D5FE26E
:1020D000EFEC1FF0EFCF14F0610E145C0BE3EFECAC
:1020E0001FF0EF507A0806E3E00E146EEFEC1FF0DD
:1020F0001450EF26EFEC1FF0EF500E5D0EE10BECED
:1021000022F02CE0FBEC1FF0610E0E5D18E30E5187
:102110007A0815E3E00E0E2712D008CC99F309CC0B
:102120009AF310510CE09DEC1FF0610E0C010E5D56
:1021300005E30E517A0802E3E00E0E27106B0D2B1B
:10214000C4D70C010D6B0F510D5D21E2EFEC1FF0B8
:10215000EF500E5D10E10BEC22F00AE10C0108518A
:10216000065D166E07510955176E0D5128EF20F0C8
:10217000FBEC1FF00AD008CC99F309CC9AF310516C
:1021800004E09DEC1FF00C01106B0D2BDCD70C0153
:102190000F514FEC21F0025F1550035B7EEC21F0F4
:1021A00003E2F368F46812000F514FEC21F00627A8
:1021B000155007234FD7A6C394F3A4C392F3A5C326
:1021C00093F3A2C390F3A3C391F3010E03018E6FA7
:1021D0008F6B0301A10E8C6F030E8D6FA0C38BF369
:1021E0007DEF0EF00C013D6B3D51C8EC1EF001E39C
:1021F00009D23DCC45F35BEC08F00C01406B3E6B23
:102200003F6B03014151020B03E14151040B0EE00E
:1022100063EC28F000090AE00C01100E406F030186
:102220004151040B01E0010E0C013E6F030140AB74
:1022300011D016EC44F0030106503B5D146E0750BC
:102240003C59156EE83402E260EC22F003E30C0125
:10225000100E406F030140AD09D013EC21F002E2F3
:1022600060EC22F003E30C01100E406F0B0E030133
:102270003F5D0CE113EC21F002E260EC22F006E39A
:102280000C01110E406F03010C0E3F6F040E3F5DF9
:1022900053E10C01416B426B030E415D000E42594C
:1022A0004BE285EC22F039EC23F046E085EC22F09D
:1022B0009CEC20F00DEC20F003014251141837E1A2
:1022C0004351151834E183EC08F00A0EE66EE66A15
:1022D00085EC22F087EC21F0C9EC21F098EC3EF07F
:1022E000060EE15E85EC22F065EC22F0EECF10F3F5
:1022F000EDCF11F385EC22F00C0E8BEC22F0EECF3B
:102300000AF3EECF0BF3EECF0CF3EFCF0DF3030197
:102310000A2B0B230C230D23C9EC1FF00C01120E0A
:10232000406F0301060E3F6FCFEC1EF005D00C018D
:10233000412B000E4223B0D70C0140510AE03E5120
:1023400002E0000E01D0010E0301AE6F40CCADF3F0
:1023500025DA030140B92FD0070E3F5D01E04FD1D0
:10236000D5EC1FF001E04BD103014051070B0608EB
:1023700016E14051080B01E0010E0C01406F3DCC0D
:1023800050F334EC0AF03DCC50F334EC0AF00C017D
:10239000405101E034D103010E0E3F6F30D183EC88
:1023A00008F00301020EAE6F0301100EDAEC22F00A
:1023B00014EC1FF024D1D5EC1FF001E020D183EC08
:1023C00008F003013F510C0A01E1CDD0060A01E1FA
:1023D000C4D0030A01E1D0D0010A01E1BAD00F0A4A
:1023E00001E1AED00C0A01E1ABD00D0A01E19DD0B4
:1023F000030A01E187D0060A5AE0010A48E0030A0D
:1024000021E0010A01E0BDD006EC2CF0000901E159
:10241000B8D00301010E3F6F24A50BD00001E16F7E
:1024200018C3DEF019C3DFF01AC3E0F038EC2CF06B
:10243000A8D00001DD6F18C3DBF019C3DCF018EC85
:102440002CF09FD00001430EE26F0C0EE36F5BECAB
:102450002CF0000901E195D00BEC2CF0000913E001
:1024600043CC18F344CC19F345CC1AF346CC1BF3F8
:102470000301020E3F6FC9EC1FF0276B270E026F9E
:10248000036B046B50D014EC1FF03F6B7AD016EC4A
:1024900044F006C03BF307C03CF30301180EEE6F97
:1024A000030EEF6F1DEC33F00301030E29D003017F
:1024B0001C0EF26F030EF36F0301180EF06F030E84
:1024C000F16F4AEC33F0000915E116EC44F003011A
:1024D0003B51065C146E3C510758156E1450025D5A
:1024E000155003594EE2060E275D02E212EC22F06F
:1024F000020E06D00C01020E406F3E6B0301050E6A
:102500003F6F3FD00C01020E406F010E3E6F040E74
:102510000301275D36E3040E276F200E026FEF0ED6
:10252000036F090E046F056B2CD0020E275D03E2CA
:102530000C01120E1DD040B71FD00C01020E07D0A7
:10254000050E275D0DE3080E3F6F0C01110E406F65
:1025500018D0050E275D10E209D0050E275D0CE2AC
:102560000C01100E05D0050E275D06E20C01110EC0
:10257000406F010E3E6F05D00C01140E406F010E2E
:102580003F6F0C01405136E03E512EE0030112EC4A
:1025900022F031510E5D0C01416F030132510F5990
:1025A0000C01426F0301CEEC21F007E23EEC1FF07C
:1025B00014500C0141271550422341CC14F042CC59
:1025C00015F0166A176A14500301DEEC20F00C01B6
:1025D0004151030114270C0142510301152368ECFA
:1025E00022F00301AE6B03D00301010EAE6F40CCAD
:1025F000ADF3D4D80C013F5102E096EC17F00C017A
:102600003D2BF2D5416B426B030E415D000E4259EA
:102610002FE285EC22F039EC23F001E1120085EC89
:1026200022F06DEC22F0E6EC20F016C0E6FF17C0B9
:10263000E6FF16EC44F0E552E7CF17F0E552E7CF9E
:1026400016F01650065C146E17500758156EDC0E07
:10265000D8801454010E155406E2CFEC1EF00C0184
:102660004107000E425B0C01412B000E4223CCD7E8
:102670001200A7C3E9FFA8C3EAFFEECF3CFCEECFF0
:102680003DFCEECF3EFCEFCF3FFCA9C3E9FFAAC360
:10269000EAFFEECF40FCEECF41FCEECF42FCEFCFA5
:1026A00043FC0C01446B060E456FABC346FCACC348
:1026B00047FCABC356FEACC357FE35EC26F0F3CF58
:1026C00046FCF4CF47FC0C0E0E015E6F5F6B0E01F3
:1026D0003C0E5C6F0C0E5D6F50EC26F0F3CF48FCA7
:1026E000F4CF49FC0C01481F491FABC3B1F0ACC388
:1026F000B2F000EC2AF0F3CF4AFCF4CF4BFC0C0113
:10270000F350481948E14B51491945E10401516B17
:10271000526B33EC3EF0140E0001BB6FBC6B00013A
:10272000280EB96F0C0EBA6F2CEC2BF00301280E9B
:10273000B36F0C0EB46FB9DB0C01345104EC23F011
:10274000040DF35019EC22F014C04CFC1450146E1C
:10275000156AE8500301AB5DAB6F1550AC59AC6F17
:10276000140EAB5F000EAC5BA7C3B1F3A8C3B2F30A
:102770000301280EAF6F0C0EB06F5CDA00090BE09E
:10278000ABC3B7F3ACC3B8F30301280EB56F0C0E9F
:10279000B66F35EC18F076EC28F0010C83EC08F0FD
:1027A0000301ADA102D04187AD91409B409D409F68
:1027B00041934195419163EC28F00009FCE0060E3D
:1027C0000301AD1504E00C01266B276BB3D00E514D
:1027D0002F1907E10F51301904E10C01266B276B0B
:1027E00091D02F510E5D30510F591FE20E512F5DC8
:1027F0000C01266F03010F5130593BEC21F004E22C
:1028000014C326FC15C327FC90EC21F005E225C378
:1028100026FC26C327FC418526CCC5F327CCC6F36E
:1028200033EC20F099EC21F06DD00E512B5D0C01B2
:10283000246F03010F512C590C01256F2451030102
:102840002F25146E0C01255103013021156E2951DD
:10285000145C0C01266F03012A5115583BEC21F042
:1028600004E214C326FC15C327FC90EC21F005E21A
:1028700025C326FC26C327FC41850C012451265D77
:102880002551275904E226CC24FC27CC25FC24CC56
:10289000C5F325CCC6F333EC20F00C012451265DA2
:1028A000246F25512759256F2451251122E024CC6E
:1028B000C5F325CCC6F344C3C4F329C3C2F32AC36A
:1028C000C3F30301C16B03010E512B5D146E2C5138
:1028D0000F55156E166A176A050E14260B0E152273
:1028E000000E1622172214C0BFF315C0C0F306EC69
:1028F0001EF099EC21F02B510E5D2C510F5902E383
:1029000013EC23F0030141A715D014510C01261933
:1029100004E1030115510C0127190CE003012551B5
:102920000C01261904E1030126510C01271902E0CC
:102930000301AD810C012651271104E1030E0301AF
:10294000AD151CE00C0126510301145F0C01275149
:102950000301155B0C012651271102E00301AD872D
:102960000301AEA107D0276BF20E026F9E0E036F1C
:10297000046B056B42EC20F0408929D0AEA319D03E
:10298000400EE96E030EEA6EEF50070BE82AE8509E
:10299000070BF36EF46EF80EEF14F310EF6E0607EC
:1029A000000E075B085B095B010E0C01266F276BAD
:1029B0000ED040A90CD0AEB108D0275106E02707B1
:1029C000D890053304330333023342EC20F012C3B2
:1029D00002FC13C303FC10C304FC11C305FC06C3B3
:1029E00006FC07C307FC08C308FC09C309FC0AC3AB
:1029F0000AFC0BC30BFC0CC30CFC0DC30DFC0C013F
:102A00000E910E930E950E97ADC30FFC146B156BC4
:102A10002651030106270C01275103010723000E4D
:102A200008230923ADA315D0ADB905D00C010A6B5D
:102A30000B6B0C6B0D6B030124A306D00C01060776
:102A4000075B085B095B05D0062B072308230923D6
:102A500024830301ADB124813551335D365134599E
:102A60000AE3CAEC20F00C011650145C106F1750EA
:102A70001558116F0DD03351355D0C01106F0301E6
:102A8000345136590C01116F010E105F000E115BAD
:102A90009CEC28F0F3CF00FCF4CF01FC0C01400EBD
:102AA000F35C000EF45803E2006B016B04D0400E9F
:102AB000005F000E015B1051005D1151015904E2ED
:102AC00000CC10FC01CC11FC0301020EB36F0C0E04
:102AD000B46FEBD9140E0C012627000E27230E89A4
:102AE0000E9B0E8D0E9F0301ADA323D0040E0C018F
:102AF0002627000E2723020E166F040E176F020EF4
:102B0000186F180E196F010E146E0E0EE96E0C0E72
:102B1000EA6EEF5004EC23F014240F0BF36EF46E06
:102B2000F346F346F346F3460F0EEF14F310EF6E41
:102B3000F45010C81AFC11C81BFC12C81CFC13C8A6
:102B40001DFC18C31EFC19C31FFC1AC320FC1BC3A9
:102B500021FC0C01226B060E236F26CC24FC27CC13
:102B600025FC26CC56FE27CC57FE35EC26F0F3CFBD
:102B700024FCF4CF25FC0C0E0E015E6F5F6B0E0182
:102B80001A0E5C6F0C0E5D6F50EC26F0F3CF12FC4A
:102B9000F4CF13FC0C01121F131F0001DD0EA96FEF
:102BA0000A0EAA6FC0EC29F026CC4FF427CC50F4C3
:102BB0000401060E4E6F0401180E4C6F030E4D6F8C
:102BC000C0EC3DF0140E70EC22F0020EBE6F0C0E45
:102BD000BF6F50EC2BF00301ADA309D0040E70ECD5
:102BE00022F0160EBE6F0C0EBF6F50EC2BF00001E2
:102BF000F10EAB6F0A0EAC6FCDEC29F026CCB1F024
:102C000027CCB2F000EC2AF0F3CF00FCF4CF01FCAB
:102C10000001010EA96F0B0EAA6FC0EC29F0020E85
:102C200070EC22F0000EBE6F0C0EBF6F50EC2BF05C
:102C300097EF29F045EC1FF0EE50ED1001E1000C8C
:102C40000C01FE0E016FD3EC21F05CEC21F0D3EC13
:102C500021F01850EE24166E1950EE20176EA9ECD4
:102C600022F01650EE24146E1750EE20156E45EC2F
:102C70001FF01450EE18026F1550EE18036F006B22
:102C80000051C8EC1EF048E200CC45F35BEC08F0C4
:102C90000D0E03013F5D3DE0040E3F5D0BE10AECCC
:102CA00023F01450421935E11550431932E100CC9C
:102CB00001FC2FD00C010251030142192AE10C0141
:102CC00003510301431925E183EC08F00AEC23F0DA
:102CD0000301125114181DE1135115181AE1A9EC42
:102CE00022F0E6EC20F01051161813E111511718DC
:102CF00010E1D3EC21F0EE5018190BE1EE50191948
:102D000008E1EE501A1905E1EE501B1902E101E14C
:102D1000010C0C01002BB4D7FE0E015D21E001CCAB
:102D200045F34BEC22F0FE0E0C01015D19E002CCE4
:102D300042F303CC43F3E0EC21F0C9EC21F095EC35
:102D400020F0A9EC22F0EECF10F3EDCF11F345EC1B
:102D50001FF0EECF12F3EDCF13F375EC22F0010C60
:102D6000A9EC22F00D0E8BEC22F0EF50020B01E1EA
:102D7000000C0E013851391101E0000C0C01046BFC
:102D8000056B030E045D000E05593BE27FEC22F05B
:102D900039EC23F036E07FEC22F09CEC20F00DECD7
:102DA00020F045EC1FF0E6EC20F01650141824E15A
:102DB0001750151821E17FEC22F065EC22F00DECA4
:102DC00020F0A9EC22F0E6EC20F01650141814E1E3
:102DD0001750151811E1D3EC21F055EC23F0EE500B
:102DE0000001141808E1EE50151805E1EE50161810
:102DF00002E1EE50171848E00C01042B000E0523E9
:102E0000C0D7006B0051C8EC1EF04EE200CC45F379
:102E10005BEC08F0030140A744D083EC08F00AEC17
:102E200023F01450030112193CE11550131939E134
:102E3000E0EC21F07FEC22F087EC21F01EEC21F099
:102E4000A9EC22F00DEC20F07FEC22F065EC22F0F2
:102E500014C0EEFF15C0EDFFA9EC22F0040E8BECC0
:102E600022F055EC23F00C0E8BEC22F014C0EEFF98
:102E700019EC23F00AEC23F07FEC22F09CEC20F01C
:102E800014C0EEFF15C0EDFF16EC44F007C015F0BE
:102E90007FEC22F06DEC22F006C0EEFF15C0EDFFD6
:102EA000000C0C01002BAED7000CAEEC22F035EC80
:102EB0001FF0F3CFEEFF15C0EDFFAEEC22F0020ED7
:102EC0008BEC22F035EC1FF0020EF3CFEBFF030E7C
:102ED00025EC21F0040E83EC1FF0040E52EC20F0E0
:102EE000080E83EC1FF0080E52EC20F00E0E8BEC57
:102EF00022F035EC1FF00E0EF3CFEBFF0F0E25EC9A
:102F000021F09CEC20F035EC1FF0100EF3CFEBFF1E
:102F1000110E25EC21F06DEC22F035EC1FF0120EB5
:102F2000F3CFEBFF130E15C0EBFF120083EC08F09C
:102F300012C342F313C343F336EC21F029C331F338
:102F40002AC332F32BC333F32CC334F35BEC22F0EC
:102F500003014051080B02E0040E01D00D0E3F6F3B
:102F60004091409340954099409B409D409F4191A6
:102F70004193419541974189249124932497249921
:102F800075EC22F097EC23F0F3CF06F3F4CF07F3C0
:102F900097EC23F0F3CF08F3F4CF09F30301226990
:102FA0002369010E146F156B12000C0E0401516F92
:102FB000526B33EC3EF02AEC2BF00C01006FF00E5C
:102FC0000015E840E8403F0B19EC22F014C000FC6B
:102FD000145046E0070EA2EC21F00C01005100074E
:102FE00000093EE07AEC22F0E8503AE00105F5E015
:102FF000020E015D26E1030E005D32E3026B036BFE
:103000007AEC22F0040E015D08E12AEC2BF00C01B1
:10301000036F2AEC2BF00C01026F180E025D020EFA
:1030200003591EE3B40ED8800255050E035504E281
:10303000B40EF36E050E17D002CCF3FF03CCF4FFF1
:103040001200020E005D0CE37AEC22F0E850005D05
:1030500007E30151A2EC21F00C010151005FBDD743
:10306000180EF36E020EF46E1200CBEC22F00D0E71
:103070008BEC22F0EFCF79FCCBEC22F0080E8BEC3E
:1030800022F0EECF7AFCEECF7BFCEECF7CFCEFCFD4
:103090007DFCCBEC22F0040E8BEC22F0EECF7EFC1C
:1030A000EECF7FFCEECF80FCEFCF81FC030140919F
:1030B0004093409540B902D014EC1FF03F51050AEF
:1030C0001FE0010A08E0B7C382FCB8C383FC0C010F
:1030D00079A14AD046D00C0179B510D079A906D093
:1030E000EBEC20F0040EDAEC22F008D079A306D045
:1030F00075EC20F020EC22F0D7EF20F096EF17F0DF
:103100000C0179B5120079A910D0C3EC21F00301AC
:10311000061908E1EE50071905E1EE50081902E121
:10312000EE50091902E066EF1FF00C0179A327EFBA
:103130001DF075EC20F0AAEC21F0EECF14F3EDCFEA
:1031400015F320EC22F00C0179A909D051EC1FF005
:103150000301070E3F6F14EC1FF040991200D7EFE8
:1031600020F0822B000E832379A303D0822B000E44
:103170008323B7EC21F00AE3CAEC20F00C011650CF
:10318000145C776F17501558786F0DD03351355D3B
:103190000C01776F0301345136590C01786F010E21
:1031A000775F000E785B0A0EE96E030EEA6EEE5052
:1031B0007E5D716FEE507F59726FEE508059736F64
:1031C000EE508159746F71CC75FC72CC76FC846BB7
:1031D000825183115FE07751781169E0800E741598
:1031E00003E17FEC20F03BE382CC14F083CC15F0BC
:1031F000166A176A710EE96E0C0EEA6EEE5014260E
:10320000EE501522EE501622EE5017221734000E03
:10321000171809E6D880000E1454000E1554000E3D
:103220001654000E17541DE28251775D186E7851C6
:103230008355196E1A6A1B6A19AE02D01A681B6888
:103240001B507419E8AE02D0743508D07151185C67
:103250007251195873511A5874511B5802E3010ED8
:10326000846F20EC23F074511718E8AE02D01734A5
:1032700002D0EEEC22F01BE275518225186E7651D9
:103280008321196EE83413E218500008000E195417
:103290000EE20BD0715172117311741106E0800EA1
:1032A000741505E17FEC20F002E2010E846F845179
:1032B00004E179B5CCD351EF1FF0060E791502E089
:1032C00096EF17F079A9120003013F510C0A01E1B2
:1032D000B0D10B0A1CE00F0A1AE0010A18E0020A3A
:1032E00016E0010A14E00C0A01E0BFD1C3EC21F0A2
:1032F000061908E1EE50071905E1EE50081902E140
:10330000EE50091902E066EF1FF0070E3F6F0E51F5
:103310002F5D0C016F6F03010F5130590C01706F5D
:10332000800E701508E003013EEC1FF014500C01F4
:103330006F27155070236FCC14F070CC15F0166AFF
:10334000176A3DEC23F0EE5014246B6FEE501520FD
:103350006C6FEE5016206D6FEE5017206E6F6B0E77
:10336000E96E0C0EEA6EEE5082EC20F002E645ECBF
:1033700021F015E203012451010B0AE0010E0C01BA
:103380006B1905E16C5103E16D5101E16E5102E0F1
:10339000E8EF21F07A07000E7B5B7C5B7D5B03012D
:1033A000AEEC21F015AE02D0166817683DEC23F0A4
:1033B0001450EE5C0C016B6F1550EE586C6F16508C
:1033C000EE586D6F1750EE586E6F0301CEEC21F082
:1033D0000BE242EC23F014500C016B5F15506C5B58
:1033E00016506D5B17506E5B6B0EE96E0C0EEA6E3D
:1033F000EE500C0182EC20F002E645EC21F06CE28C
:10340000030142EC23F00C016B51145C6C51155814
:103410006D5116586E5117585FE303012497249994
:10342000419131C36FFC32C370FC0C016B5103013D
:1034300031270C016C51030132230C016F51030140
:103440000E5D0C01705103010F5909E3CEEC21F020
:103450002FE20E51315D146E32510F551BD03EECF0
:103460001FF00E5114240C016F6F03010F51152032
:103470000C01706F030131510C016F5D030132517A
:103480000C01705915E26F510301315D146E325118
:103490000C017055156E0001145003010627000140
:1034A000155003010723000E0823092368EC22F0BE
:1034B00003012B51315D2C51325906E33EEC1FF0D4
:1034C0001450315F1550325B2B510E5D2C510F594A
:1034D00028E313EC23F025D003010E51311902E14A
:1034E0000F5132191EE024A71BD024A918D0AEEC2E
:1034F00021F015AE02D0166817681450DEEC20F0EB
:10350000CEEC21F009E242EC23F015AE02D01668B1
:1035100017681450DEEC20F068EC22F04185248915
:1035200024872F5131191CE13051321919E141B76B
:1035300004D014EC1FF0409913D0F6EC1FF010E10A
:10354000EE507B190DE1EE507C190AE1EE507D1929
:1035500007E106E103012451010B02E04099419784
:10356000C3EC21F00301065D146EEE500759156E91
:10357000EE500859166EEE500959176EAAEC21F05C
:103580000C011450EE5C856F1550EE58866F0301E8
:103590001451151106E10C018551861102E0030159
:1035A000418385CC14F386CC15F3080E03013F5DEF
:1035B00020E1F6EC1FF059E1EE507B1956E1EE5098
:1035C0007C1953E1EE507D1950E14FE10301245184
:1035D000010B4BE08FEC22F0BA0E030137271A0ED5
:1035E0003823030E3923000E3A234089090E3F6F1A
:1035F0003CD0090E3F5D0AE10C0179B136D0EBEC0D
:1036000020F0140EDAEC22F096EF17F00A0E3F5D70
:103610002CE1F6EC1FF00CE1EE507B1909E1EE50C5
:103620007C1906E1EE507D1903E101E010D27EDC49
:10363000120006C314F007C315F008C316F009C33F
:1036400017F0142A65EC23F014500C017A190CE1E0
:1036500015507B1909E116507C1906E117507D19A8
:1036600003E101E0F4D162DC12000C0179BB12002D
:103670000B0E03013F5D01E112000A0E3F5D01E107
:1036800012000C0E3F5D01E11200B751B81101E1CB
:1036900066D10C01763504E275510008000E7655AE
:1036A00001E2A2D005EC20F0146E156A7551F35CAE
:1036B0000401516F0C01765115580401526F33EC1F
:1036C0003EF00C0175510301B7270C01765103013F
:1036D000B823B7510C01775D0301B8510C0178593B
:1036E00004E277CCB7F378CCB8F30301B7510A27DB
:1036F000B8510B23000E0C230D233351B725146E44
:103700003451B821BDEC21F024E233512D5D0C0180
:103710006F6F030134512E590C01706F010E6F272A
:10372000000E702327EC23F033C3BFF334C3C0F380
:103730009AEC22F029EC21F0146EB8510C0170556E
:10374000156E03012B511424336F2C511520346F47
:103750000CD0C0EC22F033C3BFF334C3C0F356DA4D
:103760000301B7513327B8513423221D01E1231D32
:1037700001E1F5D0B751225FB851235B16512225E4
:103780000C016F6F0301175123210C01706F800E24
:10379000701502E0030125D00301233504E2225114
:1037A0000008000E235501E2DAD00C016F5103012D
:1037B0000A270C01705103010B23000E0C230D236B
:1037C0000C016F51030133270C01705103013423A5
:1037D00033512D5D34512E5904E25BDB335F1550BC
:1037E000345B22692369BBD0763501E3B8D07551CB
:1037F0000008000E765501E3B2D00301B7510C0169
:103800007525146E0301B8510C017621156E145004
:10381000775D1550785909E27551775D0301B76FEF
:103820000C01765178590301B86FEFDB0401516F39
:10383000526B33EC3EF047EC23F0166E4CEC23F069
:10384000176E16500301B725146E1750B821BDEC42
:1038500021F031E233512D5D146E2E513455B3EC0D
:1038600022F00C017551145C6F6F76511558706F12
:10387000800E701508E127EC23F0F0EC20F0C06F0B
:103880009AEC22F01DD0C0EC22F047EC23F0146E2D
:103890004CEC23F0156E03012B512D5D166E2E514D
:1038A0002C55176E46EC22F003011650145CBF6FC6
:1038B0001750155804D0C0EC22F0F0EC20F0C06F87
:1038C000A5D90301221D0BE1231D09E175CC22F3CB
:1038D00076CC23F3B7C316F3B8C317F340D0225105
:1038E0000C01755D030123510C0176591EE23DDB8D
:1038F00006E30C01F6EC20F02351195805E2B7C39A
:1039000016F3B8C317F30CD02FEC21F00C0175514E
:10391000145C0301166F0C01765115580301176FE3
:1039200075CC22F376CC23F31AD01FDB18E22FECF0
:1039300021F00C017551145C7651155810E3F6EC2A
:1039400020F0166E23511958176E1651165C146E1E
:1039500017511758156E14501627155017230C01C0
:103960008251831119E0070E03013F5D04E033C368
:1039700035F334C336F340AF04D093DA83EC08F068
:103980000BD0408F40BD08D0408D27EC22F00F0EA9
:1039900003013D27000E3E230C0179A158D00AC334
:1039A00014F00BC315F00CC316F00DC317F0142A56
:1039B00065EC23F082CC18F083CC19F01A6A1B6AEC
:1039C0007E0EE96E0C0EEA6EEE501826EE501922AD
:1039D000EE501A22EE501B221450181838E11550E0
:1039E000191835E116501A1832E117501B182FE13B
:1039F0002EE12DEC23F03F51090A24E0010A12E0E8
:103A00000F0A06E0010A22E10C0E3F6F91EF20F051
:103A10000B0E3F6F27EC22F01F0E03013D27000E17
:103A20003E2314D0E3DA0AE1EE507B1907E1EE50B1
:103A30007C1904E1EE507D1901E104E003010A0E56
:103A40003F6F04D0E8EC21F096EF17F02ADA12006D
:103A50000301B9519DD901E3000CB9C345F35BECF7
:103A600008F00301BA51BB1103E1010EBA6FBB6B41
:103A700029512D5D0C01286F03012A512E590C018B
:103A8000296F010E285F000E295B03012EEC22F046
:103A90000C011450285D1550295901E2000C83ECEB
:103AA00008F0030E0301BE1502E1030EBE13BCC3F2
:103AB0002CFCBDC32DFC2EEC22F014500C01285F11
:103AC0001550295B0301BEA313D0BEA10CD028CC96
:103AD00014F029CC15F0D8901532143214500C0182
:103AE0002C27155004D00C0128512C2729512D23A7
:103AF000030129510C012C25286F03012A510C01C7
:103B00002D21296F010E2827000E292333C32AFCFB
:103B100034C32BFC0301221D01E1231D13E09FDBB5
:103B200014500C012A2715502B232A5103012D5D17
:103B30000C012B5103012E5905E2ABD90C012A5F70
:103B400015502B5B0C012A510301355D0C012B51E3
:103B5000030136590CE20C0128510301355D0C01BB
:103B600029510301365918E2BEA50ED0000CEEEC27
:103B700021F00AE2285103012B5D0C0129510301B8
:103B80002C590AE2BEB5000C28CC35F329CC36F30B
:103B900028CC33F329CC34F30301EEEC21F025E2F9
:103BA000040E0301BE1521E02B510C012A5D030117
:103BB000C56F03012C510C012B598EDB44C3C1F39B
:103BC00028CCBFF329CCC0F321D8D1DB0EE20C0105
:103BD000285103012B5D146E2C510C012955156ED3
:103BE00014500301335F1550345B28CC2BF329CCE0
:103BF0002CF375EC22F029C331F32AC332F336DB00
:103C0000070E03013F5D01E14CD9010C0301C451D2
:103C10002AE0010A01E01200C15111E0010A01E0AD
:103C20001200C5C3E6FFC6C3E6FFC2C3E6FFC3C3B7
:103C3000E6FFBFC3E6FFC0C3E6FF95EF20F0BF1D60
:103C400001E1C01D06E0BFC3A9F0C0C3AAF0C0ECEB
:103C500029F0C5C3C0F0C6C3C1F0C2C3BEF0C3C320
:103C6000BFF050EF2BF0C15117E0010A01E0120044
:103C7000C21D01E1C31D06E0C2C3ABF0C3C3ACF07B
:103C8000CDEC29F0C5C3BBF0C6C3BCF0BFC3B9F0CF
:103C9000C0C3BAF02CEF2BF0C5C3B7F0C6C3B8F061
:103CA000C2C3B5F0C3C3B6F0BFC3B3F0C0C3B4F072
:103CB0008AEC2AF024EC2BF00009FCE0120003014E
:103CC000C9510EE0010A01E01200CDC3E6FFCEC3E8
:103CD000E6FFCBDBC7C3E6FFC8C3E6FF3CEF22F03D
:103CE000C71D01E1C81D06E0C7C3A9F0C8C3AAF0FB
:103CF000C0EC29F0100E0C01106F116B0301CD51B7
:103D0000CE1137E00C0110510301CD5D0C011151B2
:103D10000301CE5904E2CDC310FCCEC311FC10CC7C
:103D2000E6FF11CCE6FFA1DB000EE66E0C0EE66EA0
:103D3000A3DB10CCC0F011CCC1F00001000EBE6FAF
:103D40000C0EBF6F50EC2BF010CC14F011CC15F012
:103D5000166A14500301CA271550CB231650CC23E2
:103D60000C0110510301CD5F0C0111510301CE5B19
:103D7000C5D71200140EEA02F3CFEAFFE902F3CF2F
:103D8000E9FFF450EA26000EE9260E0EEA221200A0
:103D9000146E156A090E145C000E1558120041CC01
:103DA000C5F342CCC6F30301020ED880C557000EFE
:103DB000C657140EC603F3CFC6F3C503F3CFC5F33E
:103DC000F450C6270301010EC46F0C014125030105
:103DD000C26F000E0C0142210301C36F140EC30316
:103DE000F3CFC3F3C203F3CFC2F3F450C327000EE3
:103DF000C2270E0EC32351EC23F0140E086E096A7D
:103E000041CC0DF042CC0EF059EC44F006C0BFF3AB
:103E100007C0C0F3000E0301BF270E0EC023F6DE5D
:103E20000E01386B396B12007ADB740E03013727F1
:103E3000350E3823060E3923000E3A231200860E63
:103E4000146E8D0E156E000E166E14CC17F0186AD7
:103E5000196A060E0C6E0D6A0E6A14CC07F018C0B3
:103E600008F019C009F077EF44F0EECF56FEEDCF21
:103E700057FE35EC26F0F8DBAEEF22F029512B5D32
:103E8000146E2C512A55156E120063DB020E8BEF57
:103E900022F02B512D5D146E2E512C5564DB1450E5
:103EA000120074DB100EDAEF22F07ADB060E61D31B
:103EB00014500424F36E15500520F46E165006209D
:103EC000F86EF4CFF7FFF3CFF6FF120006C37EFCC7
:103ED00007C37FFC08C380FC09C381FCEDDB56DB14
:103EE000040E68DB7ECC06F37FCC07F380CC08F3AE
:103EF00081CC09F312000301C46B0301C269C369D9
:103F000044C3C1F3120007DBEECF58FEEECF59FEDB
:103F1000EECF5AFEEFCF5BFE3AEC26F006C014F06F
:103F200007C015F008C016F009C017F0AEEF22F078
:103F3000156E14C0F3FFF46E12000ACC96F30BCC8E
:103F400097F30CCC98F303010ACCF6FF962B0BCC1D
:103F5000F7FF000E97230CCCF8FF98230800F5CF4D
:103F60000EFC12001DDB1F0E04D375510301B72593
:103F7000146E0C0176510301B821156E22511625DD
:103F8000166E23511721176E1450165C15501758D2
:103F900012001A511825166E1B511921176E165052
:103FA0001025146E1750112122D304EC44F00301A4
:103FB0003751065C146E38510758156E3951085840
:103FC000166E3A510958176E0001800E1714120030
:103FD0000C51EA6A100FE96E0C0EEA2212000D5124
:103FE000EA6A110FE96E0C0EEA22120046DBEE506F
:103FF0000C017A19120096C3F6FF962B97C3F7FFB0
:10400000000EE3DA010E106F1200C5DA0C0E83DA2F
:10401000EF50FADA040DF3501200EECF14F0EFCFA8
:1040200015F012000301010EC46F64C3C2F365C32F
:10403000C3F3DDEF22F044C3C4F335C3C2F336C388
:10404000C3F32FDB7CC3BFF37DC3C0F306EF1EF0C9
:1040500000011624146E000E172085DA14C0F3FF39
:1040600015C0F4FF120044C3C4F30EC3C2F30FC360
:10407000C3F30301C16B0301050EBF6F0B0EC06FCD
:1040800006EF1EF004EC44F0065003010225376FE2
:1040900007500321386F08500421396F095005215A
:1040A0003A6F120038DA06C0EEFFC3DAAEEF22F044
:1040B00069C3CAF36AC3CBF36BC3CCF344C3C9F37C
:1040C0002FC3C7F330C3C8F35FEF1EF00ACC8CF3E5
:1040D0000BCC8DF303010ACCE9FF0BCCEAFF8C2B50
:1040E000000E8D23EFCF0DFC12007ECC0AF37FCCA7
:1040F0000BF380CC0CF381CC0DF32DEF23F0A0DA81
:10410000EEEF22F07A5D6B6FEE507B596C6FEE50E4
:104110007C596D6FEE507D596E6FE834000E6E194C
:10412000120034DA110EDAEF22F098EC3EF0146E41
:10413000060EE15E14501200100E8BEF22F01C0DE3
:1041400093DA000E1426010E152214C0E6FF15C0E6
:10415000E6FF1200176E16504B25146E17504C21B7
:1041600046D244C3C4F300CCC2F301CCC3F399DA02
:1041700082C3BFF383C3C0F312008CC3E9FF8DC3B6
:10418000EAFF8C2B000E8D23EFCF0DFC0C01010EEE
:104190000F6F12002B512D5D146E2E512C55156E84
:1041A0003551335D166E34513655176E1200EED907
:1041B000120E00DA0301060E3F6F1200065F155063
:1041C000075B1650085B1750095B1200EECF16F024
:1041D000EFCF17F0120070DA0301AE6B030112008B
:1041E00056DA0301BF6F58DA03011200755103015B
:1041F000B725186E0C0176510301B821196E2251B2
:10420000185C12000301C56FC66B44C3C4F31200EF
:10421000AE511C0DF3CFE9FFF4CFEAFF000EE92603
:10422000010EEA22120016EC44F0030106503D5D37
:10423000146E07503E59156EE834120098EC3EF0AB
:10424000166E060EE15E1650120015C0EBFFAEEFC3
:1042500022F0DCDC0C016F510301B75D120022512A
:104260001625146E23511721156E120029C32FF342
:104270002AC330F312000C01276F26510301145D8D
:104280000C012751030115591200D880000E6B55FF
:10429000000E6C55000E6D55000E6E551200146E1A
:1042A000156A1450120046C318F347C319F348C3E4
:1042B0001AF349C31BF31200020E2DD9EECF18F0EA
:1042C000EFCF19F012000C012A5103016C5D0C01B3
:1042D0002B5103016D5912000301C66F44C3C4F38F
:1042E0002BC3C2F32CC3C3F3120003018E510C0184
:1042F000025D03018F510C01035912000301995112
:104300000C01025D03019A510C0103591200E9CF1F
:1043100014F0EACF15F0E9CFE6FFEACFE6FF12008E
:104320000C0126510301255D0C012751030126597B
:1043300012000C01265103010E270C012751030125
:104340000F2312000001BB6FBC6B0001B96BBA6B8D
:104350002CEF2BF020D90E0E8BEF22F031510E5D99
:10436000146E0F513255156E166A176A120003014A
:104370003551335D365134591200156E14502D5D90
:1043800015502E5912007A0EE96E0C0EEA6EEE50A0
:104390001200180EE66E030EE66E120031510E5D2D
:1043A00032510F591200B1C3E9FFB2C3EAFF120044
:1043B00039510301665D0C013A510301675912003E
:1043C0000A0EE66EE66AB1C3E6FFB2C3E6FF12006C
:1043D0000301AE6B0301100EDAEF22F035510C0130
:1043E0002A5D030136510C012B5912005BEC08F0D9
:1043F00033C335F334C336F31200156E03012B516A
:10440000145C2C511558120003018E07000E8F5BAF
:104410008E518F11120003019907000E9A5B99517A
:104420009A111200272BD89002370337043705372B
:104430001200146E156A140E145E000E155A120046
:10444000D5EC17F0F3CF25F3F4CF26F3120016ECDA
:1044500044F006C03DF307C03EF31200BA51BC253C
:10446000146EBB51BD21156E1200CAC3E6FFCBC34B
:10447000E6FFCCC3E6FF1200C3EC3EF0146E070E5D
:10448000E15E145012000DD903011200010E162630
:10449000000E172212005BEC08F083EF08F061C3F6
:1044A0005FF3B2EF0AF063C35FF3B2EF0AF068C3E1
:1044B0005FF3B2EF0AF02BC335F32CC336F31200CF
:1044C00014500008000E155412000A0E8BEF22F053
:1044D00031C30EF332C30FF31200120E8BEF22F032
:1044E0000001C06FC16B0001120029C30EF32AC383
:1044F0000FF312002AEC2BF00C01016F120004CC18
:10450000E9FF05CCEAFFBAEF1EF041CCE9FF42CC4F
:10451000EAFFBAEF1EF0E926000EEA22120004ECD0
:1045200044F006C037F307C038F308C039F309C0B8
:104530003AF312008EDE0301C56F0C0170510301C6
:10454000B8590301C66FD7DC2BC3BFF32CC3C0F32C
:104550001200AFC3E9FFB0C3EAFF1200B3C3E9FF23
:10456000B4C3EAFF1200156E010E1426000E1522C8
:1045700012001426AAD814C03BF315C03CF3120055
:10458000B7C3C5F3B8C3C6F37BEF1FF00301010E39
:10459000AE6F03011200B5C3E9FFB6C3EAFF120014
:1045A000408B16EC44F006C014F007C015F0166AF4
:1045B000176A1200AD6FCEEF13F044C3C1F32FC3DF
:1045C000BFF330C3C0F306EF1EF0972398C3F8FF84
:1045D00098230800F5CF0EFC0C0112001450715DF9
:1045E0001550725916507359175074591200156EA0
:1045F00014501219426F15501319436F12003EDC0C
:10460000D890153214321200F00BE842E842E8422A
:10461000E84212003ADC0DEF20F005C018F006C0A9
:1046200019F058EF1FF02ADC14500E5F15500F5B85
:10463000120015C0EEFF16C0EEFF17C0EEFF12000D
:1046400077CC14F078CC15F0166A176A12006FCC8C
:10465000C5F370CCC6F37BEF1FF003010A2B000EED
:104660000B230C230D231200F3CF14F0F4CF15F01D
:10467000120062DDEE50ED101200060EE96E030E20
:10468000EA6E12003EEC1FF0166A176A1200030170
:1046900033510C0175251200030134510C017621B0
:1046A00012000301010EC16F1200EECF14F0EECF25
:1046B00015F08CDD7FEF22F07ACC06F37BCC07F38C
:1046C0007CCC08F37DCC09F31200000E15221622D3
:1046D00017221200A5C41FFCA6C420FCA7C421FCFD
:1046E000A8C422FC0E013C513D113E113F1105E1D1
:1046F000010E3C6F3D6B3E6B3F6B3CCEA5F43DCE57
:10470000A6F43ECEA7F43FCEA8F40C01236B100E06
:10471000235D04E20CD80C01232BF9D71FCC06F043
:1047200020CC07F021CC08F022CC09F012000C01BB
:10473000246B0F0E245D32E2A5C414F0A6C415F05C
:10474000A7C416F0A8C417F0D89017321632153245
:104750001432A5C418F0010E1816196A1A6A1B6AD9
:10476000000E186C191E19221A1E1A221B1E1B225B
:10477000010E1816196A1A6AD00E1B161450181852
:104780000401A56F15501918A66F16501A18A76FB7
:1047900017501B18A86F0C01242BCBD7A5C4F3FF0F
:1047A000A6C4F4FF1200C2CF0FFCC0CF10FCD5CFBF
:1047B00011FCD6CF13FCD7CF12FC010EC26E3F0EF8
:1047C000C06E880ED56E0C01006B0C01076B086B78
:1047D000096B0A6B0C01056B066BA9DFF3CF0BFCB1
:1047E000F4CF0CFC0C010D6B0E6BD76AD66AC2823B
:1047F0000400C2B2FED7D6CF03FCD7CF04FC97DFAC
:10480000F3CF01FCF4CF02FC0C0103510C0107278C
:104810000C0104510C010823000E09230A231A0E6F
:104820000C01075DF20E08599E0E0959000E0A5937
:104830000FE37DDFF3500C010B1BF4500C010C1B3C
:1048400076DFF3500C010D1BF4500C010E1B39D018
:104850000C0103510C01051904E10C0104510C0178
:10486000061901E1C2D70C0103510C01055D146E5C
:1048700006510C010455156E0C010C010151142454
:104880000E013C6F0C010C01025115200E013D6F11
:104890000E013E6B3F6B1EDF03CC05FC04CC06FC17
:1048A0000C01D8900B370C370D370E3740DFF35023
:1048B000800B02E00C010B810C01002B01E101D007
:1048C00094D70FCCC2FF10CCC0FF12CCD7FF13CCB3
:1048D000D6FF11CCD5FF0BCC06F00CCC07F00DCCDD
:1048E00008F00ECC09F000D012000C01226B236BF3
:1048F0001D6B1E6B1F6B206B0E0140CEE9FF41CE7E
:10490000EAFF402B000E4123EFCF21FCEF503EE0A9
:104910000C01235103083AE3300E215F225104E1D8
:104920002151090829E2000C030E225D07E1FE0E69
:10493000215D01E0000C14DB07E2000CFE0E215D9E
:1049400017E10EDB01E2000C0A0E1E03F3CF16F096
:10495000640E1F03F35016241D25E66E42CE14F09C
:1049600043CE15F02351232B16DB0C01226BC0D74D
:104970002151090801E2000C222B1FCC20FC1ECC87
:104980001FFC1DCC1EFC21CC1DFCB6D70C012151F7
:1049900013E02F0E215D10E00D0E215D0DE00A0EDB
:1049A000215D0AE0200E215D07E0090E215D04E093
:1049B0003A0E215D01E0000CD3DA01E2000C0A0E90
:1049C0001E03F3CF14F0640E1F03F35014241D25AF
:1049D000E66E42CEE9FF43CEEAFFE7D20C01056B5B
:1049E000066B006B016B026B036B0E0144CEF6FF8E
:1049F000442B45CEF7FF000E452346CEF8FF462355
:104A00000800F5CF04FCF5503EE00C010651030808
:104A10003AE3300E045F055104E10451090829E22C
:104A2000000C030E055D07E1FE0E045D01E0000CC5
:104A3000A1DA07E2000CFE0E045D17E19BDA01E249
:104A4000000C0A0E0103F3CF16F0640E0203F350BC
:104A500016240025E66E47CE14F048CE15F0065118
:104A6000062B99DA0C01056BBCD70451090801E249
:104A7000000C052B02CC03FC01CC02FC00CC01FC99
:104A800004CC00FCB2D70C01045110E02F0E045DE1
:104A90000DE00D0E045D0AE00A0E045D07E0200E35
:104AA000045D04E0090E045D01E0000C63DA01E23C
:104AB000000C0A0E0103F3CF14F0640E0203F3504E
:104AC00014240025E66E47CEE9FF48CEEAFF6DD2FA
:104AD0000C01226B0E0149514A1147E00C011D6B7C
:104AE000100E206F270E216F050E1D5D41E249CE8D
:104AF00008F04ACE09F020CC0DF021CC0EF0DEEC0F
:104B000046F008C01EFC09C01FFC0C01085009102B
:104B100002E122511AE0300E1E25E66E0E014DDA3A
:104B2000E552E750EF6E1ECC08F01FCC09F020CC08
:104B30000DF021CC0EF059EC44F006500E01495F07
:104B400007504A5B0C01010E226F0A0E0D6E0E6AB1
:104B500020CC08F021CC09F0DEEC46F008C020FCA7
:104B600009C021FC0C011D2BBFD727DA300EEF6ED8
:104B70004BCEE9FF4CCEEAFFEF6A12000E014E5118
:104B8000460802E2200E4E5F4D51460802E2200E1A
:104B90004D5F4E51390802E2370E01D0300E4E5FA4
:104BA0004D51390802E2370E01D0300E4D5F4E39BB
:104BB000F00B4D1112000E014F390F0B4F6FE850E3
:104BC000090804E2410E4F25F60F1200300E4F2562
:104BD00012000F0E0E0150175051090804E2410E49
:104BE0005025F60F1200300E5025120051CEE9FF6D
:104BF00052CEEAFFEFCF00FC53CEF6FF54CEF7FFC4
:104C000055CEF8FF0800F5CF01FC0C01005123E060
:104C1000015121E0610E005D05E300517A0802E3D5
:104C2000200E005F610E015D05E301517A0802E389
:104C3000200E015F0151D880005501E2010C0151A5
:104C4000005D01E2FF0C0E01512B000E5223532B8D
:104C500054235523CBD70151D880005501E2010CD4
:104C60000151005D01E2FF0C000C57CEF3FF56CE60
:104C7000F4FF12000E015B51581B58515B1B5B5136
:104C8000581B5A51591B59515A1B5A51591B58CE2E
:104C900006F059CE07F05ACE08F05BCE09F01200AC
:104CA0005ECE61FC5FCE62FC0C01D8906233613352
:104CB0005CCE63FC5DCE64FC656B666B676B686B9A
:104CC00061CC14F062CC15F06107000E625B1450E9
:104CD000151018E063CCE9FF64CCEAFF020E6327ED
:104CE000000E6423EECF14F0EFCF15F00001145046
:104CF0000C016527000115500C016623000E672387
:104D00006823DED70E015E51010B0EE063CCE9FF94
:104D100064CCEAFFEFCF14F0000114500C016527BA
:104D2000000E66236723682365CC14F066CC15F06B
:104D3000166A176A67CC18F068CC19F01A6A1B6AF1
:104D4000145018240C01656F15501920666F165009
:104D50001A20676F17501B20686F675165276851CD
:104D6000662365CC14F066CC15F0141E151E14C015
:104D7000F3FF15C0F4FF120064CE60FE65CE61FE45
:104D800066CE62FE67CE63FE68CE00FC080E0C01A4
:104D9000005D0EE363CE01FC62CE63FE61CE62FE77
:104DA00060CE61FE01CC60FE080E0C01005FEED704
:104DB0000C0100510BE00E01D89063BFD880603722
:104DC0006137623763370C010007F2D760CE06F017
:104DD00061CE07F062CE08F063CE09F000D0120079
:104DE0000F0ED2D8EF6A69CEE6FF6ACEE6FF61EC1D
:104DF0003FF0E552E5520C011D6B0F0E1D5D11E2F7
:104E00001D51C2D8EF500AE10F0E0C011D5D09E2E1
:104E10001D511D2BB9D8200EEF6EF6D70C011D2B9E
:104E2000ECD712000E016DCE14F06ECE15F06D07AA
:104E3000000E6E5B145015101AE06BCEE9FF6CCEBD
:104E4000EAFF6B2B000E6C23EFCF00FC0C0100512E
:104E50000EE00E016F510C01005DE4E10E016B07E5
:104E6000000E6C5B6BCEF3FF6CCEF4FF1200F36AA6
:104E7000F46A120070CEE9FF71CEEAFFEF6A0E010C
:104E8000705172250C01046F0E01715173210C01D8
:104E9000056F010E045F000E055B04CCE9FF05CC35
:104EA000EAFFEF6A066B076B740E006F0E0E016F60
:104EB0000E0174CE14F075CE15F07407000E755BFC
:104EC0001450151048E004CCE9FF05CCEAFFEF5080
:104ED00005E072CE06FC73CE07FC3DD00C01020E3D
:104EE000005F000E015B00CCE9FF01CCEAFFEECFD2
:104EF00002FCEDCF03FC06510E01725D146E73517E
:104F00000C010755156E14C0E6FFE66E02CCE6FFF5
:104F100003CCE6FF0E0170510C010625166E0E0142
:104F200071510C010721176E16C0E6FFE66E33ECD7
:104F30003FF0186E060EE15E185002CCE6FF03CC7F
:104F4000E6FF00EC3FF0E552E552F3500C01062776
:104F5000F4500723ADD706CCF3FF07CCF4FF1200C3
:104F6000D880050E1D55050E1E55020E1F55000E4C
:104F700020551200D880050E0055050E0155020E71
:104F80000255000E035512000E01EA6A6925E96E0A
:104F90006A51EA2212000F011424E96E000E152056
:104FA000EA6EE552E750EF6E1200030EE926000E9E
:104FB000EA22E552E750EF6E010C4BCEE9FF4CCEF2
:104FC000EAFF4B2B000E4C231200FC0E92160E0132
:104FD000FE8B0E01FDA1FDD700019B6B00019B81A3
:104FE0000001976B986B0E01E86BE96B0E01CD0E1B
:104FF000EC6F0E010A0EED6F0E01CD0EEA6F0A0E78
:10500000EB6F0E01CE0EE46F0A0EE56F0E01CE0EB1
:10501000E26F0A0EE36F0001BD6B3DDB0E010D0E6A
:10502000A06F00000E01320EA26F00000E01120EE2
:10503000A46F00000E01400EA36F00000E01120EBF
:10504000A66F00000E010C0EA76F00000E01EE0E01
:10505000AA6F00000E01050EAB6F000040C884FE71
:10506000000041C885FE000042C882FE000043C81F
:1050700083FE000044C880FE000045C881FE000099
:105080000001100EC96F010ECA6F0001100EC86F2B
:1050900056DB0001720EC96F340ECA6F0001140E88
:1050A000C86F4DDB0001C96BCA6B0001C86B47DBE1
:1050B000D28412000001010EC76F29DBF350040BEC
:1050C00001E0010E1200D2A6010C04EC44F0000134
:1050D0009C51065C146E9D510758156E166A176A2E
:1050E0007A0E81DB02E3D29622D9000C00019BB13B
:1050F00012009B8197C021FC98C022FC0C01010E7C
:10510000215F000E225B21CC14F022CC15F0166A30
:10511000176A69DB06E321CC18F022CC19F043DBD7
:1051200004E2CD0E216F0A0E226F0E01FE8D21CCFE
:10513000ECFE22CCEDFE1200D9CE4DFCEECE4FFCA3
:10514000EFCE50FC0C014D510E01D95DF5E1ECCED6
:105150004DFCEDCE4EFC0C014F514D5D50514E5962
:1051600011E2CD0E186E0A0E196E4D514F5D1C6E78
:1051700050514E551D6E1C50185C146E1D50195820
:10518000156E14D04D514F1908E14E51501905E1DB
:10519000CD0EF36E0A0EF46E12004F514D5D146E7B
:1051A0004E515055156E1406000E155A14C0F3FFDB
:1051B00015C0F4FF12000E01D95102E1000E87D094
:1051C00000019B8300019BB103D090DF000E7FD0D4
:1051D00097C099F098C09AF099C07AFF9AC07BFF67
:1051E000140E0001BB6FBC6B0001000EB96F0C0EFA
:1051F000BA6F32DA12CC56FE13CC57FE35EC26F0DD
:10520000F3CF12FCF4CF13FC00CC14F001CC15F05A
:10521000166A176AD880CD0E14540A0E1554000E63
:105220001654000E17541BE30C010C010051010B26
:1052300016E10C010C010551800B11E10C010C0170
:105240000451100B0CE10C01EE0ED8800255050E36
:10525000035505E30C010C010451800B01E1FF0033
:1052600000CC97F001CC98F0060EE66EE66A0C0EC4
:10527000E66E0C0EE66E9EC0E9FF9FC0EAFFE9CF26
:1052800014F0EACF15F014C0E6FF15C0E6FF98EC65
:105290003EF0166E060EE15E1650A0C0E9FFA1C0FA
:1052A000EAFFEF68080E0C01135D0DE10C011251CD
:1052B00004E0060E0C01125D06E1A0C0E9FFA1C0EA
:1052C000EAFF12CCEFFF00019B91010E00D012000B
:1052D0000E01CF0EE26F0A0EE36FDC0E0001A52770
:1052E0000A0EA623A5C0E6FEA6C0E7FE060E000134
:1052F000C06FC16BA2C0BEF0A3C0BFF0D1D9060E73
:105300000001C06FC16B0001400EBE6F080EBF6F81
:10531000C7D90001080EBD6FBED90001A45102E13A
:10532000000E01D0060E0001BD6F4BEF2BF0D28EA8
:10533000D29E0C01080E516F515151070009FCE13A
:105340006092D28604EC44F006C09CF007C09DF049
:10535000120040DAA7250C01216F15500001A82189
:105360000C01226F21CC14F0156E11DA04E2CE0E7E
:10537000215F0A0E225B21CC7AFF22CC7BFF120038
:10538000E2CE4DFCE3CE4EFCA9C0E2FEAAC0E3FE95
:105390004DCCF3FF4ECCF4FF12007ACF4DFC7BCF07
:1053A0004EFCABC07AFFACC07BFF4DCCF3FF4ECCC4
:1053B000F4FF12000FDAAD250C01166F1550000135
:1053C000AE210C01176F16CC14F0156EE0D904E273
:1053D000CE0E165F0A0E175B7ACF18FC7BCF19FC36
:1053E00016CC7AFF17CC7BFFAFC0B1F0B0C0B2F0E3
:1053F00007D8F3CF16FC18CC7AFF19CC7BFF12002C
:105400000C014F6B506B516B526B7ACF4DFC7BCFC5
:105410004EFC0001B151B21151E0140ED880B155CB
:10542000000EB25505E20C01140E536F546B04D0FC
:10543000B1C053FCB2C054FC53CCBBF054CCBCF054
:105440000001550EB96F0C0EBA6F06D90C015351FD
:105450000001B15F0C0154510001B25B0C0153A17A
:105460000AD0550E5325E96E0C0E5421EA6EEF6AF0
:10547000532B000E5423550E696F0C0E6A6F535157
:105480005411C7E069CCE9FF6ACCEAFF020E692734
:10549000000E6A23EECF14F0EFCF15F00001145088
:1054A0000C014F27000115500C015023000E512311
:1054B0005223020E535F000E545BE1D74DCC7AFFAE
:1054C0004ECC7BFF4FCC14F050CC15F0166A176A07
:1054D00051CC18F052CC19F01A6A1B6A14501824D7
:1054E0000C014F6F15501920506F16501A20516F34
:1054F00017501B20526F51514F27525150234FCC00
:1055000014F050CC15F0141E151E14C0F3FF15C076
:10551000F4FF12000C01516B526B0001B31D09E145
:10552000B41D07E10C01010E516FE2CEB3F0E3CEE2
:10553000B4F00001B51D09E1B61D07E10C01010E33
:10554000526F7ACFB5F07BCFB6F00001010ED88054
:10555000B755000EB8552EE37ACF4DFC7BCF4EFCED
:10556000E2CE4FFCE3CE50FCB5C07AFFB6C07BFF65
:10557000B3C0E2FEB4C0E3FE0001B7C014F0B8C08F
:1055800015F0B707000EB85B1450151005E062D88F
:105590000001BD6F80D8F0D70C01525104E14DCC11
:1055A0007AFF4ECC7BFF51514EE14FCCE2FE50CC06
:1055B000E3FE12000C0151510DE00001B351B7257B
:1055C0000C014F6F0001B451B8210C014FCCE2FE29
:1055D000E8CFE3FE10D91406000E155A145000014E
:1055E000B7271550B823D2BAFED7B5C0F0FEB6C063
:1055F000F1FEB3C0F4FEB4C0F5FEFDD8C8D807E391
:10560000FFD805E2CE0E0001B75F0A0EB85BB7C047
:10561000F2FEB8C0F3FED298D28AD2BAFED70C01FD
:10562000525111E00001B72B000EB823E4D8AFD8D7
:1056300006E3E6D804E2CE0EB75F0A0EB85BB7C049
:105640007AFFB8C07BFF1200D250200B200A01E085
:10565000010E120061501200BBC093FCBCC094FC50
:105660000001B951BA110DE0AAD810E00001B9C08B
:10567000E9FFBAC0EAFFB92B000EBA2361CFEFFFF2
:10568000F3D79DD803E061CF95FCFBD7BBC0F3FFF8
:10569000BCC0F4FF1200BDC0F3FFF3CF61FF1200E6
:1056A0000001C0C014F0C1C015F0C007000EC15BFE
:1056B000145015100DE00001BEC0E9FFBFC0EAFFA5
:1056C000BE2B000EBF23EF50F36EF3CF61FFE8D780
:1056D00012000001C5C014F0C6C015F0C507000EC9
:1056E000C65B1450151012E00001C2C0F6FFC22BB9
:1056F000C3C0F7FF000EC323C4C0F8FF000EC423CD
:105700000800F550F36EF3CF61FFE3D71200C7C076
:10571000B4FE00000E01010EB26F00000E018AB14E
:10572000FDD70E01B26B0000B8CE00FC0000B9CE70
:1057300001FC00CCF3FF01CCF4FF00D01200C8C084
:10574000B4FEC9C0F3FFCAC0F4FFC00EF2140C01CE
:10575000006F3F0EF216F3CFB6FE0000F4CFB7FE97
:105760000C010051F2120E018AB1FDD71200D29441
:105770000E01FDB5FDD7D2B6FED70E01FE9B12007D
:105780000E01FE8BFDB102D0D284FCD71200166A46
:10579000176AD880CD0E14540A0E1554000E1654F4
:1057A000000E175412001A6A1B6AD880CD0E1854C6
:1057B0000A0E1954000E1A54000E1B5412000C014C
:1057C00093CC14F094CC15F09307000E945B145016
:1057D00015101200140E0001156A9925146E9A51C5
:1057E000152214501200145C000E1558000E1658A5
:1057F000000E17581200B5C014F0B6C015F0120014
:10580000B7C018F0B8C019F0D3EF2BF00001FEB10B
:10581000000CFE81010CFF0E0001FD5D01E01BDBB1
:10582000070EFF6FFE91FE51020B01E0010E120008
:105830000E01D10E426F000E436FDBC040FEDCC094
:1058400041FE75EC24F0000905E00001FE83070E1F
:10585000FF6F1200DBC0CBF0DCC0CCF00001CD6BE1
:10586000CE6BCF6B0001FF6BDDC0D0F0FE9312005A
:105870000E01D10E476F000E486FDEC044FEDFC040
:1058800045FEE0C046FEEEEC24F0000905E0000114
:10589000FE83070EFF6F12000001CB6BCC6BDEC0E6
:1058A000CDF0DFC0CEF0E0C0CFF00001FF6BE1C073
:1058B000D0F0FE9312000001FF51060A01E170D101
:1058C000010A01E159D1020A01E18ED0010A58E032
:1058D000070A3BE0010A14E0030A06E0010A01E0BE
:1058E00086D10001EA6BEB6B03011C0EEE6F080E14
:1058F000EF6F1DEC33F00001EA2B98DA020E18D09E
:105900000301D50EF26F000EF36F03011C0EF06F52
:10591000080EF16F4AEC33F000090CE159DA01E3AB
:1059200066D1030EEA5D02E3060E01D0010E00010E
:10593000FF6F000C1CC8D1F01DC8D2F01EC8D3F0F8
:105940001FC8D4F00001030EFF6F350E0201C96FAE
:10595000CA6B0201C76BC86B0201040EC66F02015D
:10596000D10EC26F000EC36FC46BC56B78EC00F034
:105970000001FD6FFF0EFD5D01E139D1040EFF6FE7
:10598000FDC0D3F27AEC02F08ADA01E130D10001F5
:10599000E82B000EE923E9C0D4F29EEC02F0E8C047
:1059A000D4F29EEC02F085DA84DA89DA88DA000132
:1059B000CB51CC1106E0CBC0ECF0CCC0EDF018D947
:1059C00007D0CDC0EEF0CEC0EFF0CFC0F0F05DD983
:1059D00018DAD0C0D4F29EEC02F013DA55DA4AECB1
:1059E00003F024DA050E02D1FDC0E3F202EC04F06C
:1059F00056DA06E1EDD901E3FAD00001060EF6D041
:105A000002016F0EE46F0C0E51DA6E0EE46F0C0E95
:105A100053DA0001E8510C016E1904E10001E9516B
:105A20000C016F1903E06DEC04F0000C0201710E23
:105A3000E46F0C0E3BDA700EE46F0C0E37DA730E67
:105A4000E46F0C0E33DA720EE46F0C0E2FDA750E63
:105A5000E46F0C0E2BDA740EE46F0C0E27DA770E5F
:105A6000E46F0C0E23DA760EE46F0C0E1FDA790E5B
:105A7000E46F0C0E1BDA780EE46F0C0E1DDA0C01CD
:105A800072CC14F073CC15F07207000E735B1450D7
:105A9000151005E057D9D6D90FDAD4D9EFD774CC81
:105AA00014F075CC15F07407000E755B14501510CA
:105AB00012E060D90CE17B510AE1010E7C1907E18B
:105AC0007D5105E1040E821902E1835138E09DD930
:105AD000E6E0A6D9FCD776CC14F077CC15F07607A3
