:020000040000FA
:10000000EDEFADF01200FFFFC6EF7BF01200FFFF37
:10001000FFFFFFFFFFFFFFFFA0EF7BF01200FFFFDE
:10002000FFFFFFFFFFFFFFFFFFFF1E006E5D0100F0
:10003000330B0000010000006D5D0100320B000079
:10004000010000006B5D0100250B000002000000B4
:10005000FD5C0100000500006E000000FC5C01007A
:10006000310B000001000000F35C0100570F00009D
:1000700009000000D95C0100E30800001A0000003C
:10008000D85C0100300B000001000000D75C0100CB
:100090002F0B000001000000CF5C0100E809000008
:1000A00008000000CC5C0100140B000003000000FD
:1000B000B95C0100E806000013000000B85C010014
:1000C0002E0B000001000000B45C0100100B0000CA
:1000D00004000000B35C01002D0B000001000000D3
:1000E000B15C0100230B000002000000A75C0100CE
:1000F000DE0900000A000000A65C01002C0B0000D5
:1001000001000000A55C01002B0B000001000000B5
:10011000615B01002A0B000001000000A25C0100ED
:10012000FD080000030000005A5C01000007000009
:1001300048000000505C0100D40900000A000000E3
:100140004E5C0100210B0000020000004C5C01002D
:100150001F0B0000020000004A5C01001D0B0000A4
:1001600002000000375C0100290B000001000000C4
:10017000465C01000C0B0000040000003C5C010028
:10018000CA0900000A0000003A5C01001B0B0000D5
:1001900002000000030145510B011F5D01E1120047
:1001A000FE0E1F5D0CE01C0EE66EE66A290EE66E82
:1001B000030EE66E1F510EEC19F08DEC19F045C3DD
:1001C0001FFBFE0E0301455D01E112001C0EE66EF1
:1001D000E66A45510EEC19F0290EE66E030EE66E46
:1001E0008DEF19F00B011F51205D01E11200FE0E91
:1001F000205D21E0270E0301C56FC66B0301010ED0
:10020000C46F0301020EC26F030EC36F0B0177ECC4
:1002100019F01B0EFAEC1AF0EFCFC1F377EC19F0DE
:10022000EECFBFF3EFCFC0F30301270EBF5F000E89
:10023000C05B75EC16F01FCB20FB270E71EC19F09C
:1002400029C3C2F32AC3C3F30301C25F000EC35B19
:10025000B2EC1AF0020EBF6F030EC06F75EF16F00E
:100260000C01C20E1D6F0F0E1E6F03010051011114
:100270000FE1EAEC62F026C000F327C001F3FF0EA5
:1002800003010017070E0117000E0027040E0123BB
:100290003C0EE66EE66AE66A000EE66E080EE66E54
:1002A000B7EC90F0006E050EE15E00500C01156B8E
:1002B000146B145137EC17F001E38ED014CC45F3D6
:1002C00069DF8EEC17F0C7EC17F0F62A000EF72264
:1002D000F8220800F5CF1CFC8EEC17F0C7EC17F0E5
:1002E000020EF626000EF722F8220900F5CF16FCC2
:1002F0000A00F5CF17FC8EEC17F07CEC1BF0040E17
:10030000F626000EF722F8220900F5CF18FC0A00A5
:10031000F5CF19FC0C011C5128E11DCC1AFC1ECC98
:100320001BFC270E036A1625026E17510322B5EC3B
:100330001AF002501825006E0350192122EC1BF010
:1003400000501D2701501E231DCC00F01ECC01F0D3
:10035000026A036AD880FE0E00541E0E0154000E7D
:100360000254000E035402E2EFD7FFD71CCC44F333
:10037000270E0C011A250301296F000E0C011B2109
:1003800003012A6F29510C01162503012B6F2A51F5
:100390000C01172103012C6F010E2B27000E2C23BB
:1003A0002B510C01182503012D6F2C510C01192123
:1003B00003012E6F0D0E3F6F409714DF8EEC17F088
:1003C00024C003F07CEC1BF00800F5CF28F305EC0B
:1003D00010F00C01142B6DD712000C013B6B3B513C
:1003E00037EC17F001E390D03BCC45F3D3DE0D0E94
:1003F00003013F5D01E085D0F5DE03014D51285D2D
:1004000001E07FD0180E256F020E266F4A510CE1D5
:100410004BC312F34CC313F34087040E3F6F4BC31F
:1004200042F34CC343F36AD0000E005D040E015941
:1004300006E3880ED8800055130E015503E2006BC9
:10044000040E016F00C312F301C313F3002B000E5F
:1004500001234BC310F34CC311F3FEEC1AF003015C
:1004600040894A51040A25E0070A11E0020A02E025
:10047000030A44E1C2EC19F0020E4A5D02E0000EEC
:1004800001D0010E2495E8B024853F6B37D0485148
:100490004625026E4951472119EC19F0C2EC19F0BA
:1004A000276B270E026F036B046B056B020E3F6F09
:1004B00025D046C3E9FF47C3EAFFCBEC19F046C39A
:1004C000E9FF47C3EAFF0450EE24026E0550EE2018
:1004D00019EC19F00A0EE66EE66A46C3E6FF47C35A
:1004E000E6FF38EC1AF004EC19F00301050E3F6F3B
:1004F00035EC1BF0020EAD6F3DEC0CF00C013B51E6
:1005000012000C013B2B6BD7FE0C03014E5137EC54
:1005100017F001E3010C4EC345F33CDE030141A992
:1005200002D04199010C000C03014F5137EC17F038
:1005300001E3000C4FC345F32DDE070E03013F5DC1
:1005400001E0000C010C0301505137EC17F001E3FE
:10055000120050C345F365EC1AF003013F51080A3D
:1005600038E0010A36E0050A34E0020A2FE0050A05
:100570001FE00D0A0FE0010A0DE0070A31E0020A50
:100580002FE0010A2DE0060A2BE0040A22E141ECEB
:1005900075F026D000EC19F003011451151106E096
:1005A0000E512F19F7E10F513019F4E1080E0FD059
:1005B00000EC19F003011451151106E00E512F192A
:1005C000F7E10F513019F4E10C0E01D00D0E3F6F21
:1005D00012000301AE6B0301140EAD6F3DEC0CF085
:1005E00005EF10F00301515137EC17F001E3120051
:1005F00051C345F3CFDD0301409751C350F3A3EF3F
:1006000002F00301525137EC17F003E3F36AF46A86
:10061000120052C345F3BAEC1AF00A0EE66EE66A0F
:1006200038EC1AF0530EE66E030EE66E04EC19F089
:1006300010C35DF311C35EF3530E006E030E07EF9C
:1006400018F003015F5137EC17F001E312005FC3AC
:1006500045F3BAEC1AF003010E512F1902E10F51C4
:10066000301902E0C0EC17F012000301605137ECC2
:1006700017F00CE260C345F38DDD3FC382FC070E2B
:100680000C01825D06E00B0E825D03E0F36AF46A02
:100690001200030131512F5D3251305916E32951B7
:1006A0002B5D026E2C512A55036E0206000E035A72
:1006B00031512F5D046E30513255056E0450025C8D
:1006C000006E0550035807EF18F02F51315D006E92
:1006D00032513055016E0006000E015A00C0F3FF82
:1006E00001C0F4FF12000301615137EC17F001E380
:1006F000000C61C345F34EDD61C360F3B6DFF3CF99
:100700000FFCF4CF10FC0C01F350F41001E1000CCD
:10071000010E0F1904E1105102E1BEEC1AF00301C1
:100720004151010B0CE16EEC1BF00C010F51005C10
:100730001051015804E3BEEC1AF003014181010E8F
:100740000301C56FC66B0301C46F0301620EC26F64
:10075000030EC36F4CEC1BF003012F2B000E302354
:100760002B512F5D2C51305902E3A5EC19F00C01EF
:10077000010E0F1905E1105103E1BEEC1AF0010C56
:10078000030140BB02D0C4EC17F0010C0C01E56B77
:10079000E66B0301635137EC17F010E263C345F3D6
:1007A000F9DC63C360F361DFF3CFE3FCF4CFE4FC77
:1007B0000C01F350F41005E1C2EC1AF0F36AF46A8C
:1007C0001200E3CCE1FCE4CCE2FC47EC1AF004E2DA
:1007D00066C3E1FC67C3E2FC4151010B0CE16EEC26
:1007E0001BF00C01E351005CE451015804E3C2EC3E
:1007F0001AF00301418103012F510C01E125006E24
:10080000030130510C01E2216CEC1AF01EE32F5170
:100810002B5D0C01E56F030130512C590C01E66F83
:10082000E5CCC5F3E8CFC6F381EC18F00C01E55137
:10083000030164270C01E651030165230C01E55116
:10084000E15FE651E25BA5EC19F0E1CCC5F3E2CC47
:10085000C6F381EC18F00C01E15103012F270C01C4
:10086000E251030130230C0147EC1AF003E3C2EC20
:100870001AF004D040BB02D0C4EC17F00C01E151D7
:10088000E525006EE251E62107EF18F00C012E6B12
:100890002F6B0301685137EC17F010E268C345F382
:1008A00079DC68C360F3E1DEF3CF2CFCF4CF2DFCE0
:1008B0000C01F350F41005E1C6EC1AF0F36AF46A87
:1008C000120003014151010B0CE16EEC1BF00C0115
:1008D0002C51005C2D51015804E3C6EC1AF00301C1
:1008E00041812CCC2AFC2DCC2BFCD2EC19F004E25B
:1008F0006CC32AFC6DC32BFC2F510C012A25006E02
:10090000030130510C012B216CEC1AF022E32F5122
:100910002B5D0C012E6F030130512C590C012F6FF0
:100920002ECCCDF3E8CFCEF3C7EC18F02ECC00F0F0
:100930002FCC01F0026A00500301692701506A239D
:1009400002506B230C012E512A5F2F512B5BA5EC1B
:1009500019F02ACCCDF32BCCCEF3C7EC18F00C0158
:100960002A5103012F270C012B5103013023D2EC14
:1009700019F003E3C6EC1AF004D040BB02D0C4EC7B
:1009800017F00C012A512E25006E2B512F2107EF55
:1009900018F06FC3E6FF70C3E6FF5FEC91F0E5521D
:1009A000E552F3CF66F3F4CF67F36FC364F370C31C
:1009B00065F36EC363F3EADE03016F51F324006E47
:1009C0007051F42007EF18F072C3E6FF73C3E6FF1F
:1009D00074C3E6FF6DEC91F0E552E552E55227C095
:1009E0006CF328C06DF372C369F373C36AF374C305
:1009F0006BF371C368F34ADF056A03017251F32494
:100A0000006E7351F420016E74510520026E00C017
:100A100027F001C028F0296E12000301755137EC50
:100A200017F003E3F36AF46A120075C345F3CAECE6
:100A300000F0030129512B5D0C01026F03012A51C3
:100A40002C590C01036F010E025F000E035B75C38E
:100A500060F30BDE0C01F350025D006E0351F454A1
:100A600007EF18F076C377F30CD8A3EC1BF0F35024
:100A7000F41006E076C345F365EC1AF0C0EC17F00D
:100A800012000301775137EC17F003E3F36AF46ABD
:100A9000120077C345F3CAEC00F026EC1AF006E327
:100AA0003551335D006E3451365513D035512D5DBF
:100AB000026E2E513655036EB5EC1AF02B51335D94
:100AC000046E34512C55056E02500424006E035000
:100AD000052007EF18F078C377F3D3DFF3CF39FCA5
:100AE000F4CF3AFC0C01F350F41001E1000C78C390
:100AF00045F3CAEC00F0030179517A110FE0010EC1
:100B000071EC19F035C3C2F336C3C3F30301C16FEF
:100B100079C3BFF37AC3C0F375EC16F00301352B2C
:100B2000000E362335512D5D36512E5902E2CAECA6
:100B30001AF00C01010E391905E13A5103E10301E4
:100B40004185010C030140BB02D021EC18F0010CDF
:100B50000C015F6B606B7BC377F393DFF3CF5DFCBE
:100B6000F4CF5EFC0C01F350F41003E1F36AF46A75
:100B700012007BC345F3CAEC00F003017E510C0167
:100B80005D5D03017F510C015E5904E25DCC7EF393
:100B90005ECC7FF3030135517E25006E36517F21F7
:100BA0002CEC1AF029E235512D5D0C015F6F030129
:100BB00036512E590C01606F010E5F27000E602325
:100BC00003017C517D110EE05FCCC5F360CCC6F310
:100BD0008AEC18F00C015F5103017C270C01605175
:100BE00003017D230C015F5103017E5F0C01605105
:100BF00003017F5BCAEC1AF07C517D1106E07EC3D5
:100C0000C5F37FC3C6F38AEC18F003017E51352784
:100C10007F5136230C015F5103017E270C01605187
:100C200003017F237E510C015D5D006E5E51030167
:100C30007F55016E00507E5D01507F5902E3418572
:100C400004D040BB02D021EC18F07EC3F3FF7FC379
:100C5000F4FF12000301805137EC17F003E3F36A4D
:100C6000F46A120080C345F3CAEC00F003012B5173
:100C70002D5D0C013B6F03012C512E590C013C6F73
:100C800080C377F3FEDE0C01F3503B5D006E3C51F8
:100C9000F45407EF18F00301815137EC17F003E229
:100CA0008451851103E1F36AF46A120081C345F3AC
:100CB000CAEC00F081C377F3E4DEF3CF02FCF4CF9B
:100CC00003FC030186518425006E87518521016E46
:100CD0000C010050F35C0150F4580BE20301865103
:100CE0000C01025D0301846F87510C01035903015C
:100CF000856F0301355186250C01006F03013651C4
:100D000087210C01016F005103012D5D0C01015180
:100D100003012E5906E2B8EC17F00C01005F0150F8
:100D2000015B0C01005103012D5D0C01046F0151A9
:100D300003012E590C01056F010E0427000E052337
:100D4000030184510C01045D030185510C01055917
:100D500007E384C3C5F385C3C6F320EC19F022D0A2
:100D600004CCC5F305CCC6F320EC19F075EC16F0F5
:100D70000C0104510301845D0301C56F0C01055191
:100D800003018559DBEC19F0C0EC1BF00301825123
:100D90000C0104250301BF6F030183510C010521E0
:100DA0000301C06F75EC16F084C3F3FF85C3F4FF35
:100DB000120089C386F38AC387F3010E0301846F8F
:100DC000856B0301060E826F0C0E836F88C381F35F
:100DD00062DF0C010651120003018B5137EC17F052
:100DE00003E28E518F1103E1F36AF46A12008BC3A0
:100DF00045F3CAEC00F08BC377F343DE0301905157
:100E0000F35C0C013B6F03019151F4580C013C6FF2
:100E1000E4EC19F001E205D10301925193110DE0C8
:100E20000C013B510301925D0C013C5103019359AC
:100E300004E292C33BFC93C33CFC355190250C016A
:100E40003F6F0301365191210C01406F3F51030167
:100E50002D5D0C01405103012E5906E2B8EC17F04C
:100E60000C013F5F0150405B3FCC39FC40CC3AFC69
:100E70000C013F5103012D5D0C013D6F40510301F9
:100E80002E590C013E6F010E3D27000E3E2390C3EC
:100E90003FFC91C340FC8EC341FC8FC342FC8CC31A
:100EA00043FC8DC344FC03018CC3E9FF8DC3EAFFFF
:100EB0008C2B8D23EFCF46FC0C01486B0301945122
:100EC00009E0610E0C01465D05E346517A0802E334
:100ED000E00E46270C01200E476FE8503D5D000EE6
:100EE0003E5902E23DCC47FC47513B5D000E3C5968
:100EF00002E23BCC47FC475171EC19F039CCC2F30C
:100F00003ACCC3F3B2EC1AF0490EBF6F0C0EC06FAF
:100F100075EC16F00C014751BEEC19F03927015061
:100F20003A234751BEEC19F03D5F01503E5B3D5105
:100F30003E1106E12BC339FC2CC33AFC3D693E69E6
:100F4000030194513EE00C01456B4751455D5FE262
:100F500057EC18F0EFCF00F0610E005C0BE357EC9C
:100F600018F0EF507A0806E3E00E006E57EC18F028
:100F70000050EF2657EC18F0EF50465D0EE173EC91
:100F80001AF02CE02CEC19F0610E465D18E3465186
:100F90007A0815E3E00E462712D041CC8EF342CCFE
:100FA0008FF348510CE0D5EC18F0610E0C01465D52
:100FB00005E346517A0802E3E00E4627486B452BCD
:100FC000C4D70C01456B4751455D21E257EC18F041
:100FD000EF50465D10E173EC1AF00AE10C0141514B
:100FE0003F5D026E40514255036E455197EF18F038
:100FF0002CEC19F00AD041CC8EF342CC8FF348513F
:1010000004E0D5EC18F00C01486B452BDCD70C0143
:101010004751BEEC19F03B5F01503C5BE4EC19F02A
:1010200003E2F368F46812004751BEEC19F03F2761
:10103000015040234FD70301955137EC17F003E2DD
:1010400099519A1103E1F36AF46A120095C345F3CA
:10105000CAEC00F095C377F314DD03019B51F35CF8
:101060000C01026F03019C51F4580C01036FEDEC6D
:1010700019F001E205D103019D519E110DE00C0113
:10108000025103019D5D0C01035103019E5904E2CD
:101090009DC302FC9EC303FC35519B250C01066FCA
:1010A000030136519C210C01076F065103012D5D90
:1010B0000C01075103012E5906E2B8EC17F00C01A0
:1010C000065F0150075B06CC00FC07CC01FC0C015D
:1010D000065103012D5D0C01046F075103012E59C8
:1010E0000C01056F010E0427000E05239BC306FCAF
:1010F0009CC307FC99C308FC9AC309FC96C30AFC6D
:1011000097C30BFC98C30CFC030196C3F6FF962B08
:1011100097C3F7FF54EC1BF0106B03019F5109E0DC
:10112000610E0C010E5D05E30E517A0802E3E00E3C
:101130000E270C01200E0F6FE850045D000E0559BC
:1011400002E204CC0FFC0F51025D000E035902E2D3
:1011500002CC0FFC0F5171EC19F000CCC2F301CCA2
:10116000C3F3B2EC1AF0110EBF6F0C0EC06F75EC2A
:1011700016F00C010F51BEEC19F0002701500123AD
:101180000F51BEEC19F0045F0150055B04510511CD
:1011900006E12BC300FC2CC301FC046905690301B3
:1011A0009F513EE00C010D6B0F510D5D5FE25EEC57
:1011B00018F0EFCF00F0610E005C0BE35EEC18F06E
:1011C000EF507A0806E3E00E006E5EEC18F0005077
:1011D000EF265EEC18F0EF500E5D0EE17AEC1AF09F
:1011E0002CE06AEC18F0610E0E5D18E30E517A08DF
:1011F00015E3E00E0E2712D008CC99F309CC9AF330
:1012000010510CE00CEC18F0610E0C010E5D05E3C2
:101210000E517A0802E3E00E0E27106B0D2BC4D797
:101220000C010D6B0F510D5D21E25EEC18F0EF50DB
:101230000E5D10E17AEC1AF00AE10C010851065D2E
:10124000026E07510955036E0D5197EF18F06AECC5
:1012500018F00AD008CC99F309CC9AF3105104E0A5
:101260000CEC18F00C01106B0D2BDCD70C010F519E
:10127000BEEC19F0025F0150035BEDEC19F003E2E4
:10128000F368F46812000F51BEEC19F00627015004
:1012900007234FD7A6C394F3A4C392F3A5C393F334
:1012A000A2C390F3A3C391F3010E03018E6F8F6B62
:1012B0000301A10E8C6F030E8D6FA0C38BF3ECEFB7
:1012C00006F00C01006B005137EC17F001E309D276
:1012D00000CC45F3CAEC00F00C01036B016B026B10
:1012E00003014151020B03E14151040B0EE099EC63
:1012F00071F000090AE00C01100E036F0301415167
:10130000040B01E0010E0C01016F030140AB11D091
:101310004CECABF0030126503B5D006E27503C596E
:10132000016EE83402E2CFEC1AF003E30C01100E78
:10133000036F030140AD09D082EC19F002E2CFEC5B
:101340001AF003E30C01100E036F0B0E03013F5D57
:101350000CE182EC19F002E2CFEC1AF006E30C018A
:10136000110E036F03010C0E3F6F040E3F5D53E13E
:101370000C01046B056B030E045D000E05594BE276
:10138000F4EC1AF0A8EC1BF046E0F4EC1AF00BECCD
:1013900019F07CEC18F003014251001837E1435179
:1013A000011834E1F2EC00F00A0EE66EE66AF4ECA5
:1013B0001AF0F6EC19F038EC1AF069EC90F0060E21
:1013C000E15EF4EC1AF0D4EC1AF0EECF10F3EDCFAE
:1013D00011F3F4EC1AF00C0EFAEC1AF0EECF0AF35B
:1013E000EECF0BF3EECF0CF3EFCF0DF303010A2B8F
:1013F0000B230C230D2338EC18F00C01120E036F95
:101400000301060E3F6F3EEC17F005D00C01042BD4
:10141000000E0523B0D70C0103510AE0015102E090
:10142000000E01D0010E0301AE6F03CCADF325DA3F
:10143000030140B92FD0070E3F5D01E04FD144ECCE
:1014400018F001E04BD103014051070B060816E1EB
:101450004051080B01E0010E0C01036F00CC50F36A
:10146000A3EC02F000CC50F3A3EC02F00C0103510A
:1014700001E034D103010E0E3F6F30D1F2EC00F0E9
:101480000301020EAE6F0301100E49EC1BF083EC5A
:1014900017F024D144EC18F001E020D1F2EC00F078
:1014A00003013F510C0A01E1CDD0060A01E1C4D08D
:1014B000030A01E1D0D0010A01E1BAD00F0A01E12B
:1014C000AED00C0A01E1ABD00D0A01E19DD0030AB8
:1014D00001E187D0060A5AE0010A48E0030A21E048
:1014E000010A01E0BDD03CEC75F0000901E1B8D083
:1014F0000301010E3F6F24A50BD00701E76F18C34E
:10150000E4F719C3E5F71AC3E6F76EEC75F0A8D057
:101510000701E36F18C3E1F719C3E2F74EEC75F06A
:101520009FD00701060EE86F0C0EE96F91EC75F085
:10153000000901E195D041EC75F0000913E006CCFB
:1015400018F307CC19F308CC1AF309CC1BF30301E9
:10155000020E3F6F38EC18F0276B270E026F036BFB
:10156000046B50D083EC17F03F6B7AD04CECABF0AF
:1015700026C03BF327C03CF30501180EF76F030E9E
:10158000F86F6BEC8FF00301030E29D005011C0EE0
:10159000FB6F030EFC6F0501180EF96F030EFA6F57
:1015A00098EC8FF0000915E14CECABF003013B51D6
:1015B000265C006E3C512758016E0050025D0150C0
:1015C00003594EE2060E275D02E281EC1AF0020E8C
:1015D00006D00C01020E036F016B0301050E3F6F75
:1015E0003FD00C01020E036F010E016F040E0301C8
:1015F000275D36E3040E276F200E026FEF0E036F98
:10160000090E046F056B2CD0020E275D03E20C015E
:10161000120E1DD040B71FD00C01020E07D0050ED0
:10162000275D0DE3080E3F6F0C01110E036F18D0FC
:10163000050E275D10E209D0050E275D0CE20C01B6
:10164000100E05D0050E275D06E20C01110E036F8A
:10165000010E016F05D00C01140E036F010E026F15
:101660000C01035136E001512EE0030181EC1AF028
:1016700031510E5D0C01046F030132510F590C0101
:10168000056F03013DEC1AF007E2ADEC17F00050D6
:101690000C0104270150052304CC00F005CC01F017
:1016A000026A036A005003014DEC19F00C01045169
:1016B000030114270C01055103011523D7EC1AF07F
:1016C0000301AE6B03D00301010EAE6F03CCADF38B
:1016D000D4D80C01025102E005EC10F00C01002BF3
:1016E000F2D5046B056B030E045D000E05592FE265
:1016F000F4EC1AF0A8EC1BF001E11200F4EC1AF083
:10170000DCEC1AF055EC19F002C0E6FF03C0E6FF6E
:101710004CECABF0E552E7CF03F0E552E7CF02F037
:101720000250265C006E03502758016EDC0ED880F4
:101730000054010E015406E23EEC17F00C010407C0
:10174000000E055B0C01042B000E0523CCD7120004
:10175000A7C3E9FFA8C3EAFFEECF14FCEECF15FC48
:10176000EECF16FCEFCF17FCA9C3E9FFAAC3EAFF2F
:10177000EECF18FCEECF19FCEECF1AFCEFCF1BFC1E
:101780000C011C6B060E1D6FABC31EFCACC31FFC13
:10179000ABC3C8F6ACC3C9F659EC66F0F3CF1EFC78
:1017A000F4CF1FFC0C0E0601D06FD16B0601140E96
:1017B000CE6F0C0ECF6F74EC66F0F3CF20FCF4CF3D
:1017C00021FC0C01201F211FABC3C9F8ACC3CAF810
:1017D00036EC73F0F3CF22FCF4CF23FC0C01F35072
:1017E000201948E12351211945E10901866B876BD6
:1017F000CAEC9FF0140E0801D36FD46B0801000EE1
:10180000D16F0C0ED26F62EC74F00301000EB36F57
:101810000C0EB46FB9DB0C010C5173EC1BF0040D12
:10182000F35088EC1AF000C024FC0050006E016AEE
:10183000E8500301AB5DAB6F0150AC59AC6F140EB7
:10184000AB5F000EAC5BA7C3B1F3A8C3B2F3030157
:10185000000EAF6F0C0EB06F5CDA00090BE0ABC38B
:10186000B7F3ACC3B8F30301000EB56F0C0EB66F3F
:10187000A4EC10F0ACEC71F0010CF2EC00F0030100
:10188000ADA102D04187AD91409B409D409F4193C7
:101890004195419199EC71F00009FCE0060E0301BD
:1018A000AD1504E00C01A86BA96BB3D00E512F1934
:1018B00007E10F51301904E10C01A86BA96B91D01D
:1018C0002F510E5D30510F591FE20E512F5D0C014B
:1018D000A86F03010F513059AAEC19F004E214C3A8
:1018E000A8FC15C3A9FCFFEC19F005E225C3A8FC70
:1018F00026C3A9FC4185A8CCC5F3A9CCC6F3A2ECAC
:1019000018F008EC1AF06DD00E512B5D0C01A66F8B
:1019100003010F512C590C01A76FA65103012F256C
:10192000006E0C01A75103013021016E2951005CAA
:101930000C01A86F03012A510158AAEC19F004E226
:1019400014C3A8FC15C3A9FCFFEC19F005E225C3DC
:10195000A8FC26C3A9FC41850C01A651A85DA7518E
:10196000A95904E2A8CCA6FCA9CCA7FCA6CCC5F337
:10197000A7CCC6F3A2EC18F00C01A651A85DA66F87
:10198000A751A959A76FA651A71122E0A6CCC5F36C
:10199000A7CCC6F344C3C4F329C3C2F32AC3C3F319
:1019A0000301C16B03010E512B5D006E2C510F55CD
:1019B000016E026A036A070E00260A0E0122000E5B
:1019C0000222032200C0BFF301C0C0F375EC16F081
:1019D00008EC1AF02B510E5D2C510F5902E382ECEA
:1019E0001BF0030141A715D014510C01A81904E103
:1019F000030115510C01A9190CE0030125510C013B
:101A0000A81904E1030126510C01A91902E0030100
:101A1000AD810C01A851A91104E1030E0301AD151C
:101A20001CE00C01A8510301145F0C01A951030132
:101A3000155B0C01A851A91102E00301AD87030158
:101A4000AEA107D0276BF20E026F9E0E036F046BE0
:101A5000056BB1EC18F0408929D0AEA319D0400E27
:101A6000E96E030EEA6EEF50070BE82AE850070B09
:101A7000F36EF46EF80EEF14F310EF6E0607000E1F
:101A8000075B085B095B010E0C01A86FA96B0ED008
:101A900040A90CD0AEB108D0275106E02707D89056
:101AA0000533043303330233B1EC18F012C384FC62
:101AB00013C385FC10C386FC11C387FC06C388FCD6
:101AC00007C389FC08C38AFC09C38BFC0AC38CFCCE
:101AD0000BC38DFC0CC38EFC0DC38FFC0C019091CD
:101AE000909390959097ADC391FC966B976BA8518E
:101AF000030106270C01A95103010723000E082347
:101B00000923ADA315D0ADB905D00C018C6B8D6B3D
:101B10008E6B8F6B030124A306D00C018807895BB1
:101B20008A5B8B5B05D0062B0723082309232483BC
:101B30000301ADB124813551335D365134590AE387
:101B400039EC19F00C010250005C926F03500158FF
:101B5000936F0DD03351355D0C01926F03013451F9
:101B600036590C01936F010E925F000E935BD2EC1D
:101B700071F0F3CF82FCF4CF83FC0C01400EF35CD8
:101B8000000EF45803E2826B836B04D0400E825F38
:101B9000000E835B9251825D9351835904E282CCA3
:101BA00092FC83CC93FC0301840EB36F0C0EB46FD4
:101BB000EBD9140E0C01A827000EA9239089909B45
:101BC000908D909F0301ADA323D0040E0C01A82794
:101BD000000EA923020E986F040E996F020E9A6FE1
:101BE000180E9B6F010E006E900EE96E0C0EEA6EE1
:101BF000EF5073EC1BF000240F0BF36EF46EF34602
:101C0000F346F346F3460F0EEF14F310EF6EF45065
:101C10008EC79CFC8FC79DFC90C79EFC91C79FFC04
:101C200018C3A0FC19C3A1FC1AC3A2FC1BC3A3FCCC
:101C30000C01A46B060EA56FA8CCA6FCA9CCA7FC32
:101C4000A8CCC8F6A9CCC9F659EC66F0F3CFA6FC2F
:101C5000F4CFA7FC0C0E0601D06FD16B06019C0ED1
:101C6000CE6F0C0ECF6F74EC66F0F3CF94FCF4CF14
:101C700095FC0C01941F951F0801DF0EC16F090E22
:101C8000C26FF6EC72F0A8CC84F9A9CC85F90901F1
:101C9000060E836F0901180E816F030E826F57ECD9
:101CA0009FF0140EDFEC1AF0840ED66F0C0ED76F77
:101CB00086EC74F00301ADA309D0040EDFEC1AF03A
:101CC000980ED66F0C0ED76F86EC74F00801F30EE9
:101CD000C36F090EC46F03EC73F0A8CCC9F8A9CC8C
:101CE000CAF836EC73F0F3CF82FCF4CF83FC080122
:101CF000030EC16F0A0EC26FF6EC72F0020EDFEC3B
:101D00001AF0820ED66F0C0ED76F86EC74F0CDEF02
:101D100072F0B4EC17F0EE50ED1001E1000C0C0184
:101D2000FE0E266F42EC1AF0CBEC19F042EC1AF0E2
:101D30000450EE24026E0550EE20036E18EC1BF0EA
:101D40000250EE24006E0350EE20016EB4EC17F04A
:101D50000050EE18276F0150EE18286F256B2551A3
:101D600037EC17F048E225CC45F3CAEC00F00D0E35
:101D700003013F5D3DE0040E3F5D0BE179EC1BF09C
:101D80000050421935E10150431932E125CC26FCBF
:101D90002FD00C012751030142192AE10C012851CF
:101DA0000301431925E1F2EC00F079EC1BF003018B
:101DB000125100181DE1135101181AE118EC1BF023
:101DC00055EC19F01051021813E11151031810E1EC
:101DD00042EC1AF0EE5018190BE1EE50191908E117
:101DE000EE501A1905E1EE501B1902E101E1010C58
:101DF0000C01252BB4D7FE0E265D21E026CC45F341
:101E0000BAEC1AF0FE0E0C01265D19E027CC42F365
:101E100028CC43F34FEC1AF038EC1AF004EC19F02C
:101E200018EC1BF0EECF10F3EDCF11F3B4EC17F07C
:101E3000EECF12F3EDCF13F3E4EC1AF0010C18EC33
:101E40001BF00D0EFAEC1AF0EF50020B01E1000C42
:101E500008013851391101E0000C0C01296B2A6B83
:101E6000030E295D000E2A593BE2EEEC1AF0A8ECB5
:101E70001BF036E0EEEC1AF00BEC19F07CEC18F0ED
:101E8000B4EC17F055EC19F00250001824E103509F
:101E9000011821E1EEEC1AF0D4EC1AF07CEC18F009
:101EA00018EC1BF055EC19F00250001814E1035027
:101EB000011811E142EC1AF0C4EC1BF0EE500001E5
:101EC000001808E1EE50011805E1EE50021802E199
:101ED000EE50031848E00C01292B000E2A23C0D72E
:101EE000256B255137EC17F04EE225CC45F3CAECB3
:101EF00000F0030140A744D0F2EC00F079EC1BF0B5
:101F00000050030112193CE10150131939E14FEC63
:101F10001AF0EEEC1AF0F6EC19F08DEC19F018EC62
:101F20001BF07CEC18F0EEEC1AF0D4EC1AF000C0C8
:101F3000EEFF01C0EDFF18EC1BF0040EFAEC1AF0F6
:101F4000C4EC1BF00C0EFAEC1AF000C0EEFF88ECAB
:101F50001BF079EC1BF0EEEC1AF00BEC19F000C062
:101F6000EEFF01C0EDFF4CECABF027C001F0EEEC52
:101F70001AF0DCEC1AF026C0EEFF01C0EDFF000CF9
:101F80000C01252BAED7000C1DEC1BF0A4EC17F0B8
:101F9000F3CFEEFF01C0EDFF1DEC1BF0020EFAECDB
:101FA0001AF0A4EC17F0020EF3CFEBFF030E94EC43
:101FB00019F0040EF2EC17F0040EC1EC18F0080E44
:101FC000F2EC17F0080EC1EC18F00E0EFAEC1AF055
:101FD000A4EC17F00E0EF3CFEBFF0F0E94EC19F0FC
:101FE0000BEC19F0A4EC17F0100EF3CFEBFF110E71
:101FF00094EC19F0DCEC1AF0A4EC17F0120EF3CF0D
:10200000EBFF130E01C0EBFF1200F2EC00F012C365
:1020100042F313C343F3A5EC19F029C331F32AC3E8
:1020200032F32BC333F32CC334F3CAEC1AF003019D
:102030004051080B02E0040E01D00D0E3F6F40919D
:10204000409340954099409B409D409F41914193D2
:102050004195419741892491249324972499E4EC54
:102060001AF0AEEC62F0F3CF06F3F4CF07F3AEEC68
:1020700062F0F3CF08F3F4CF09F303012269236977
:10208000010E146F156B12000C0E0901866F876B21
:10209000CAEC9FF060EC74F00C01416FF00E41153A
:1020A000E840E8403F0B88EC1AF000C041FC0050CB
:1020B00046E0070E11EC1AF00C01415141070009EE
:1020C0003EE0E9EC1AF0E8503AE04205F5E0020E95
:1020D000425D26E1030E415D32E3436B446BE9EC64
:1020E0001AF0040E425D08E160EC74F00C01446FDC
:1020F00060EC74F00C01436F180E435D020E4459FE
:102100001EE3B40ED8804355050E445504E2B40EC8
:10211000F36E050E17D043CCF3FF44CCF4FF12004E
:10212000020E415D0CE3E9EC1AF0E850415D07E373
:10213000425111EC1AF00C014251415FBDD7180E0B
:10214000F36E020EF46E12003AEC1BF00D0EFAEC78
:102150001AF0EFCF33FC3AEC1BF0080EFAEC1AF051
:10216000EECF34FCEECF35FCEECF36FCEFCF37FCB4
:102170003AEC1BF0040EFAEC1AF0EECF38FCEECF7E
:1021800039FCEECF3AFCEFCF3BFC0301409140938A
:10219000409540B902D083EC17F03F51050A1FE08B
:1021A000010A08E0B7C33CFCB8C33DFC0C0133A1F5
:1021B0004AD046D00C0133B510D033A906D05AEC22
:1021C00019F0040E49EC1BF008D033A306D0E4EC60
:1021D00018F08FEC1AF046EF19F005EF10F00C0133
:1021E00033B5120033A910D032EC1AF003010619EE
:1021F00008E1EE50071905E1EE50081902E1EE5032
:10220000091902E0D5EF17F00C0133A396EF15F092
:10221000E4EC18F019EC1AF0EECF14F3EDCF15F34F
:102220008FEC1AF00C0133A909D0C0EC17F00301B0
:10223000070E3F6F83EC17F04099120046EF19F03C
:102240003C2B000E3D2333A303D03C2B000E3D233B
:1022500026EC1AF00AE339EC19F00C010250005C8C
:10226000316F03500158326F0DD03351355D0C0181
:10227000316F0301345136590C01326F010E315F59
:10228000000E325B0A0EE96E030EEA6EEE50385D08
:102290002B6FEE5039592C6FEE503A592D6FEE508E
:1022A0003B592E6F2BCC2FFC2CCC30FC3E6B3C5181
:1022B0003D115FE03151321169E0800E2E1503E1CE
:1022C000EEEC18F03BE33CCC00F03DCC01F0026AB0
:1022D000036A2B0EE96E0C0EEA6EEE500026EE50ED
:1022E0000122EE500222EE5003220334000E0318A6
:1022F00009E6D880000E0054000E0154000E02546E
:10230000000E03541DE23C51315D046E32513D55C7
:10231000056E066A076A05AE02D0066807680750B0
:102320002E19E8AE02D02E3508D02B51045C2C516A
:1023300005582D5106582E51075802E3010E3E6FE5
:102340008FEC1BF02E510318E8AE02D0033402D0FC
:102350005DEC1BF01BE22F513C25046E30513D21FA
:10236000056EE83413E204500008000E05540EE236
:102370000BD02B512C112D112E1106E0800E2E1595
:1023800005E1EEEC18F002E2010E3E6F3E5104E171
:1023900033B5CCD3C0EF17F0060E331502E005EFCE
:1023A00010F033A9120003013F510C0A01E1B0D132
:1023B0000B0A1CE00F0A1AE0010A18E0020A16E0F4
:1023C000010A14E00C0A01E0BFD132EC1AF0061940
:1023D00008E1EE50071905E1EE50081902E1EE5050
:1023E000091902E0D5EF17F0070E3F6F0E512F5D70
:1023F0000C01296F03010F5130590C012A6F800E17
:102400002A1508E00301ADEC17F000500C01292754
:1024100001502A2329CC00F02ACC01F0026A036A79
:10242000ACEC1BF0EE500024256FEE500120266F1F
:10243000EE500220276FEE500320286F250EE96E24
:102440000C0EEA6EEE50F1EC18F002E6B4EC19F066
:1024500015E203012451010B0AE0010E0C012519BC
:1024600005E1265103E1275101E1285102E057EF30
:102470001AF03407000E355B365B375B03011DEC49
:102480001AF001AE02D002680368ACEC1BF00050F9
:10249000EE5C0C01256F0150EE58266F0250EE588D
:1024A000276F0350EE58286F03013DEC1AF00BE242
:1024B000B1EC1BF000500C01255F0150265B02506F
:1024C000275B0350285B250EE96E0C0EEA6EEE507A
:1024D0000C01F1EC18F002E6B4EC19F06CE2030127
:1024E000B1EC1BF00C012551005C2651015827511D
:1024F0000258285103585FE303012497249941911E
:1025000031C329FC32C32AFC0C01255103013127B8
:102510000C012651030132230C01295103010E5DE8
:102520000C012A5103010F5909E33DEC1AF02FE287
:102530000E51315D006E32510F551BD0ADEC17F0CE
:102540000E5100240C01296F03010F5101200C01D1
:102550002A6F030131510C01295D030132510C0135
:102560002A5915E229510301315D006E32510C01E7
:102570002A55016E00010050030106270001015099
:1025800003010723000E08230923D7EC1AF00301E7
:102590002B51315D2C51325906E3ADEC17F0005050
:1025A000315F0150325B2B510E5D2C510F5928E3E6
:1025B00082EC1BF025D003010E51311902E10F51BD
:1025C00032191EE024A71BD024A918D01DEC1AF044
:1025D00001AE02D00268036800504DEC19F03DECEA
:1025E0001AF009E2B1EC1BF001AE02D002680368F8
:1025F00000504DEC19F0D7EC1AF04185248924875E
:102600002F5131191CE13051321919E141B704D071
:1026100083EC17F0409913D065EC18F010E1EE5000
:1026200035190DE1EE5036190AE1EE50371907E180
:1026300006E103012451010B02E04099419732EC7D
:102640001AF00301065D006EEE500759016EEE5060
:102650000859026EEE500959036E19EC1AF00C017C
:102660000050EE5C3F6F0150EE58406F0301145173
:10267000151106E10C013F51401102E003014183B5
:102680003FCC14F340CC15F3080E03013F5D20E16D
:1026900065EC18F059E1EE50351956E1EE50361957
:1026A00053E1EE50371950E14FE103012451010B82
:1026B0004BE0FEEC1AF0BA0E030137271A0E38234E
:1026C000030E3923000E3A234089090E3F6F3CD098
:1026D000090E3F5D0AE10C0133B136D05AEC19F016
:1026E000140E49EC1BF005EF10F00A0E3F5D2CE1D3
:1026F00065EC18F00CE1EE50351909E1EE50361991
:1027000006E1EE50371903E101E010D27EDC120041
:1027100006C300F007C301F008C302F009C303F0C9
:10272000002AD4EC1BF000500C0134190CE10150CC
:10273000351909E10250361906E10350371903E152
:1027400001E0F4D162DC12000C0133BB12000B0E6D
:1027500003013F5D01E112000A0E3F5D01E112003D
:102760000C0E3F5D01E11200B751B81101E166D1D5
:102770000C01303504E22F510008000E305501E203
:10278000A2D074EC18F0006E016A2F51F35C0901BD
:10279000866F0C01305101580901876FCAEC9FF018
:1027A0000C012F510301B7270C0130510301B8234D
:1027B000B7510C01315D0301B8510C01325904E2EB
:1027C00031CCB7F332CCB8F30301B7510A27B85173
:1027D0000B23000E0C230D233351B725006E34510B
:1027E000B8212CEC1AF024E233512D5D0C01296F35
:1027F000030134512E590C012A6F010E2927000EB6
:102800002A2396EC1BF033C3BFF334C3C0F309ECA7
:102810001BF098EC19F0006EB8510C012A55016EAE
:1028200003012B510024336F2C510120346F0CD045
:102830002FEC1BF033C3BFF334C3C0F356DA0301EC
:10284000B7513327B8513423221D01E1231D01E183
:10285000F5D0B751225FB851235B165122250C01E8
:10286000296F0301175123210C012A6F800E2A15AD
:1028700002E0030125D00301233504E222510008C0
:10288000000E235501E2DAD00C01295103010A2779
:102890000C012A5103010B23000E0C230D230C0104
:1028A0002951030133270C012A51030134233351E9
:1028B0002D5D34512E5904E25BDB335F0150345BF4
:1028C00022692369BBD0303501E3B8D02F5100080D
:1028D000000E305501E3B2D00301B7510C012F2592
:1028E000006E0301B8510C013021016E0050315DC2
:1028F0000150325909E22F51315D0301B76F0C01CC
:10290000305132590301B86FEFDB0901866F876BD5
:10291000CAEC9FF0B6EC1BF0026EBBEC1BF0036E32
:1029200002500301B725006E0350B8212CEC1AF0B9
:1029300031E233512D5D006E2E51345522EC1BF0E7
:102940000C012F51005C296F305101582A6F800E05
:102950002A1508E196EC1BF05FEC19F0C06F09EC4A
:102960001BF01DD02FEC1BF0B6EC1BF0006EBBEC87
:102970001BF0016E03012B512D5D026E2E512C5563
:10298000036EB5EC1AF003010250005CBF6F0350F8
:10299000015804D02FEC1BF05FEC19F0C06FA5D9E3
:1029A0000301221D0BE1231D09E12FCC22F330CCC2
:1029B00023F3B7C316F3B8C317F340D022510C0169
:1029C0002F5D030123510C0130591EE23DDB06E36C
:1029D0000C0165EC19F02351055805E2B7C316F355
:1029E000B8C317F30CD09EEC19F00C012F51005C0A
:1029F0000301166F0C01305101580301176F2FCCE2
:102A000022F330CC23F31AD01FDB18E29EEC19F02E
:102A10000C012F51005C3051015810E365EC19F0A6
:102A2000026E23510558036E1651025C006E175159
:102A30000358016E00501627015017230C013C511A
:102A40003D1119E0070E03013F5D04E033C335F388
:102A500034C336F340AF04D093DAF2EC00F00BD07D
:102A6000408F40BD08D0408D96EC1AF00F0E030148
:102A70003D27000E3E230C0133A158D00AC300F0BD
:102A80000BC301F00CC302F00DC303F0002AD4EC19
:102A90001BF03CCC04F03DCC05F0066A076A380E0A
:102AA000E96E0C0EEA6EEE500426EE500522EE5052
:102AB0000622EE5007220050041838E10150051894
:102AC00035E10250061832E1035007182FE12EE1DC
:102AD0009CEC1BF03F51090A24E0010A12E00F0AA6
:102AE00006E0010A22E10C0E3F6F00EF19F00B0E19
:102AF0003F6F96EC1AF01F0E03013D27000E3E2398
:102B000014D0E3DA0AE1EE50351907E1EE50361938
:102B100004E1EE50371901E104E003010A0E3F6FB2
:102B200004D057EC1AF005EF10F02ADA1200030176
:102B3000B9519DD901E3000CB9C345F3CAEC00F0CB
:102B40000301BA51BB1103E1010EBA6FBB6B2951EE
:102B50002D5D0C01006F03012A512E590C01016FEC
:102B6000010E005F000E015B03019DEC1AF00C01E9
:102B70000050005D0150015901E2000CF2EC00F040
:102B8000030E0301BE1502E1030EBE13BCC304FC19
:102B9000BDC305FC9DEC1AF000500C01005F015014
:102BA000015B0301BEA313D0BEA10CD000CC00F08A
:102BB00001CC01F0D8900132003200500C01042702
:102BC000015004D00C0100510427015105230301D9
:102BD00029510C010425006F03012A510C01052124
:102BE000016F010E0027000E012333C302FC34C322
:102BF00003FC0301221D01E1231D13E09FDB0050B4
:102C00000C01022701500323025103012D5D0C0129
:102C1000035103012E5905E2ABD90C01025F0150AB
:102C2000035B0C0102510301355D0C0103510301EB
:102C300036590CE20C0100510301355D0C010151C4
:102C40000301365918E2BEA50ED0000C5DEC1AF057
:102C50000AE2005103012B5D0C01015103012C59C3
:102C60000AE2BEB5000C00CC35F301CC36F300CC43
:102C700033F301CC34F303015DEC1AF025E2040ECA
:102C80000301BE1521E02B510C01025D0301C56F4C
:102C900003012C510C0103598EDB44C3C1F300CC5A
:102CA000BFF301CCC0F321D8D1DB0EE20C010051FF
:102CB00003012B5D006E2C510C010155016E00507B
:102CC0000301335F0150345B00CC2BF301CC2CF3B8
:102CD000E4EC1AF029C331F32AC332F336DB070ED2
:102CE00003013F5D01E14CD9010C0301C4512AE00D
:102CF000010A01E01200C15111E0010A01E01200D5
:102D0000C5C3E6FFC6C3E6FFC2C3E6FFC3C3E6FF13
:102D1000BFC3E6FFC0C3E6FF04EF19F0BF1D01E12A
:102D2000C01D06E0BFC3C1F8C0C3C2F8F6EC72F024
:102D3000C5C3D8F8C6C3D9F8C2C3D6F8C3C3D7F839
:102D400086EF74F0C15117E0010A01E01200C21DC4
:102D500001E1C31D06E0C2C3C3F8C3C3C4F803EC5A
:102D600073F0C5C3D3F8C6C3D4F8BFC3D1F8C0C38A
:102D7000D2F862EF74F0C5C3CFF8C6C3D0F8C2C3AF
:102D8000CDF8C3C3CEF8BFC3CBF8C0C3CCF8C0ECFA
:102D900073F05AEC74F00009FCE012000301C95111
:102DA0000EE0010A01E01200CDC3E6FFCEC3E6FF4C
:102DB000CBDBC7C3E6FFC8C3E6FFABEF1AF0C71D06
:102DC00001E1C81D06E0C7C3C1F8C8C3C2F8F6ECEC
:102DD00072F0100E0C01286F296B0301CD51CE113A
:102DE00037E00C0128510301CD5D0C01295103018D
:102DF000CE5904E2CDC328FCCEC329FC28CCE6FF83
:102E000029CCE6FFA1DB180EE66E0C0EE66EA3DB06
:102E100028CCD8F829CCD9F80801180ED66F0C0E9A
:102E2000D76F86EC74F028CC00F029CC01F0026A50
:102E300000500301CA270150CB230250CC230C01C0
:102E400028510301CD5F0C0129510301CE5BC5D789
:102E50001200140EEA02F3CFEAFFE902F3CFE9FF12
:102E6000F450EA26000EE926080EEA221200006E4F
:102E7000016A090E005C000E0158120004CCC5F373
:102E800005CCC6F30301020ED880C557000EC65705
:102E9000140EC603F3CFC6F3C503F3CFC5F3F45046
:102EA000C6270301010EC46F0C0104250301C26F84
:102EB000000E0C0105210301C36F140EC303F3CFF1
:102EC000C3F3C203F3CFC2F3F450C327000EC227EB
:102ED000080EC323C0EC1BF0140E286E296A04CC24
:102EE0002DF005CC2EF090EC7FF026C0BFF327C06C
:102EF000C0F3000E0301BF27080EC023F6DE080151
:102F0000386B396B12007ADB740E03013727350EEC
:102F10003823060E3923000E3A231200F80E006EF5
:102F20005A0E016E010E026E14CC03F0046A056A9B
:102F3000060E2C6E2D6A2E6A14CC27F004C028F0E1
:102F400005C029F0AEEF7FF0EECFC8F6EDCFC9F6A1
:102F500059EC66F0F8DB1DEF1BF029512B5D006E7C
:102F60002C512A55016E120063DB020EFAEF1AF0A3
:102F70002B512D5D006E2E512C5564DB005012003C
:102F800074DB100E49EF1BF07ADB060E61D30050A4
:102F90002424F36E01502520F46E02502620F86E92
:102FA000F4CFF7FFF3CFF6FF120006C338FC07C3D8
:102FB00039FC08C33AFC09C33BFCEDDB56DB040ECD
:102FC00068DB38CC06F339CC07F33ACC08F33BCCBA
:102FD00009F312000301C46B0301C269C36944C34E
:102FE000C1F3120007DBEECFCAF6EECFCBF6EECF81
:102FF000CCF6EFCFCDF65EEC66F026C000F027C031
:1030000001F028C002F029C003F01DEF1BF0016E93
:1030100000C0F3FFF46E12000ACC96F30BCC97F3CA
:103020000CCC98F303010ACCF6FF962B0BCCF7FFE0
:10303000000E97230CCCF8FF98230800F5CF0EFC68
:1030400012001DDB1F0E04D32F510301B725006EA4
:103050000C0130510301B821016E22511625026E78
:1030600023511721036E0050025C015003581200D7
:103070001A511825026E1B511921036E025010259A
:10308000006E0350112122D33AECABF0030137510B
:10309000265C006E38512758016E39512858026E4F
:1030A0003A512958036E0001800E03141200455155
:1030B000EA6A490FE96E0C0EEA2212000D51EA6A23
:1030C000110FE96E0C0EEA22120046DBEE500C01E5
:1030D0003419120096C3F6FF962B97C3F7FF000E24
:1030E000E3DA010E106F1200C5DA0C0E83DAEF502E
:1030F000FADA040DF3501200EECF00F0EFCF01F03A
:1031000012000301010EC46F64C3C2F365C3C3F3AD
:103110004CEF1BF044C3C4F335C3C2F336C3C3F34F
:103120002FDB7CC3BFF37DC3C0F375EF16F0000146
:103130000224006E000E032085DA00C0F3FF01C0F8
:10314000F4FF120044C3C4F30EC3C2F30FC3C3F3AE
:103150000301C16B0301070EBF6F0A0EC06F75EF4D
:1031600016F03AECABF0265003010225376F2750DA
:103170000321386F28500421396F295005213A6FF7
:10318000120038DA26C0EEFFC3DA1DEF1BF069C368
:10319000CAF36AC3CBF36BC3CCF344C3C9F32FC3E5
:1031A000C7F330C3C8F3CEEF16F043CC8CF344CC56
:1031B0008DF3030143CCE9FF44CCEAFF8C2B000ED6
:1031C0008D23EFCF46FC120038CC0AF339CC0BF339
:1031D0003ACC0CF33BCC0DF39CEF1BF0A0DA5DEF87
:1031E0001BF0345D256FEE503559266FEE50365981
:1031F000276FEE503759286FE834000E2819120057
:1032000034DA110E49EF1BF069EC90F0006E060EF7
:10321000E15E00501200100EFAEF1AF01C0D93DA66
:10322000000E0026010E012200C0E6FF01C0E6FFED
:103230001200036E02504B25006E03504C2146D203
:1032400044C3C4F300CCC2F301CCC3F399DA82C304
:10325000BFF383C3C0F312008CC3E9FF8DC3EAFF41
:103260008C2B000E8D23EFCF46FC0C01010E486F16
:1032700012002B512D5D006E2E512C55016E3551D3
:10328000335D026E34513655036E1200EED9120EC4
:1032900000DA0301060E3F6F1200065F0150075B64
:1032A0000250085B0350095B1200EECF02F0EFCF33
:1032B00003F0120070DA0301AE6B0301120056DA5C
:1032C0000301BF6F58DA030112002F510301B72524
:1032D000046E0C0130510301B821056E2251045CCB
:1032E00012000301C56FC66B44C3C4F31200205122
:1032F0001C0DF3CFE9FFF4CFEAFF000EE926010E23
:10330000EA2212004CECABF0030126503D5D006E4A
:1033100027503E59016EE834120069EC90F0026EBD
:10332000060EE15E0250120001C0EBFF1DEF1BF024
:10333000DCDC0C0129510301B75D12002251162576
:10334000006E23511721016E120029C32FF32AC3E7
:1033500030F312000C01A96FA8510301145D0C0198
:10336000A951030115591200D880000E2555000EF1
:103370002655000E2755000E28551200006E016AD2
:103380000050120046C318F347C319F348C31AF399
:1033900049C31BF31200020E2DD9EECF04F0EFCF7C
:1033A00005F012000C012C5103016C5D0C012D5134
:1033B00003016D5912000301C66F44C3C4F32BC34C
:1033C000C2F32CC3C3F3120003018E510C013B5D09
:1033D00003018F510C013C591200030199510C015A
:1033E000025D03019A510C0103591200E9CF00F06C
:1033F000EACF01F0E9CFE6FFEACFE6FF12000C01C9
:10340000A8510301255D0C01A951030126591200A1
:103410000C01A85103010E270C01A95103010F2330
:1034200012000801D36FD46B0801D16BD26B62EF2D
:1034300074F020D90E0EFAEF1AF031510E5D006EC5
:103440000F513255016E026A036A120003013551B1
:10345000335D365134591200016E00502D5D01501C
:103460002E591200340EE96E0C0EEA6EEE50120068
:10347000180EE66E030EE66E120031510E5D3251EB
:103480000F591200B1C3E9FFB2C3EAFF1200E351C2
:103490000301665D0C01E4510301675912000A0E35
:1034A000E66EE66AB1C3E6FFB2C3E6FF12000301AF
:1034B000AE6B0301100E49EF1BF035510C01025D9C
:1034C000030136510C0103591200CAEC00F033C35A
:1034D00035F334C336F31200016E03012B51005C47
:1034E0002C510158120003018E07000E8F5B8E5184
:1034F0008F11120003019907000E9A5B99519A11DE
:103500001200272BD89002370337043705371200F3
:10351000006E016A140E005E000E015A120044ECA7
:1035200010F0F3CF25F3F4CF26F312004CECABF000
:1035300026C03DF327C03EF31200BA51BC25006EF1
:10354000BB51BD21016E1200CAC3E6FFCBC3E6FF2B
:10355000CCC3E6FF120094EC90F0006E070EE15E23
:10356000005012000DD903011200010E0226000EB8
:1035700003221200CAEC00F0F2EF00F061C35FF327
:1035800021EF03F063C35FF321EF03F068C35FF340
:1035900021EF03F02BC335F32CC336F31200005098
:1035A0000008000E015412000A0EFAEF1AF031C39F
:1035B0000EF332C30FF31200120EFAEF1AF00801E5
:1035C000D86FD96B0801120029C30EF32AC30FF379
:1035D000120060EC74F00C01426F120029CCE9FF7C
:1035E0002ACCEAFF29EF17F004CCE9FF05CCEAFF6B
:1035F00029EF17F0E926000EEA2212003AECABF0B0
:1036000026C037F327C038F328C039F329C03AF36E
:1036100012008EDE0301C56F0C012A510301B85957
:103620000301C66FD7DC2BC3BFF32CC3C0F312005A
:10363000AFC3E9FFB0C3EAFF1200B3C3E9FFB4C3ED
:10364000EAFF1200016E010E0026000E0122120098
:103650000026AAD800C03BF301C03CF31200B7C358
:10366000C5F3B8C3C6F3EAEF17F00301010EAE6F5E
:1036700003011200B5C3E9FFB6C3EAFF1200408B95
:103680004CECABF026C000F027C001F0026A036AE0
:103690001200AD6F3DEF0CF044C3C1F32FC3BFF375
:1036A00030C3C0F375EF16F0972398C3F8FF982343
:1036B0000800F5CF0EFC0C01120000502B5D0150EC
:1036C0002C5902502D5903502E591200016E0050F2
:1036D0001219426F01501319436F12003EDCD8904B
:1036E000013200321200F00BE842E842E842E842C0
:1036F00012003ADC7CEF18F025C004F026C005F07B
:10370000C7EF17F02ADC00500E5F01500F5B12006C
:1037100001C0EEFF02C0EEFF03C0EEFF120031CC8D
:1037200000F032CC01F0026A036A120029CCC5F322
:103730002ACCC6F3EAEF17F003010A2B000E0B2385
:103740000C230D231200F3CF00F0F4CF01F0120090
:1037500062DDEE50ED101200060EE96E030EEA6E09
:103760001200ADEC17F0026A036A12000301335134
:103770000C012F251200030134510C0130211200DD
:103780000301010EC16F1200EECF00F0EECF01F089
:103790008CDDEEEF1AF034CC06F335CC07F336CCE3
:1037A00008F337CC09F31200000E01220222032293
:1037B00012002D0E0901001905E1015103E102512A
:1037C00001E1035101E143D22C0E001905E1015141
:1037D00003E1025101E1035101E137D22B0E00193F
:1037E00005E1015103E1025101E1035101E12BD255
:1037F0002A0E001905E1015103E1025101E10351D3
:1038000001E11BD2290E001905E1015103E102512A
:1038100001E1035101E10FD2280E001905E1015128
:1038200003E1025101E1035101E102D2270E001927
:1038300005E1015103E1025101E1035101E1F6D13A
:10384000260E001905E1015103E1025101E1035186
:1038500001E1EAD1250E001905E1015103E1025110
:1038600001E1035101E1DED1240E001905E101510E
:1038700003E1025101E1035101E1D2D1230E00190C
:1038800005E1015103E1025101E1035101E1C6D11A
:10389000220E001905E1015103E1025101E103513A
:1038A00001E1BAD1210E001905E1015103E10251F4
:1038B00001E1035101E1AED1200E001905E10151F2
:1038C00003E1025101E1035101E1A2D11F0E0019F0
:1038D00005E1015103E1025101E1035101E196D1FA
:1038E0001E0E001905E1015103E1025101E10351EE
:1038F00001E18AD11D0E001905E1015103E10251D8
:1039000001E1035101E17ED11C0E001905E10151D5
:1039100003E1025101E1035101E172D11B0E0019D3
:1039200005E1015103E1025101E1035101E166D1D9
:103930001A0E001905E1015103E1025101E10351A1
:1039400001E15AD1190E001905E1015103E10251BB
:1039500001E1035101E14ED1180E001905E10151B9
:1039600003E1025101E1035101E13ED1170E0019BB
:1039700005E1015103E1025101E1035101E132D1BD
:10398000160E001905E1015103E1025101E1035155
:1039900001E125D1150E001905E1015103E10251A4
:1039A00001E1035101E115D1140E001905E10151A6
:1039B00003E1025101E1035101E109D1130E0019A4
:1039C00005E1015103E1025101E1035101E1FCD0A4
:1039D000120E001905E1015103E1025101E1035109
:1039E00001E1F0D0110E001905E1015103E102518E
:1039F00001E1035101E1E4D0100E001905E101518C
:103A000003E1025101E1035101E1D8D00F0E001989
:103A100005E1015103E1025101E1035101E1CCD083
:103A20000E0E001905E1015103E1025101E10351BC
:103A300001E1C0D00D0E001905E1015103E1025171
:103A400001E1035101E1B4D00C0E001905E101516F
:103A500003E1025101E1035101E1A8D00B0E00196D
:103A600005E1015103E1025101E1035101E199D066
:103A70000A0E001905E1015103E1025101E1035170
:103A800001E18AD0090E001905E1015103E102515B
:103A900001E1035101E17ED0080E001905E1015159
:103AA00003E1025101E103516CE0070E001905E149
:103AB000015103E1025101E103515EE0060E0019DC
:103AC00005E1015103E1025101E1035151E0050E0D
:103AD000001905E1015103E1025101E1035146E002
:103AE000040E001905E1015103E1025101E1035106
:103AF0003BE0030E001905E1015103E1025101E130
:103B0000035130E0020E001905E1015103E10251B9
:103B100001E103511EE0010E001905E1015103E12D
:103B2000025101E1035113E0005101E092D0015133
:103B300001E08FD0025101E08CD0035101E089D027
:103B40000901100E1E6F8A0E1F6F000E08D0F5EFD0
:103B500035F00901050E1E6F8A0E1F6F000E206FD3
:103B6000B2EF27F00AEF36F03BEF1EF002EF34F031
:103B7000010E0E01656F12D0010E0E01696F6A6BA6
:103B800004D00E01696B6A6B010E0E01676F686BE2
:103B9000A3EF34F02FEF34F00E01656B666B67EF27
:103BA00034F00E01636B646B37EF34F0ECEF34F0FC
:103BB0008AEF35F0A5EF35F0DAEF35F0DFEF35F0CD
:103BC00021EF36F004EF37F00E016F6B05D0010ED8
:103BD00001D0020E0E016F6F706BD9EF36F00E013F
:103BE000716B05D0010E01D0020E0E01716F726B68
:103BF000DAEF36F011EF37F0BCEF36F07AEF36F04F
:103C00007FEF36F08AEF36F094EF36F09EEF36F025
:103C1000A8EF36F0B2EF36F0DBEF36F0DDEF36F03E
:103C200007EF37F001EF37F0E6EF36F0EEEF36F062
:103C30000E01736B05D0010E01D0020E0E01736FE1
:103C4000746BE5EF36F0E2EF36F0E3EF36F0E4EFD9
:103C500036F0040E03016C6F6D6B0301000E696F8B
:103C60008A0E6A6F000E6B6FD5EC29F0EE52EFCF23
:103C700068F346EF04F003017E0E626FECEF2AF06A
:103C80000401836B020E835D30E236EC28F0EF6AAC
:103C90000301080E4D6F500E03014B6F4C6B030177
:103CA0004A6B0301466B476B486B496BEDEC01F0C7
:103CB000E66ED5EC29F0EE52E552E750EF6E14694E
:103CC000156983519DEC28F097EC29F0F3CF00FCA7
:103CD000F4CF01FCF2EC28F000CCC1F801CCC2F822
:103CE000F6EC72F00401832BCDD7836B12000C012C
:103CF000EE6B020EEE5D36E2A7EC28F0EE52EF50CE
:103D0000FE082DE0A7EC28F0EE52EFCF4EF385EC45
:103D100002F0000914E0EECC04F925D8D5EC29F026
:103D2000EF6AFF0E145D02E025EC29F0FF0E155D31
:103D300002E02CEC29F00301040E6AEC2AF00C01DD
:103D4000A7EC28F0EF5007E1A7EC28F098EC28F05A
:103D5000BAEC28F004E0EECC04F905D83ED80C010A
:103D6000EE2BC7D71200040183510901045D01E164
:103D70001200040183519DEC28F097EC29F0F3CF59
:103D800000FCF4CF01FCF2EC28F000CCC1F801CC2F
:103D9000C2F8F6EC72F0090104519DEC28F000C065
:103DA000C3F801C0C4F803EC73F0F3CF00FCF4CF08
:103DB00001FC7F0E0801D36FD46B0801000ED16F98
:103DC000040ED26F62EC74F000CCC3F801CCC4F8DE
:103DD00003EC73F004C983F412000C01010ECE6FE2
:103DE000D5EC29F0EF500B0A02E158EF23F0010A5D
:103DF00002E135EF23F0030A02E11EEF23F0010A8E
:103E000001E1B9D30F0A01E11FD3010A01E102D395
:103E1000030A01E17AD2010A01E16ED2070A01E147
:103E200047D2010A01E1A4D1030A27E0010A02E016
:103E300065EF23F092EC2AF0F3CFC8FCF4CFC9FC75
:103E4000F350F41002E165EF23F004011A0E106F35
:103E5000040E116F36EC28F0010EEF6E1769166B29
:103E60005EEC28F00C690D690E690F69B2EC29F05F
:103E70007E6B0301050E6AEC2AF05BEC28F00A0E5B
:103E8000BDEC2AF0E4EC29F00001F31C14E1011C64
:103E900012E1D5EC29F0EEEC29F004E1F5EC29F083
:103EA0000C01CE6B85EC28F002E6CCEC28F002E3A6
:103EB00065EF23F042D25EEC28F0E4EC2AF00C012E
:103EC000050ED880F354000EF45403E2050EC86FBB
:103ED000C96B010E38EC29F01A0E7C6F040E7D6F51
:103EE00067EC2AF0030EE66EE66A2E0EE66E830E8F
:103EF000E66E000E39EC2AF003E10401186B12D0D3
:103F0000040EE66EE66A290EE66E830EE66E000E7D
:103F100039EC2AF004E10401010E186F03D004010A
:103F2000070ECAD1E4EC2AF00301A66BF3CFA4F389
:103F3000F4CFA5F30301A26BA36B03013F0EA16FA6
:103F4000D5EC29F042EC29F00C01F350C85DF45097
:103F5000C95904E3CACCC8FCCBCCC9FC590ED880E3
:103F6000C855000EC95501E2ECD0D9EC2AF050EC4E
:103F70002AF01A0EF324E96E040EF420EA6E6CECBB
:103F800029F01A0EE66E040EE66E22EC2AF050ECD2
:103F90002AF00B0EE66EE66A1E0EE66E830EE66EE5
:103FA000000EE66E1B0EE66E040EBEEC28F00CE171
:103FB00045EC29F0185102E1080E01D0090E186FE6
:103FC00036EC28F0020E2ED2EAEC28F002E04FEC9C
:103FD00029F0FF0E0401145D31E1EAEC28F00EE057
:103FE0000C01CACCE9FFCBCCEAFFCA2B000ECB23D5
:103FF0001A0EE926040EEA222F0EEF6E9DEC29F030
:104000001A0E0C01CA25006E040ECB21016E00C0F1
:10401000E6FFE66E46EC91F0026E050EE15E0250A0
:104020009DEC29F06DEC91F0E552E552E5522750F8
:104030000C01CA272850CB234FEC29F01A0E0C0193
:10404000CA25CF6F040ECB21D06F010ECF5F000EBB
:10405000D05B1A0ECF1902E1040ED01909E0CFCCC3
:10406000E9FFD0CCEAFFEF502E0802E0CF07EFD7F0
:10407000CF2B000ED0230401196B0B0EE76E19191C
:10408000E8AE02D0E73402D0E750195D23E2290EF2
:10409000006E590E016E010E026E19C403F0046A1F
:1040A000056A03AE02D00468056806EC2AF0F5CF75
:1040B000C5F60900F5CFC6F60800F5CFC7F6CFCC98
:1040C000C3F6D0CCC4F61AEC66F0000903E0040194
:1040D000192BD3D745EC29F0FF0E145D18E014C45A
:1040E000EEF07FEC54F0F350020B11E014C4F9F041
:1040F00079EC55F0F3CFD0F0F4CFD1F0010E000100
:10410000D027000ED12365EC52F00401156FE4ECCA
:104110002AF0F350F4101CE00401010E166F0301A5
:10412000CC0E796F0C0E7A6FD5EC29F082EC29F069
:104130000C01C807000EC95B620EC85D000EC959AC
:1041400003E30401050EB8D0D9EC2AF0D6EC28F030
:10415000E8EC2AF0010EF32403017E6F000EF42038
:104160007F6F0301D5EC2AF0D5EC29F0020EEF6E3B
:10417000E8EC2AF00C01F31C13E1C91D11E1D5ECA8
:1041800029F0EEEC29F004E1F5EC29F00C01CE6BFE
:1041900085EC28F002E6CCEC28F001E396D2CDD0F5
:1041A0005EEC28F00C01010EC8190BE1C95109E1C0
:1041B000020EB7EC29F0D5EC2AF0D5EC29F0030E6D
:1041C00031D10301A66BC8CCA4F3C9CCA5F303017C
:1041D000A26BA36B03013A0EA16FD5EC29F042EC60
:1041E00029F0020E0C01CA27000ECB23CE6B100E55
:1041F000D880CA55000ECB5502E2010E54D0CACC6D
:104200007EF3CBCC7FF30301D10E7C6F0C0E7D6F60
:1042100067EC2AF02AEC2AF0D10EE9260C0EEA22ED
:10422000EF6A0C01CA51C85FCB51C95BCD6BCD5150
:10423000006E016A030E005C000E01582EE29B0E18
:10424000006E590E016E010E026ECDCC03F0046AB1
:10425000056A8DEC29F0CDCC27F03BEC28F0F5CFAA
:10426000E6FF0900F5CFE6FF0800F5CFE6FFD10E27
:10427000E66E0C0EE66E30EC91F0066E050EE15E19
:104280000650000907E1CDCC05F9E8DA0C01010E72
:10429000CE6F03D00C01CD2BCAD7CE5102E0E8EC93
:1042A0002AF0010E0C0138EC29F0D5EC2AF060D789
:1042B000800E175D03E2030E186FB1D010C4E9FF42
:1042C00011C4EAFF6CEC29F0F3CF10F4F4CF11F431
:1042D000080E0401185D01E1A2D036EC28F0040EAE
:1042E000EF6E165104E136EC28F0050EEF6E0C016E
:1042F000CE6B0401166BE9D12EEC2BF0020801E124
:10430000E4D1D5EC29F0050EEF6E92EC2AF0C1EC69
:104310002AF0F35004010C1914E101500D1911E1B8
:1043200002500E190EE103500F190BE10AE185EC62
:1043300028F002E6CCEC28F004E298EC2AF00B0E10
:1043400071D0180515E0090EE76E1819E8AE02D015
:10435000E73402D0E750185D59E30B0EE76E1819E9
:10436000E8AE02D0183503D0E750D88018554EE398
:10437000090EE76E1819E8AE02D0E73402D0E75014
:10438000185D13E30B0EE76E1819E8AE02D018356E
:1043900003D0E750D880185508E3D3EC26F00C0181
:1043A000CC6FE85006E104013AD0F7EC2EF00C0196
:1043B000CC6F020ECC5D0CE195EC2AF0BCEC29F040
:1043C0000401010E0C5F000E0D5B0E6B0F6B7DD1B7
:1043D000CC051CE195EC2AF0BCEC29F004010E6B35
:1043E0000F6B5EEC28F010EC29F00C5DEE500D59CF
:1043F000EE500E59EE500F5906E236EC28F0EEEC76
:1044000029F001E062D10401060E08D0D5EC29F0B4
:10441000060EEF6EFF0E145D07E1040E186F36EC0A
:1044200028F0070EEF6EA4D0B2EC29F0FF0E155D58
:1044300005E1046905690669076902D059EC29F0AC
:10444000D5EC29F0070EEF6E0301020E6AEC2AF09C
:10445000710E006E590E016E010E026E18C403F04B
:10446000046A056A03AE02D00468056886EC2AF087
:104470000C0E0401185D0DE1A0EC2AF0010E726F24
:10448000830E736F000ED1EC2AF0A0EC2AF055ECED
:104490002AF00401185106E0180504E036EC28F073
:1044A0000B0E04D10B0E195D1BE00301F20E726FAF
:1044B000820E736F000ED1EC2AF04D0E006E590E75
:1044C000016E010E026E19C403F0046A056A03AEA0
:1044D00002D00468056886EC2AF0030155EC2AF046
:1044E00014C4EEF07FEC54F0F350010B08E003012C
:1044F000D90E726F820E736F000ED1EC2AF0030199
:10450000C90E726F820E736F000ED1EC2AF0040197
:1045100018050CE0E868041908E1E868051905E1E8
:10452000E868061902E1E868071907E00301C00E10
:10453000726F820E736F000E0DD00301B70E726F93
:10454000820E736F000ECEEC2AF0B30E726F820EE5
:10455000736F000ECEEC2AF055EC2AF004011651D0
:1045600004E036EC28F0080E02D0EFEC2AF0EF6EF3
:104570000C01CE6BAAD01A0E126F040E136F1651D7
:104580005AE00301A60E726F820E736F000ED1EC1B
:104590002AF0FDEC28F022E0200E0C01CC5D03E1B6
:1045A00003012B0E14D0300ECC5D0FE3CC51390833
:1045B00003E2410ECC5D09E3CC515A0803E2610EDF
:1045C000CC5D03E3CC517A0804E275EC2AF0626F0B
:1045D00002D0CCCC62F3ECEC2AF0DBD703013D0E29
:1045E000626FECEC2AF0FDEC28F01FE0200E0C01CD
:1045F000CC5D03E103012B0EF3D7300ECC5D0FE34E
:10460000CC51390803E2410ECC5D09E3CC515A0884
:1046100003E2610ECC5D03E3CC517A0803E275EC52
:104620002AF0DED7CCCC62F3DCD7030155EC2AF0BC
:1046300004011607A4D7EFEC2AF0EF6E0C01CE6B45
:104640004AD8000909E025EC29F036EC28F00B0ED9
:10465000EF6E0C01010ECE6FC5EC2AF0BAEC28F01B
:1046600034E10C01010ECE6F30D00C01010ECE6F83
:10467000C5EC2AF0E4EC29F0100EF35C000EF458BF
:1046800024E308C400F909C401F90AC402F90BC4FF
:1046900003F9D9EC1BF004010C510D110E110F118F
:1046A00014E10C01CE6BD5EC29F0090EEF6E0DD0A4
:1046B000FF0E145D02E025EC29F0FF0E155D02E00F
:1046C0002CEC29F098EC2AF0EF6A0C01CE5102E1B3
:1046D000EDEF1EF01200C5EC2AF0F3CF02FCF4CF90
:1046E00003FCF3CF04F0F4CF05F0066A076A10EC80
:1046F00029F00401045D086EEE500559096EEE5074
:1047000006590A6EEE5007590B6E0850F35C0950BB
:10471000F4580A5006580B50075807E202CC00F034
:1047200003CC01F0026A036A0DD010EC29F0045D9D
:10473000006EEE500559016EEE500659026EEE50B5
:104740000759036E00C000FC01C001FC0C010050C1
:10475000040100270C01015004010123000E022373
:1047600003230C01000ED8800055000E015530E2E5
:10477000400E005D000E015905E200CCD9F001CCDD
:10478000DAF004D00001400ED96FDA6B0001050E9B
:10479000D76F0C0ED86F14C4D6F0E9EC52F0F3CFFB
:1047A00002FCF4CF03FC0C01F350F41001E1010C06
:1047B00002CC66F303CC67F30301050E646F0C0EA5
:1047C000AFEC2AF00C010251005F0351015BC9D725
:1047D00010EC29F00401041940E1EE5005193DE107
:1047E000EE5006193AE1EE50071937E136E136ECA2
:1047F00028F00A0EEF6E0C6B0D6B0E6B0F6B000149
:10480000D46BD56B14C4D3F0B0EC52F00001040E9D
:10481000D46F0C0ED56F14C4D3F0B0EC52F0000975
:1048200006E0ABEC29F07E0E0C01045DEFE1ABEC91
:1048300029F00001080EDC6F040EDD6F15C4DBF0FB
:1048400037EC53F059EC29F0000907E10401046941
:104850000569066907692CEC29F0000C090105516E
:1048600002E1B5EF24F0050502E13CEF24F0020E71
:10487000055D01E1C9D81200040117BF1200060E40
:10488000B7EC29F0D5EC2AF05CEC2AF0E5EC28F046
:10489000F3CF31FC030E0C013127FC0E3117326BC4
:1048A000240E315D000E325903E3240E316F326B5A
:1048B000330E5B6F0C0E5C6F000ED8803155000E0E
:1048C000325526E2040E03017E6F7F6B5BCC7CF3D6
:1048D0005CCC7DF367EC2AF0030E0601B16FB26B7E
:1048E0005BCCAFF65CCCB0F6040E0601AD6FAE6BE0
:1048F0005BCCABF65CCCACF683EC64F0040E0C0144
:10490000315F000E325B030E5B27000E5C23D4D7B1
:10491000C1EC29F0EF6A316B326B330E5B6F0C0E1A
:104920005C6F280E315D000E32590BE2C1EC29F0AC
:10493000EF503A0806E0312B000E32235B2B5C234C
:10494000F0D7C1EC29F05B2B000E5C23EF6A5BCC47
:1049500004FE5CCC05FE0E01330E026F0C0E036FDD
:104960000DEC2BF00401176F12005CEC2AF03FEC09
:104970002AF010C400F011C401F07E0ED880005659
:10498000040E0156020E005E000E015A0C0100508A
:10499000F35C0150F45802E3F5EF29F00C013351B8
:1049A000341131E088DB3B0EBDEC2AF0F3CF31FC53
:1049B000F4CF32FC0C013351F35C3451F45805E26E
:1049C00031CC7EF332CC7FF304D033CC7EF334CCC5
:1049D0007FF310C47CF311C47DF367EC2AF0E6DBAF
:1049E0000C013351315D3451325908E2C8EC2AF0E0
:1049F00062DB200EBDEC2AF0BDDBF8E05CEC2AF0B7
:104A00003FEC2AF0CBD712005CEC2AF0DEDBF3CFD0
:104A100031FCF4CF32FC0C010A0EF35C000EF458AA
:104A200005E30401020E186FB2EF29F031CC7EF3DA
:104A300032CC7FF30301330E7C6F0C0E7D6F67EC7D
:104A40002AF0F3CF31FCF4CF32FC330E0C01F32407
:104A5000E96E0C0EF420EA6EEF6A330EE66E0C0E71
:104A6000E66EB1EC89F0E552E55226C000F427C0AD
:104A700001F428C002F429C003F4120006C9E6FFBD
:104A800007C9E6FF22EC2AF0F3CF3DFCF4CF3EFC51
:104A900006C93BFC07C93CFC06C939FC07C93AFCFE
:104AA0000C013D513E1142E087EC29F0000E3A2303
:104AB000EFCF3FFC3D073E5B3D0E3F5D03E0260E22
:104AC0003F5D03E14FDBEF6AEBD72B0E3F5D03E168
:104AD00049DB200E25D0250E3F5D24E1020E3D5D11
:104AE000000E3E5903E23D6B3E6BDAD787EC29F0AE
:104AF000000E3A23EFCF41FC87EC29F03A23EFCFA9
:104B000040FC3D073E5B3D073E5B40CCBFF641CCE1
:104B1000C0F6E2EC65F0E66E0C0124DBE552E750EE
:104B2000EF6EBED71FDB3FCCEFFFBAD71BDBEF6AC0
:104B30003BCCE9FF3CCCEAFFEF6A3BCCF3FF3CCC3B
:104B4000F4FF120008C9E9FF09C9EAFFEF5020E0AD
:104B5000C6EC29F00AC9E6FF0BC9E6FF10EC91F09C
:104B6000E552E552E552E55200090DE10AC9E6FFBA
:104B70000BC9E6FF22EC2AF009010851F324006E6C
:104B80000951F42058D30BEC2AF00BEC2AF0DAD7B9
:104B9000F36AF46A12000CC9E9FF0DC9EAFFEF508D
:104BA00027E037DB27C000F028C001F029C002F061
:104BB000002A000E0122022200C0E6FF01C0E6FF2B
:104BC00045EC2AF0E8DB4AEC90F0036E070EE15E5C
:104BD0000350000908E11DDB09010C512724006E78
:104BE0000D51282028D312EC2AF012EC2AF0D3D74A
:104BF000F36AF46A120013C91CF914C91DF911C92A
:104C00001AF912C91BF909013D0E196F46D80C019A
:104C1000806F0901115112110BE011C9E9FF12C98E
:104C2000EAFFEF5005E011C906F912C907F926DFBE
:104C30000C018051120046DB260E196F2ED80C0194
:104C4000806F020E805D17E195EC2AF0C1EC2AF02E
:104C500004010051F3180FE1015101180CE1025158
:104C6000021809E10351031806E105E12BDB196B7A
:104C700014D80C01806F0901155116110BE015C9EC
:104C8000E9FF16C9EAFFEF5005E015C906F916C994
:104C900007F9F4DE0C01805112000901195106E0F8
:104CA000C8DB19C9A1F381DB94DB02D095EC2AF0B3
:104CB000F3CF7EFCF4CF7FFC0C01F31C03E17F1DDE
:104CC00001E1020C0901020E1C5D000E1D5906E2F5
:104CD0001A511B1103E0A8EC2AF038D01A511B110D
:104CE00004E1A8EC2AF00C0143D0FEDA0C017E515D
:104CF000005C7F5101582EE21CC97EF31DC97FF371
:104D00000301020E7E5F000E7F5BB6EC2AF01CC929
:104D100004F01DC905F0020E045E000E055A045091
:104D20000C017E5D03017E6F05500C017F5903016C
:104D30007F6F0301D5EC2AF03BDBD6DA09011A516B
:104D40000024E96E1B510120EA6EEF6A0C01010E8E
:104D50007D6F0FD025DBB6EC2AF009011A510C014A
:104D60007E25E96E09011B510C017F21EA6EEF6A75
:104D70007D6B0901195114E0C8EC2AF0006E016A3C
:104D8000026A036A00AE03D001680268036800503B
:104D90000401005F0150015B0250025B0350035BA2
:104DA0000C017D511200040118510A0A01E185D05D
:104DB000010A66E0020A01E0D4D0CBD9040E53DA2E
:104DC000A10E966F820E976F000E986FEEDAFDD9E6
:104DD000A9DA0C01F31C01E1421D44E041CC7EF351
:104DE00042CC7FF303017C6B7D6BDFDA55DB9ADB12
:104DF000EBDA0A0EF35C000EF45805E20C01412BCD
:104E0000000E4223010C0A0EB2DA310E7C6F0C0E3A
:104E10007D6FCBDA41DB0A0EE66EE66A960EE66E31
:104E2000820EE66E000EE66E310EE66E0C0EA6D910
:104E300015E104010A0E186FDAEC53F00401146F47
:104E4000060E0001E76FE86B0001350EE56F0C0EF2
:104E5000E66F14C4E4F0FAEC53F0020C04010B0EFC
:104E6000186F020C62DBF3CF7EF3F4CF7FF3030104
:104E7000040E7E5F000E7F5B030197DB99DA010C65
:104E800051DBF6D8F3D8EE52EFCF76F332EC05F0E3
:104E9000640E0401005D000E0159000E0259000E5F
:104EA00003595BE3D880000E0055000E0155000E3B
:104EB0000255800E035555E250D034DB33DA61DB06
:104EC000F3500401005DF45001590250025903509F
:104ED000035904E200C441FC01C442FC0C01000E71
:104EE000D8804155000E42552CE2100E415D000E57
:104EF000425905E241CC7EF342CC7FF304D003015A
:104F0000100E7E6F7F6B0301310E7C6F0C0E7D6F78
:104F1000DEDAF3CF43FCF4CF44FCAAD80C01F35003
:104F2000415FF450425BF3CFE7F0F4CFE8F00001CB
:104F3000310EE56F0C0EE66F14C4E4F0FAEC53F09A
:104F4000CDD7040100510111021103110AE1000142
:104F5000010EE96F09EC54F0040188D8070EEF6EDA
:104F6000000C010C04010C510D110E110F1114E174
:104F70001EC9CDF01FC9CEF020C9CFF0B9EC51F059
:104F80000C01446FFF0E445D01E1120044CCF9F0C6
:104F900079EC55F0F1D91AD00CC4D0F00DC4D1F091
:104FA00065EC52F00C01446FFF0E445D01E112000C
:104FB0000001020EE36F0EC4DFF00FC4E0F0000149
:104FC000E16BE26B44CCDEF04BEC53F0DEDAF3CF76
:104FD00000FCF4CF01FC0C01000ED8800055000E3F
:104FE000015538E2400E005D000E015905E200CC8B
:104FF000D9F001CCDAF004D00001400ED96FDA6BA1
:105000000001040ED76F0C0ED86F44CCD6F0E9EC3B
:1050100052F0F3CF02FCF4CF03FC0C01F350F41078
:105020000AE144CCD2F0A5EC52F004010C6B0D6BFC
:105030000E6B0F6B120002CC66F303CC67F3030117
:10504000040E646F0C0E8BDA0C010251005F0351E9
:10505000015BC1D744CCF8F048EC55F026C00EF403
:1050600027C00FF444CCD2F0A5EF52F08351C4D145
:10507000ABD9D8EF29F004C028F005C029F0AEEC78
:105080007FF024C003F025C004F026C005F00050D6
:105090002424F36E01502520F46E02502620F86E71
:1050A000F4CFF7FFF3CFF6FF09001200EE52EFCF77
:1050B0007BF3A8EF05F0BDD9030112003AECABF089
:1050C00026C008F427C009F428C00AF429C00BF44C
:1050D0008A0E04010827F00E09231B0E0A23000E76
:1050E0000B231200EE52EFCF71F3E4EF04F071D90D
:1050F000F3CFC8FCF4CFC9FC1200A4D965D9010EC6
:105100000026000E0122005012003AECABF0040120
:105110000851265C006E09512758016E0A51285823
:10512000026E0B512958036EE834000E031812006A
:10513000EE52EFCF77F341EF05F07F0D22DAFE0E4E
:1051400000261E0E0122000E022203221200EE5142
:1051500053D103019F6B03019D6B9E6B03019B6BFE
:105160009C6B12003BCCE9FF3CCCEAFF3B2B000ED2
:105170003C23120029D9F350F4101200E66E4AECD9
:1051800090F0006E070EE15E005000091200EE5232
:10519000EFCF61F373EF03F0D880000E0054000EE0
:1051A0000154000E0254000E03541200F350040187
:1051B0001027F450112310C4E9FF11C4EAFF102B8B
:1051C000000E1123260EEF6E1200EE52EFCF95F374
:1051D0001BEF08F03FD91A0EE926040EEA22EF5021
:1051E0002F0812007F0E0801D86FD96B0801000E3E
:1051F000D66F040ED76F86EF74F0040112C4E9FF76
:1052000013C4EAFF122B000E1323EFCFCCFCEF5098
:1052100012003BD96DEC91F0E552E552E5521200D7
:10522000000EE96E040EEA6EEE501200EE52EFCF61
:1052300060F335EF03F0016E010E0026000E01222F
:1052400000C0F3FF01C0F4FF120014C4D2F0A5ECBB
:1052500052F004011469120015C4D2F0A5EC52F00A
:105260000401156912000301996F9A6B0301120082
:10527000C82503017E6F000E0C01C92103017F6F59
:1052800003011200A6D850EF2AF00E011B0E006F8A
:10529000040E016FF4EC2AF00401176F12000001F4
:1052A0001B0ECB6F040ECC6F06EC51F00401146F93
:1052B00012000001040EDC6F040EDD6F15C4DBF07C
:1052C00037EF53F017C91CF918C91DF915C91AF998
:1052D00016C91BF909011200EF6A09011A0E066FBF
:1052E000040E076F3EEF25F01CC900F01DC901F048
:1052F000020E005E000E015A1200EE52EFCFB9F31B
:1053000097EF15F0EE52EFCF78F36BEF05F039CC55
:10531000E9FF3ACCEAFF392B1200030E2C6E2D6AFE
:105320002E6A1200F3CF41FCF4CF42FC120000C001
:10533000C1F801C0C2F8F6EF72F0140EE66E830EEB
:10534000E66E000EE66E1200EE52EFCF6EF3C9EC81
:1053500004F0030112000401002B000E01230223BC
:1053600003231200006B016B026B036B120003013D
:105370007E6F7F6B03011200F3CF0CF4F4CF0DF4BA
:1053800012005BCCE9FF5CCCEAFF120008C9E6FF23
:1053900009C9E6FF12000CC9E6FF0DC9E6FF1200BD
:1053A0007ECC7EF37FCC7FF31200040136EF28F031
:1053B000026A036AF3500401005FF450015B02507B
:1053C000025B0350035B1200F3CF00F0F4CF01F057
:1053D0001200EE52EFCFA0F34AEF09F0EE52EFCFFA
:1053E00080F32AEC06F0BAEF28F00401050E186FDE
:1053F0003DDE070EEF6E1200E96EEA6AD890E936DC
:10540000EA367F0EE926040EEA22120086DF03C088
:1054100027F03BEF28F0BADF70DE090108270150C2
:1054200009231200B8DF69DE09010C2701500D23A2
:1054300012000301A66B0301A46BA56B0301A26B11
:10544000A36B12005FEC91F0E552E55212002EDEE4
:1054500038EF28F0CACCE9FFCBCCEAFFE906000E12
:10546000EA5A120094DECCCCC2F60DEC66F00301D1
:105470001200E66E1A0EE66E040EBEEF28F0A5DEF0
:10548000F3CF33FCF4CF34FC12000EC9E6FF0FC992
:10549000E6FF10C9E6FF120009DE44DF38EF28F00E
:1054A000F3CFCAFCF4CFCBFC1200260E726F590E5C
:1054B000736F010ED1EF2AF04CDE020ED4DE260E01
:1054C000966F590E976F010E986FD5EF29F06DDF2B
:1054D00056EF28F0BE6F0301BC6BBD6B010E0301DC
:1054E000BA6FBB6B62DF7DEF29F00301250E626F9F
:1054F00073D8CCCCC1F6FFEC65F00301626F55DFC9
:1055000032EF2AF0A16F51DF77EF28F07FDFF5CF80
:1055100072F30900F5CF73F30800F5CF74F345DF9C
:1055200072EF28F0A3DD98EF28F03FDF98EF28F026
:105530009DDDEE52EFCF50F3A3EC02F0D5EF29F052
:1055400003011A0E6F6F040E706F2FDFA4EF29F0A6
:1055500027DF03017C6B7D6B28DF27EF2AF0656F67
:1055600024DFEE52EFCF63F3C6EF03F01AC97CF3EA
:105570001BC97DF31ADF27EF2AF0A16F16DFE9EFD1
:1055800029F022DF026A036A12000FDF16EF29F00A
:105590000301796B7A6B09DF82EF29F002D80301EE
:1055A0001200746F02DF72EF28F07C6B7D6B67EF87
:1055B0002AF0C8CC7EF3C9CC7FF303011A0E7C6FAE
:1055C000040E7D6F67EF2AF076DD200E82EF2AF061
:1055D00072DD0A0E82EF2AF0E8DEC7EF28F0030141
:1055E00064DFE3DE090E1200070EE66EE66A2A0E9D
:1055F000E66E8F0EE66E000E55EC38F001E1000C01
:10560000040EE66EE66A250EE66E8F0EE66E000E5E
:1056100055EC38F001E1000C800C1F0EE66E8F0E89
:10562000E66E000EE66E02CEE6FF03CEE6FF5CEC11
:1056300038F013E1150EE66E8F0EE66E000EE66E84
:1056400004CEE6FF05CEE6FF30EC91F0016E050ECC
:10565000E15E0150000901E1800C000C140E000114
:10566000F66FF76B0001020EF46F0C0EF56F14C4A9
:10567000F3F01EEC55F0090EE66EE66A0B0EE66ED0
:105680008F0EE66E000EE66E020EE66E0C0EE66EF5
:105690004AEC90F0006E070EE15E0050000917E141
:1056A0000901050E0E6F8F0E0F6F000E106F0901AE
:1056B0001A0E0C6F040E0D6FCBEC25F0F3CF16FC19
:1056C000F4CF17FC0C011651171101E0FF000D0E6D
:1056D000E66EE66AF70EE66E8E0EE66E000EE66E7B
:1056E000020EE66E0C0EE66E4AEC90F0006E070EAF
:1056F000E15E0050000901E0BDD00C011E6B1F6B84
:10570000206B216B0901F20E0E6F8E0E0F6F000ED3
:10571000106F09011A0E0C6F040E0D6FCBEC25F003
:10572000F3CF1CFCF4CF1DFC0C011C511D1167E0D4
:105730000901E90E0E6F8E0E0F6F000E106F09013A
:105740001A0E0C6F040E0D6FCBEC25F0F3CF1AFC84
:10575000F4CF1BFC0C01226B236B0C010C011A51C2
:105760000C012225E96E0C010C011B510C012321B7
:10577000EA6EEF503AE00C010C011A510C0122259F
:10578000E96E0C010C011B510C012321EA6EEF5054
:10579000D00F006E016A026A036A1ECC26F01FCC8D
:1057A00027F020CC28F021CC29F00A0E2B6E2C6A91
:1057B0002D6A2E6AD2ECACF02250000100240C01BC
:1057C0001E6F2350000101200C011F6F24500001A7
:1057D00002200C01206F2550000103200C01216FD5
:1057E0000C01222B000E2323B8D71ECCFBF61FCCB6
:1057F000FCF620CCFDF621CCFEF6F0ECABF0090176
:10580000E40E0E6F8E0E0F6F000E106F09011A0E50
:105810000C6F040E0D6FCBEC25F0F3CF1CFCF4CF16
:105820001DFC0C011C511D1125E00C010A0E246FFA
:105830000D0E256F266B0901240EB46F0C0EB56F8B
:10584000A2ECA8F00901DC0E0E6F8E0E0F6F000E99
:10585000106F09011A0E0C6F040E0D6FCBEC25F0C2
:10586000F3CF18FCF4CF19FC18CCB4F919CCB5F966
:10587000A2ECA8F00C0EE66EE66ACF0EE66E8E0E77
:10588000E66E000EE66E020EE66E0C0EE66E4AEC5A
:1058900090F0006E070EE15E0050000901E00ED1AD
:1058A0009BCF34FC9B6A0901F20E0E6F8E0E0F6FB8
:1058B000000E106F09011A0E0C6F040E0D6FCBEC69
:1058C00025F0F3CF27FCF4CF28FC0C012751281139
:1058D00040E00901C50E0E6F8E0E0F6F000E106FA7
:1058E00009011A0E0C6F040E0D6FCBEC25F0F3CFEF
:1058F00029FCF4CF2AFC0B01306B0C01356B366BA5
:105900000C010C0129510C013525E96E0C010C012B
:105910002A510C013621EA6EEF501BE00C010C01FC
:1059200029510C013525E96E0C010C012A510C019D
:105930003621EA6EEF50D00F006E0A0E0B013003D5
:10594000F35000240B01306F0C01352B000E362371
:10595000D7D70901BD0E0E6F8E0E0F6F000E106FA0
:1059600009011A0E0C6F040E0D6FCBEC25F0F3CF6E
:1059700027FCF4CF28FC27CCF5F928CCF6F92AEC43
:1059800092F026C02BFC27C02CFC0901DC0E0E6F08
:105990008E0E0F6F000E106F09011A0E0C6F040EA1
:1059A0000D6FCBEC25F0F3CF27FCF4CF28FC27CCF0
:1059B000F5F928CCF6F92AEC92F026C02DFC27C088
:1059C0002EFC0901B70E0E6F8E0E0F6F000E106FBA
:1059D00009011A0E0C6F040E0D6FCBEC25F0F3CFFE
:1059E00027FCF4CF28FC27CCF5F928CCF6F92AECD3
:1059F00092F026C033FC0901B20E0E6F8E0E0F6FAF
:105A0000000E106F09011A0E0C6F040E0D6FCBEC17
:105A100025F0F3CF27FCF4CF28FC0C0127512811E7
:105A200029E00C013351040803E20C01040E336F2A
:105A30000C0133510901A66FA76B09012F0EA46F4A
:105A40000C0EA56F2DCCA2F92ECCA3F92BCCA0F96E
:105A50002CCCA1F922ECA7F033CCF4F90901E30E28
:105A6000F26F080EF36F09012F0EF06F0C0EF16F3D
:105A7000F8EC91F00901AC0E0E6F8E0E0F6F000E58
:105A8000106F09011A0E0C6F040E0D6FCBEC25F090
:105A9000F3CF27FCF4CF28FC0C01275128110CE090
:105AA00033CC9FF92DCC9DF92ECC9EF92BCC9BF9B4
:105AB0002CCC9CF9F8ECA6F034CC9BFF0C0EE66ED7
:105AC000E66A9F0EE66E8E0EE66E000EE66E020E23
:105AD000E66E0C0EE66E4AEC90F0006E070EE15E8C
