:020000040000FA
:10000000A3EF46F01200FFFF64EF2DF01200FFFF98
:10001000FFFFFFFFFFFFFFFF3EEF2DF01200FFFF8E
:10002000FFFFFFFFFFFFFFFFFFFF0E00B98D000086
:10003000C704000001000000B88D0000C6040000E5
:1000400001000000B78D0000C504000001000000A1
:10005000B48D0000B604000003000000B08D000065
:10006000B204000004000000AF8D0000C4040000D2
:1000700001000000AD8D0000BF0400000200000080
:10008000AC8D0000C304000001000000717A000084
:10009000C204000001000000AA8D0000BD040000A1
:1000A00002000000A68D0000FC010000040000001A
:1000B0009C8D0000900400000A0000009A8D000052
:1000C000BB04000002000000908D000086040000C8
:1000D0000A000000030145510401BD5D01E1120069
:1000E000FE0EBD5D0CE01C0EE66EE66A290EE66EA5
:1000F000030EE66EBD51AEEC18F02DEC19F045C3C1
:10010000BDF4FE0E0301455D01E112001C0EE66E1A
:10011000E66A4551AEEC18F0290EE66E030EE66E67
:100120002DEF19F00401BD51BE5D01E11200FE0E7C
:10013000BE5D21E0270E0301C56FC66B0301010EF2
:10014000C46F0301020EC26F030EC36F040117ECEC
:1001500019F01B0E9AEC1AF0EFCFC1F317EC19F05F
:10016000EECFBFF3EFCFC0F30301270EBF5F000E4A
:10017000C05B15EC16F0BDC4BEF4270E11EC19F0EF
:1001800029C3C2F32AC3C3F30301C25F000EC35BDA
:1001900052EC1AF0020EBF6F030EC06F15EF16F08F
:1001A0000C01C00E1D6F100E1E6F030100510111D6
:1001B0000FE1AFEC21F006C000F307C001F3FF0E22
:1001C00003010017070E0117000E0027040E01237C
:1001D0003C0EE66EE66AE66A430EE66E0E0EE66ECC
:1001E000D4EC3EF0146E050EE15E14500C01156B5C
:1001F000146B1451D7EC16F001E38ED014CC45F3F8
:1002000069DF2EEC17F067EC17F0F62A000EF722E4
:10021000F8220800F5CF1CFC2EEC17F067EC17F065
:10022000020EF626000EF722F8220900F5CF16FC82
:100230000A00F5CF17FC2EEC17F01CEC1BF0040E97
:10024000F626000EF722F8220900F5CF18FC0A0066
:10025000F5CF19FC0C011C5128E11DCC1AFC1ECC59
:100260001BFC270E176A1625166E1751172255EC20
:100270001AF016501825146E17501921C2EC1AF0F6
:1002800014501D2715501E231DCC14F01ECC15F044
:10029000166A176AD880FC0E14541F0E1554000EEF
:1002A0001654000E175402E2EFD7FFD71CCC44F3CC
:1002B000270E0C011A250301296F000E0C011B21CA
:1002C00003012A6F29510C01162503012B6F2A51B6
:1002D0000C01172103012C6F010E2B27000E2C237C
:1002E0002B510C01182503012D6F2C510C011921E4
:1002F00003012E6F0D0E3F6F409714DF2EEC17F0A9
:1003000004C017F01CEC1BF00800F5CF28F3A5EC97
:100310000FF00C01142B6DD712000C01376B375105
:10032000D7EC16F001E390D037CC45F3D3DE0D0EB9
:1003300003013F5D01E085D0F5DE03014D51285DED
:1003400001E07FD0180E256F020E266F4A510CE196
:100350004BC312F34CC313F34087040E3F6F4BC3E0
:1003600042F34CC343F36AD0000E005D040E015902
:1003700006E3880ED8800055130E015503E2006B8A
:10038000040E016F00C312F301C313F3002B000E20
:1003900001234BC310F34CC311F39EEC1AF003017D
:1003A00040894A51040A25E0070A11E0020A02E0E6
:1003B000030A44E162EC19F0020E4A5D02E0000E0D
:1003C00001D0010E2495E8B024853F6B37D0485109
:1003D0004625166E49514721B9EC18F062EC19F028
:1003E000276B270E026F036B046B056B020E3F6FCA
:1003F00025D046C3E9FF47C3EAFF6BEC19F046C3BB
:10040000E9FF47C3EAFF1850EE24166E1950EE209C
:10041000B9EC18F00A0EE66EE66A46C3E6FF47C37B
:10042000E6FFD8EC19F0A4EC18F00301050E3F6FBD
:10043000D5EC1AF0020EAD6FDDEC0BF00C0137516C
:1004400012000C01372B6BD7FE0C03014E51D7EC79
:1004500016F001E3010C4EC345F33CDE030141A954
:1004600002D04199010C000C03014F51D7EC16F05A
:1004700001E3000C4FC345F32DDE070E03013F5D82
:1004800001E0000C010C03015051D7EC16F001E320
:10049000120050C345F305EC1AF003013F51080A5E
:1004A00038E0010A36E0050A34E0020A2FE0050AC6
:1004B0001FE00D0A0FE0010A0DE0070A31E0020A11
:1004C0002FE0010A2DE0060A2BE0040A22E1E7EC06
:1004D00029F026D0A0EC18F003011451151106E004
:1004E0000E512F19F7E10F513019F4E1080E0FD01A
:1004F000A0EC18F003011451151106E00E512F194C
:10050000F7E10F513019F4E10C0E01D00D0E3F6FE1
:1005100012000301AE6B0301140EAD6FDDEC0BF0A6
:10052000A5EF0FF003015151D7EC16F001E31200D3
:1005300051C345F3CFDD0301409751C350F343EF5F
:1005400002F003015251D7EC16F003E3F36AF46AA8
:10055000120052C345F35AEC1AF00A0EE66EE66A30
:10056000D8EC19F0530EE66E030EE66EA4EC18F00C
:1005700010C35DF311C35EF3530E146E030EA7EFA9
:1005800017F003015F51D7EC16F001E312005FC3CF
:1005900045F35AEC1AF003010E512F1902E10F51E5
:1005A000301902E060EC17F0120003016051D7EC43
:1005B00016F00CE260C345F38DDD3FC304FC070E6B
:1005C0000C01045D06E00B0E045D03E0F36AF46ABF
:1005D0001200030131512F5D3251305916E3295178
:1005E0002B5D166E2C512A55176E1606000E175AE3
:1005F00031512F5D186E30513255196E1850165CFE
:10060000146E19501758A7EF17F02F51315D146E63
:1006100032513055156E1406000E155A14C0F3FFF2
:1006200015C0F4FF120003016151D7EC16F001E38D
:10063000000C61C345F34EDD61C360F3B6DFF3CF59
:1006400028FCF4CF29FC0C01F350F41001E1000C5C
:10065000010E281904E1295102E15EEC1AF00301B0
:100660004151010B0CE10EEC1BF00C012851145C04
:100670002951155804E35EEC1AF003014181010E83
:100680000301C56FC66B0301C46F0301620EC26F25
:10069000030EC36FECEC1AF003012F2B000E302376
:1006A0002B512F5D2C51305902E345EC19F00C0110
:1006B000010E281905E1295103E15EEC1AF0010C45
:1006C000030140BB02D064EC17F0010C0C013B6B42
:1006D0003C6B03016351D7EC16F010E263C345F3A2
:1006E000F9DC63C360F361DFF3CF39FCF4CF3AFC8C
:1006F0000C01F350F41005E162EC1AF0F36AF46AAD
:10070000120039CC37FC3ACC38FCE7EC19F004E2A3
:1007100066C337FC67C338FC4151010B0CE10EEC9A
:100720001BF00C013951145C3A51155804E362EC8A
:100730001AF00301418103012F510C013725146E7A
:10074000030130510C0138210CEC1AF01EE32F513B
:100750002B5D0C013B6F030130512C590C013C6F98
:100760003BCCC5F3E8CFC6F321EC18F00C013B51AC
:10077000030164270C013C51030165230C013B512B
:10078000375F3C51385B45EC19F037CCC5F338CCBA
:10079000C6F321EC18F00C01375103012F270C018F
:1007A0003851030130230C01E7EC19F003E362EC4C
:1007B0001AF004D040BB02D064EC17F00C013751A2
:1007C0003B25146E38513C21A7EF17F00C012C6B20
:1007D0002D6B03016851D7EC16F010E268C345F3A6
:1007E00079DC68C360F3E1DEF3CF2AFCF4CF2BFCA5
:1007F0000C01F350F41005E166EC1AF0F36AF46AA8
:10080000120003014151010B0CE10EEC1BF00C0135
:100810002A51145C2B51155804E366EC1AF00301BD
:1008200041812ACC28FC2BCC29FC72EC19F004E283
:100830006CC328FC6DC329FC2F510C012825146EB4
:10084000030130510C0129210CEC1AF022E32F5145
:100850002B5D0C012C6F030130512C590C012D6FB5
:100860002CCCCDF3E8CFCEF367EC18F02CCC14F001
:100870002DCC15F0166A14500301692715506A2310
:1008800016506B230C012C51285F2D51295B45EC30
:1008900019F028CCCDF329CCCEF367EC18F00C017D
:1008A000285103012F270C0129510301302372EC39
:1008B00019F003E366EC1AF004D040BB02D064ECFC
:1008C00017F00C0128512C25146E29512D21A7EF6A
:1008D00017F06FC3E6FF70C3E6FFEEEC3EF0E552A3
:1008E000E552F3CF66F3F4CF67F36FC364F370C3DD
:1008F00065F36EC363F3EADE03016F51F324146EF4
:100900007051F420A7EF17F072C3E6FF73C3E6FF40
:1009100074C3E6FFFCEC3EF0E552E552E55207C039
:100920006CF308C06DF372C369F373C36AF374C3E5
:100930006BF371C368F34ADF196A03017251F32440
:10094000146E7351F420156E74511920166E14C074
:1009500007F015C008F0096E120003017551D7ECBD
:1009600016F003E3F36AF46A120075C345F36AEC08
:1009700000F0030129512B5D0C01026F03012A5184
:100980002C590C01036F010E025F000E035B75C34F
:1009900060F30BDE0C01F350025D146E0351F4544E
:1009A000A7EF17F076C377F30CD843EC1BF0F350A6
:1009B000F41006E076C345F305EC1AF060EC17F08E
:1009C000120003017751D7EC16F003E3F36AF46ADF
:1009D000120077C345F36AEC00F0C6EC19F006E3A9
:1009E0003551335D146E3451365513D035512D5D6C
:1009F000166E2E513655176E55EC1AF02B51335D8D
:100A0000186E34512C55196E16501824146E175048
:100A10001920A7EF17F078C377F3D3DFF3CF00FCEB
:100A2000F4CF01FC0C01F350F41001E1000C78C389
:100A300045F36AEC00F0030179517A110FE0010EE1
:100A400011EC19F035C3C2F336C3C3F30301C16F10
:100A500079C3BFF37AC3C0F315EC16F00301352B4D
:100A6000000E362335512D5D36512E5902E26AECC7
:100A70001AF00C01010E001905E1015103E1030117
:100A80004185010C030140BB02D0C1EC17F0010C01
:100A90000C01026B036B7BC377F393DFF3CF00FC96
:100AA000F4CF01FC0C01F350F41003E1F36AF46A93
:100AB00012007BC345F36AEC00F003017E510C0188
:100AC000005D03017F510C01015904E200CC7EF36B
:100AD00001CC7FF3030135517E25146E36517F2101
:100AE000CCEC19F029E235512D5D0C01026F0301A8
:100AF00036512E590C01036F010E0227000E0323FD
:100B000003017C517D110EE002CCC5F303CCC6F38A
:100B10002AEC18F00C01025103017C270C0103514F
:100B200003017D230C01025103017E5F0C0103517F
:100B300003017F5B6AEC1AF07C517D1106E07EC3F5
:100B4000C5F37FC3C6F32AEC18F003017E513527A5
:100B50007F5136230C01025103017E270C01035102
:100B600003017F237E510C01005D146E01510301CE
:100B70007F55156E14507E5D15507F5902E34185F7
:100B800004D040BB02D0C1EC17F07EC3F3FF7FC39B
:100B9000F4FF120003018051D7EC16F003E3F36A6F
:100BA000F46A120080C345F36AEC00F003012B5194
:100BB0002D5D0C01026F03012C512E590C01036FA6
:100BC00080C377F3FEDE0C01F350025D146E035117
:100BD000F454A7EF17F003018151D7EC16F003E2AC
:100BE0008451851103E1F36AF46A120081C345F36D
:100BF0006AEC00F081C377F3E4DEF3CF02FCF4CFBC
:100C000003FC030186518425146E87518521156EDE
:100C10000C011450F35C1550F4580BE2030186519B
:100C20000C01025D0301846F87510C01035903011C
:100C3000856F0301355186250C01006F0301365184
:100C400087210C01016F005103012D5D0C01015141
:100C500003012E5906E258EC17F00C01005F155005
:100C6000015B0C01005103012D5D0C01046F01516A
:100C700003012E590C01056F010E0427000E0523F8
:100C8000030184510C01045D030185510C010559D8
:100C900007E384C3C5F385C3C6F3C0EC18F022D0C4
:100CA00004CCC5F305CCC6F3C0EC18F015EC16F077
:100CB0000C0104510301845D0301C56F0C01055152
:100CC000030185597BEC19F060EC1BF003018251A4
:100CD0000C0104250301BF6F030183510C010521A1
:100CE0000301C06F15EC16F084C3F3FF85C3F4FF56
:100CF000120089C386F38AC387F3010E0301846F50
:100D0000856B0301060E826F0C0E836F88C381F31F
:100D100062DF0C010651120003018B51D7EC16F073
:100D200003E28E518F1103E1F36AF46A12008BC360
:100D300045F36AEC00F08BC377F343DE0301905177
:100D4000F35C0C01026F03019151F4580C01036F25
:100D500084EC19F001E205D10301925193110DE0E9
:100D60000C0102510301925D0C01035103019359DF
:100D700004E292C302FC93C303FC355190250C019D
:100D8000066F0301365191210C01076F06510301D3
:100D90002D5D0C01075103012E5906E258EC17F0A6
:100DA0000C01065F1550075B06CC00FC07CC01FC6C
:100DB0000C01065103012D5D0C01046F0751030165
:100DC0002E590C01056F010E0427000E052390C358
:100DD00006FC91C307FC8EC308FC8FC309FC8CC3BF
:100DE0000AFC8DC30BFC03018CC3E9FF8DC3EAFF32
:100DF0008C2B8D23EFCF0DFC0C010F6B0301945155
:100E000009E0610E0C010D5D05E30D517A0802E366
:100E1000E00E0D270C01200E0E6FE850045D000E51
:100E2000055902E204CC0EFC0E51025D000E03597E
:100E300002E202CC0EFC0E5111EC19F000CCC2F310
:100E400001CCC3F352EC1AF0100EBF6F0C0EC06F42
:100E500015EC16F00C010E515EEC19F00027155040
:100E600001230E515EEC19F0045F1550055B04512F
:100E7000051106E12BC300FC2CC301FC04690569C4
:100E8000030194513EE00C010C6B0E510C5D5FE2CE
:100E9000F7EC17F0EFCF14F0610E145C0BE3F7ECF6
:100EA00017F0EF507A0806E3E00E146EF7EC17F037
:100EB0001450EF26F7EC17F0EF500D5D0EE113EC38
:100EC0001AF02CE0CCEC18F0610E0D5D18E30D511A
:100ED0007A0815E3E00E0D2712D008CC8EF309CC6A
:100EE0008FF30F510CE075EC18F0610E0C010D5DE5
:100EF00005E30D517A0802E3E00E0D270F6B0C2B72
:100F0000C4D70C010C6B0E510C5D21E2F7EC17F00D
:100F1000EF500D5D10E113EC1AF00AE10C010851DD
:100F2000065D166E07510955176E0C5137EF18F014
:100F3000CCEC18F00AD008CC8EF309CC8FF30F510B
:100F400004E075EC18F00C010F6B0C2BDCD70C01D6
:100F50000E515EEC19F0025F1550035B84EC19F042
:100F600003E2F368F46812000E515EEC19F00627F4
:100F7000155007234FD703019551D7EC16F003E224
:100F800099519A1103E1F36AF46A120095C345F38B
:100F90006AEC00F095C377F314DD03019B51F35C19
:100FA0000C01026F03019C51F4580C01036F8DEC8E
:100FB00019F001E205D103019D519E110DE00C01D4
:100FC000025103019D5D0C01035103019E5904E28E
:100FD0009DC302FC9EC303FC35519B250C01066F8B
:100FE000030136519C210C01076F065103012D5D51
:100FF0000C01075103012E5906E258EC17F00C01C1
:10100000065F1550075B06CC00FC07CC01FC0C0109
:10101000065103012D5D0C01046F075103012E5988
:101020000C01056F010E0427000E05239BC306FC6F
:101030009CC307FC99C308FC9AC309FC96C30AFC2D
:1010400097C30BFC98C30CFC030196C3F6FF962BC9
:1010500097C3F7FFF4EC1AF0106B03019F5109E0FE
:10106000610E0C010E5D05E30E517A0802E3E00EFD
:101070000E270C01200E0F6FE850045D000E05597D
:1010800002E204CC0FFC0F51025D000E035902E294
:1010900002CC0FFC0F5111EC19F000CCC2F301CCC3
:1010A000C3F352EC1AF0110EBF6F0C0EC06F15ECAB
:1010B00016F00C010F515EEC19F0002715500123BA
:1010C0000F515EEC19F0045F1550055B04510511DA
:1010D00006E12BC300FC2CC301FC04690569030174
:1010E0009F513EE00C010D6B0F510D5D5FE2FEEC78
:1010F00017F0EFCF14F0610E145C0BE3FEEC17F069
:10110000EF507A0806E3E00E146EFEEC17F0145070
:10111000EF26FEEC17F0EF500E5D0EE11AEC1AF020
:101120002CE00AEC18F0610E0E5D18E30E517A08FF
:1011300015E3E00E0E2712D008CC99F309CC9AF3F0
:1011400010510CE0ACEC17F0610E0C010E5D05E3E4
:101150000E517A0802E3E00E0E27106B0D2BC4D758
:101160000C010D6B0F510D5D21E2FEEC17F0EF50FD
:101170000E5D10E11AEC1AF00AE10C010851065D4F
:10118000166E07510955176E0D5137EF18F00AEC1E
:1011900018F00AD008CC99F309CC9AF3105104E066
:1011A000ACEC17F00C01106B0D2BDCD70C010F51C0
:1011B0005EEC19F0025F1550035B8DEC19F003E251
:1011C000F368F46812000F515EEC19F00627155011
:1011D00007234FD7A6C394F3A4C392F3A5C393F3F5
:1011E000A2C390F3A3C391F3010E03018E6F8F6B23
:1011F0000301A10E8C6F030E8D6FA0C38BF38CEFD8
:1012000006F00C013D6B3D51D7EC16F001E309D21D
:101210003DCC45F36AEC00F00C01406B3E6B3F6B3C
:1012200003014151020B03E14151040B0EE03FEC7D
:1012300026F000090AE00C01100E406F0301415135
:10124000040B01E0010E0C013E6F030140AB11D015
:1012500004EC44F0030106503B5D146E07503C590A
:10126000156EE83402E26FEC1AF003E30C01100E85
:10127000406F030140AD09D022EC19F002E26FEC9F
:101280001AF003E30C01100E406F0B0E03013F5DDB
:101290000CE122EC19F002E26FEC1AF006E30C010B
:1012A000110E406F03010C0E3F6F040E3F5D53E1C2
:1012B0000C01416B426B030E415D000E42594BE243
:1012C00094EC1AF048EC1BF046E094EC1AF0ABEC0E
:1012D00018F01CEC18F003014251141837E1435187
:1012E000151834E192EC00F00A0EE66EE66A94EC12
:1012F0001AF096EC19F0D8EC19F086EC3EF0060ED8
:10130000E15E94EC1AF074EC1AF0EECF10F3EDCF2E
:1013100011F394EC1AF00C0E9AEC1AF0EECF0AF3DB
:10132000EECF0BF3EECF0CF3EFCF0DF303010A2B4F
:101330000B230C230D23D8EC17F00C01120E406F79
:101340000301060E3F6FDEEC16F005D00C01412BB9
:10135000000E4223B0D70C0140510AE03E5102E09A
:10136000000E01D0010E0301AE6F40CCADF325DAC3
:10137000030140B92FD0070E3F5D01E04FD1E4ECEF
:1013800017F001E04BD103014051070B060816E1AD
:101390004051080B01E0010E0C01406F3DCC50F3B1
:1013A00043EC02F03DCC50F343EC02F00C01405111
:1013B00001E034D103010E0E3F6F30D192EC00F00A
:1013C0000301020EAE6F0301100EE9EC1AF023ECDC
:1013D00017F024D1E4EC17F001E020D192EC00F0FA
:1013E00003013F510C0A01E1CDD0060A01E1C4D04E
:1013F000030A01E1D0D0010A01E1BAD00F0A01E1EC
:10140000AED00C0A01E1ABD00D0A01E19DD0030A78
:1014100001E187D0060A5AE0010A48E0030A21E008
:10142000010A01E0BDD0E2EC29F0000901E1B8D0E9
:101430000301010E3F6F24A50BD00301E56F18C314
:10144000E2F319C3E3F31AC3E4F314EC2AF0A8D0CF
:101450000301E16F18C3DFF319C3E0F3F4EC29F0E3
:101460009FD00301430EE66F0C0EE76F37EC2AF0B6
:10147000000901E195D0E7EC29F0000913E043CC25
:1014800018F344CC19F345CC1AF346CC1BF30301F3
:10149000020E3F6FD8EC17F0276B270E026F036B1D
:1014A000046B50D023EC17F03F6B7AD004EC44F07F
:1014B00006C03BF307C03CF30001180EF06F030EAB
:1014C000F16F4BEC31F00301030E29D000011C0E2B
:1014D000F46F030EF56F0001180EF26F030EF36F39
:1014E00078EC31F0000915E104EC44F003013B51C4
:1014F000065C146E3C510758156E1450025D155071
:1015000003594EE2060E275D02E221EC1AF0020EAC
:1015100006D00C01020E406F3E6B0301050E3F6FBB
:101520003FD00C01020E406F010E3E6F040E03010E
:10153000275D36E3040E276F200E026FEF0E036F58
:10154000090E046F056B2CD0020E275D03E20C011F
:10155000120E1DD040B71FD00C01020E07D0050E91
:10156000275D0DE3080E3F6F0C01110E406F18D080
:10157000050E275D10E209D0050E275D0CE20C0177
:10158000100E05D0050E275D06E20C01110E406F0E
:10159000010E3E6F05D00C01140E406F010E3F6F1F
:1015A0000C01405136E03E512EE0030121EC1AF0CF
:1015B00031510E5D0C01416F030132510F590C0185
:1015C000426F0301DDEC19F007E24DEC17F0145007
:1015D0000C0141271550422341CC14F042CC15F0A8
:1015E000166A176A14500301EDEC18F00C01415112
:1015F000030114270C0142510301152377EC1AF063
:101600000301AE6B03D00301010EAE6F40CCADF30E
:10161000D4D80C013F5102E0A5EC0FF00C013D2B9A
:10162000F2D5416B426B030E415D000E42592FE231
:1016300094EC1AF048EC1BF001E1120094EC1AF063
:101640007CEC1AF0F5EC18F016C0E6FF17C0E6FFC8
:1016500004EC44F0E552E7CF17F0E552E7CF16F07F
:101660001650065C146E17500758156EDC0ED880A5
:101670001454010E155406E2DEEC16F00C0141077D
:10168000000E425B0C01412B000E4223CCD712000E
:10169000A7C3E9FFA8C3EAFFEECF3CFCEECF3DFCB9
:1016A000EECF3EFCEFCF3FFCA9C3E9FFAAC3EAFFA0
:1016B000EECF40FCEECF41FCEECF42FCEFCF43FC3F
:1016C0000C01446B060E456FABC346FCACC347FC34
:1016D000ABC37AF0ACC37BF011EC24F0F3CF46FC43
:1016E000F4CF47FC0C0E0001826F836B00013C0EAF
:1016F000806F0C0E816F2CEC24F0F3CF48FCF4CFFC
:1017000049FC0C01481F491FABC31AF4ACC31BF4BE
:10171000DCEC27F0F3CF4AFCF4CF4BFC0C01F35088
:10172000481948E14B51491945E10401606B616B6F
:1017300021EC3EF0140E0401246F256B0401280EE9
:10174000226F0C0E236F08EC29F00301280EB36FF3
:101750000C0EB46FB9DB0C01345113EC1BF0040D0B
:10176000F35028EC1AF014C04CFC1450146E156A97
:10177000E8500301AB5DAB6F1550AC59AC6F140E64
:10178000AB5F000EAC5BA7C3B1F3A8C3B2F3030118
:10179000280EAF6F0C0EB06F5CDA00090BE0ABC324
:1017A000B7F3ACC3B8F30301280EB56F0C0EB66FD8
:1017B00044EC10F052EC26F0010C92EC00F0030126
:1017C000ADA102D04187AD91409B409D409F419388
:1017D000419541913FEC26F00009FCE0060E030123
:1017E000AD1504E00C01266B276BB3D00E512F19F9
:1017F00007E10F51301904E10C01266B276B91D0E2
:101800002F510E5D30510F591FE20E512F5D0C010B
:10181000266F03010F5130594AEC19F004E214C34A
:1018200026FC15C327FC9FEC19F005E225C326FC16
:1018300026C327FC418526CCC5F327CCC6F342EC52
:1018400018F0A8EC19F06DD00E512B5D0C01246F2F
:1018500003010F512C590C01256F245103012F2531
:10186000146E0C01255103013021156E2951145CB1
:101870000C01266F03012A5115584AEC19F004E2B5
:1018800014C326FC15C327FC9FEC19F005E225C301
:1018900026FC26C327FC41850C012451265D2551D9
:1018A000275904E226CC24FC27CC25FC24CCC5F304
:1018B00025CCC6F342EC18F00C012451265D246FB0
:1018C00025512759256F2451251122E024CCC5F339
:1018D00025CCC6F344C3C4F329C3C2F32AC3C3F35C
:1018E0000301C16B03010E512B5D146E2C510F557A
:1018F000156E166A176A050E14260B0E1522000EB9
:101900001622172214C0BFF315C0C0F315EC16F051
:10191000A8EC19F02B510E5D2C510F5902E322EC6B
:101920001BF0030141A715D014510C01261904E145
:10193000030115510C0127190CE0030125510C017D
:10194000261904E1030126510C01271902E00301C5
:10195000AD810C012651271104E1030E0301AD15E1
:101960001CE00C0126510301145F0C0127510301F7
:10197000155B0C012651271102E00301AD8703011D
:10198000AEA107D0276BF20E026F9E0E036F046BA1
:10199000056B51EC18F0408929D0AEA319D0400E48
:1019A000E96E030EEA6EEF50070BE82AE850070BCA
:1019B000F36EF46EF80EEF14F310EF6E0607000EE0
:1019C000075B085B095B010E0C01266F276B0ED0CD
:1019D00040A90CD0AEB108D0275106E02707D89017
:1019E000053304330333023351EC18F012C302FC05
:1019F00013C303FC10C304FC11C305FC06C306FC9F
:101A000007C307FC08C308FC09C309FC0AC30AFC96
:101A10000BC30BFC0CC30CFC0DC30DFC0C010E9195
:101A20000E930E950E97ADC30FFC146B156B2651DC
:101A3000030106270C01275103010723000E082389
:101A40000923ADA315D0ADB905D00C010A6B0B6B02
:101A50000C6B0D6B030124A306D00C010607075B7A
:101A6000085B095B05D0062B072308230923248381
:101A70000301ADB124813551335D365134590AE348
:101A8000D9EC18F00C011650145C106F1750155853
:101A9000116F0DD03351355D0C01106F03013451BE
:101AA00036590C01116F010E105F000E115B78ECBE
:101AB00026F0F3CF00FCF4CF01FC0C01400EF35CE8
:101AC000000EF45803E2006B016B04D0400E005F7F
:101AD000000E015B1051005D1151015904E200CC70
:101AE00010FC01CC11FC0301020EB36F0C0EB46F9D
:101AF000EBD9140E0C012627000E27230E890E9B0E
:101B00000E8D0E9F0301ADA323D0040E0C012627DA
:101B1000000E2723020E166F040E176F020E186FA9
:101B2000180E196F010E146E0E0EE96E0C0EEA6E91
:101B3000EF5013EC1BF014240F0BF36EF46EF3460E
:101B4000F346F346F3460F0EEF14F310EF6EF45026
:101B500000CE1AFC01CE1BFC02CE1CFC03CE1DFCE9
:101B600018C31EFC19C31FFC1AC320FC1BC321FC95
:101B70000C01226B060E236F26CC24FC27CC25FCFF
:101B800026CC7AF027CC7BF011EC24F0F3CF24FCA8
:101B9000F4CF25FC0C0E0001826F836B00011A0E3E
:101BA000806F0C0E816F2CEC24F0F3CF12FCF4CF7D
:101BB00013FC0C01121F131F0401DD0E126F0A0E1D
:101BC000136F9CEC27F026CC5EF427CC5FF4040165
:101BD000060E5D6F0401180E5B6F030E5C6FAEECBA
:101BE0003DF0140E7FEC1AF0020E276F0C0E286FDA
:101BF0002CEC29F00301ADA309D0040E7FEC1AF000
:101C0000160E276F0C0E286F2CEC29F00401F10E34
:101C1000146F0A0E156FA9EC27F026CC1AF427CC06
:101C20001BF4DCEC27F0F3CF00FCF4CF01FC040143
:101C3000010E126F0B0E136F9CEC27F0020E7FEC5F
:101C40001AF0000E276F0C0E286F2CEC29F073EFA2
:101C500027F054EC17F0EE50ED1001E1000C0C01F0
:101C6000FE0E016FE2EC19F06BEC19F0E2EC19F0EA
:101C70001850EE24166E1950EE20176EB8EC1AF0BC
:101C80001650EE24146E1750EE20156E54EC17F01B
:101C90001450EE18026F1550EE18036F006B0051D0
:101CA000D7EC16F048E200CC45F36AEC00F00D0EDC
:101CB00003013F5D3DE0040E3F5D0BE119EC1BF0BD
:101CC0001450421935E11550431932E100CC01FCA2
:101CD0002FD00C010251030142192AE10C010351DA
:101CE0000301431925E192EC00F019EC1BF003010C
:101CF000125114181DE1135115181AE1B8EC1AF01D
:101D0000F5EC18F01051161813E11151171810E1E5
:101D1000E2EC19F0EE5018190BE1EE50191908E138
:101D2000EE501A1905E1EE501B1902E101E1010C18
:101D30000C01002BB4D7FE0E015D21E001CC45F370
:101D40005AEC1AF0FE0E0C01015D19E002CC42F3D0
:101D500003CC43F3EFEC19F0D8EC19F0A4EC18F035
:101D6000B8EC1AF0EECF10F3EDCF11F354EC17F0FE
:101D7000EECF12F3EDCF13F384EC1AF0010CB8ECB4
:101D80001AF00D0E9AEC1AF0EF50020B01E1000C64
:101D90000E017B517C1101E0000C0C01046B056B02
:101DA000030E045D000E05593BE28EEC1AF048EC80
:101DB0001BF036E08EEC1AF0ABEC18F01CEC18F0CF
:101DC00054EC17F0F5EC18F01650141824E11750E5
:101DD000151821E18EEC1AF074EC1AF01CEC18F0D6
:101DE000B8EC1AF0F5EC18F01650141814E117506E
:101DF000151811E1E2EC19F064EC1BF0EE50000153
:101E0000141808E1EE50151805E1EE50161802E11D
:101E1000EE50171848E00C01042B000E0523C0D724
:101E2000006B0051D7EC16F04EE200CC45F36AECA3
:101E300000F0030140A744D092EC00F019EC1BF035
:101E40001450030112193CE11550131939E1EFEC5C
:101E500019F08EEC1AF096EC19F02DEC19F0B8ECA4
:101E60001AF01CEC18F08EEC1AF074EC1AF014C096
:101E7000EEFF15C0EDFFB8EC1AF0040E9AEC1AF064
:101E800064EC1BF00C0E9AEC1AF014C0EEFF28EC78
:101E90001BF019EC1BF08EEC1AF0ABEC18F014C030
:101EA000EEFF15C0EDFF04EC44F007C015F08EEC1A
:101EB0001AF07CEC1AF006C0EEFF15C0EDFF000C26
:101EC0000C01002BAED7000CBDEC1AF044EC17F05F
:101ED000F3CFEEFF15C0EDFFBDEC1AF0020E9AEC49
:101EE0001AF044EC17F0020EF3CFEBFF030E34ECC4
:101EF00019F0040E92EC17F0040E61EC18F0080EC5
:101F000092EC17F0080E61EC18F00E0E9AEC1AF035
:101F100044EC17F00E0EF3CFEBFF0F0E34EC19F07C
:101F2000ABEC18F044EC17F0100EF3CFEBFF110EF2
:101F300034EC19F07CEC1AF044EC17F0120EF3CFED
:101F4000EBFF130E15C0EBFF120092EC00F012C372
:101F500042F313C343F345EC19F029C331F32AC309
:101F600032F32BC333F32CC334F36AEC1AF00301BE
:101F70004051080B02E0040E01D00D0E3F6F40915E
:101F8000409340954099409B409D409F4191419393
:101F9000419541974189249124932497249984EC75
:101FA0001AF073EC21F0F3CF06F3F4CF07F373ECE0
:101FB00021F0F3CF08F3F4CF09F303012269236979
:101FC000010E146F156B12000C0E0401606F616B33
:101FD00021EC3EF006EC29F00C01006FF00E00152C
:101FE000E840E8403F0B28EC1AF014C000FC145005
:101FF00046E0070EB1EC19F00C0100510007000992
:102000003EE089EC1AF0E8503AE00105F5E0020EF6
:10201000015D26E1030E005D32E3026B036B89EC88
:102020001AF0040E015D08E106EC29F00C01036FC3
:1020300006EC29F00C01026F180E025D020E035926
:102040001EE3B40ED8800255050E035504E2B40E0B
:10205000F36E050E17D002CCF3FF03CCF4FF120091
:10206000020E005D0CE389EC1AF0E850005D07E316
:102070000151B1EC19F00C010151005FBDD7180EF0
:10208000F36E020EF46E1200DAEC1AF00D0E9AECFA
:102090001AF0EFCF79FCDAEC1AF0080E9AEC1AF08D
:1020A000EECF7AFCEECF7BFCEECF7CFCEFCF7DFC5D
:1020B000DAEC1AF0040E9AEC1AF0EECF7EFCEECFBA
:1020C0007FFCEECF80FCEFCF81FC03014091409379
:1020D000409540B902D023EC17F03F51050A1FE0AC
:1020E000010A08E0B7C382FCB8C383FC0C0179A1E4
:1020F0004AD046D00C0179B510D079A906D0FAECB7
:1021000018F0040EE9EC1AF008D079A306D084EC9C
:1021100018F02FEC1AF0E6EF18F0A5EF0FF00C0115
:1021200079B5120079A910D0D2EC19F00301061983
:1021300008E1EE50071905E1EE50081902E1EE50F2
:10214000091902E075EF17F00C0179A336EF15F0CD
:1021500084EC18F0B9EC19F0EECF14F3EDCF15F3D1
:102160002FEC1AF00C0179A909D060EC17F00301EB
:10217000070E3F6F23EC17F040991200E6EF18F0BE
:10218000822B000E832379A303D0822B000E83239E
:10219000C6EC19F00AE3D9EC18F00C011650145CE7
:1021A000776F17501558786F0DD03351355D0C018E
:1021B000776F0301345136590C01786F010E775F48
:1021C000000E785B0A0EE96E030EEA6EEE507E5D3D
:1021D000716FEE507F59726FEE508059736FEE50F1
:1021E0008159746F71CC75FC72CC76FC846B825112
:1021F00083115FE07751781169E0800E741503E177
:102200008EEC18F03BE382CC14F083CC15F0166A08
:10221000176A710EE96E0C0EEA6EEE501426EE503F
:102220001522EE501622EE5017221734000E171802
:1022300009E6D880000E1454000E1554000E1654F2
:10224000000E17541DE28251775D186E7851835548
:10225000196E1A6A1B6A19AE02D01A681B681B50E5
:102260007419E8AE02D0743508D07151185C7251FF
:10227000195873511A5874511B5802E3010E846F98
:102280002FEC1BF074511718E8AE02D0173402D0AF
:10229000FDEC1AF01BE275518225186E76518321F0
:1022A000196EE83413E218500008000E19540EE2BB
:1022B0000BD0715172117311741106E0800E7415F8
:1022C00005E18EEC18F002E2010E846F845104E106
:1022D00079B5CCD360EF17F0060E791502E0A5EFC3
:1022E0000FF079A9120003013F510C0A01E1B0D1AE
:1022F0000B0A1CE00F0A1AE0010A18E0020A16E0B5
:10230000010A14E00C0A01E0BFD1D2EC19F0061961
:1023100008E1EE50071905E1EE50081902E1EE5010
:10232000091902E075EF17F0070E3F6F0E512F5D90
:102330000C016F6F03010F5130590C01706F800E4B
:10234000701508E003014DEC17F014500C016F27D5
:10235000155070236FCC14F070CC15F0166A176A04
:102360004CEC1BF0EE5014246B6FEE5015206C6F8C
:10237000EE5016206D6FEE5017206E6F6B0EE96EEB
:102380000C0EEA6EEE5091EC18F002E654EC19F0E7
:1023900015E203012451010B0AE0010E0C016B1937
:1023A00005E16C5103E16D5101E16E5102E0F7EF7F
:1023B00019F07A07000E7B5B7C5B7D5B0301BDEC53
:1023C00019F015AE02D0166817684CEC1BF01450CB
:1023D000EE5C0C016B6F1550EE586C6F1650EE589A
:1023E0006D6F1750EE586E6F0301DDEC19F00BE2C4
:1023F00051EC1BF014500C016B5F15506C5B1650C8
:102400006D5B17506E5B6B0EE96E0C0EEA6EEE5054
:102410000C0191EC18F002E654EC19F06CE20301A7
:1024200051EC1BF00C016B51145C6C5115586D5143
:1024300016586E5117585FE3030124972499419170
:1024400031C36FFC32C370FC0C016B5103013127A7
:102450000C016C51030132230C016F5103010E5D1D
:102460000C01705103010F5909E3DDEC19F02FE263
:102470000E51315D146E32510F551BD04DEC17F0DB
:102480000E5114240C016F6F03010F5115200C0124
:10249000706F030131510C016F5D030132510C016A
:1024A000705915E26F510301315D146E32510C0108
:1024B0007055156E000114500301062700011550D8
:1024C00003010723000E0823092377EC1AF0030108
:1024D0002B51315D2C51325906E34DEC17F014505D
:1024E000315F1550325B2B510E5D2C510F5928E393
:1024F00022EC1BF025D003010E51311902E10F51DE
:1025000032191EE024A71BD024A918D0BDEC19F065
:1025100015AE02D0166817681450EDEC18F0DDEC1B
:1025200019F009E251EC1BF015AE02D016681768DD
:102530001450EDEC18F077EC1AF0418524892487CB
:102540002F5131191CE13051321919E141B704D032
:1025500023EC17F0409913D005EC18F010E1EE5081
:102560007B190DE1EE507C190AE1EE507D1907E16F
:1025700006E103012451010B02E040994197D2EC9E
:1025800019F00301065D146EEE500759156EEE50FA
:102590000859166EEE500959176EB9EC19F00C0176
:1025A0001450EE5C856F1550EE58866F0301145180
:1025B000151106E10C018551861102E003014183EA
:1025C00085CC14F386CC15F3080E03013F5D20E1A2
:1025D00005EC18F059E1EE507B1956E1EE507C19EC
:1025E00053E1EE507D1950E14FE103012451010BFD
:1025F0004BE09EEC1AF0BA0E030137271A0E38236F
:10260000030E3923000E3A234089090E3F6F3CD058
:10261000090E3F5D0AE10C0179B136D0FAEC18F0F1
:10262000140EE9EC1AF0A5EF0FF00A0E3F5D2CE155
:1026300005EC18F00CE1EE507B1909E1EE507C1925
:1026400006E1EE507D1903E101E010D27EDC1200BC
:1026500006C314F007C315F008C316F009C317F03A
:10266000142A74EC1BF014500C017A190CE115506B
:102670007B1909E116507C1906E117507D1903E119
:1026800001E0F4D162DC12000C0179BB12000B0EE8
:1026900003013F5D01E112000A0E3F5D01E11200FE
:1026A0000C0E3F5D01E11200B751B81101E166D196
:1026B0000C01763504E275510008000E765501E2F2
:1026C000A2D014EC18F0146E156A7551F35C040175
:1026D000606F0C01765115580401616F21EC3EF0DA
:1026E0000C0175510301B7270C0176510301B82382
:1026F000B7510C01775D0301B8510C01785904E220
:1027000077CCB7F378CCB8F30301B7510A27B851A7
:102710000B23000E0C230D233351B725146E3451B7
:10272000B821CCEC19F024E233512D5D0C016F6F10
:10273000030134512E590C01706F010E6F27000EEA
:10274000702336EC1BF033C3BFF334C3C0F3A9ECE2
:102750001AF038EC19F0146EB8510C017055156E62
:1027600003012B511424336F2C511520346F0CD0DE
:10277000CFEC1AF033C3BFF334C3C0F356DA03010E
:10278000B7513327B8513423221D01E1231D01E144
:10279000F5D0B751225FB851235B165122250C01A9
:1027A0006F6F0301175123210C01706F800E70159C
:1027B00002E0030125D00301233504E22251000881
:1027C000000E235501E2DAD00C016F5103010A27F4
:1027D0000C01705103010B23000E0C230D230C017F
:1027E0006F51030133270C0170510301342333511E
:1027F0002D5D34512E5904E25BDB335F1550345BA1
:1028000022692369BBD0763501E3B8D07551000841
:10281000000E765501E3B2D00301B7510C017525C6
:10282000146E0301B8510C017621156E1450775DBA
:102830001550785909E27551775D0301B76F0C01A6
:10284000765178590301B86FEFDB0401606F616B5B
:1028500021EC3EF056EC1BF0166E5BEC1BF0176E95
:1028600016500301B725146E1750B821CCEC19F09F
:1028700031E233512D5D146E2E513455C2EC1AF0F5
:102880000C017551145C6F6F76511558706F800E86
:10289000701508E136EC1BF0FFEC18F0C06FA9ECE6
:1028A0001AF01DD0CFEC1AF056EC1BF0146E5BEC56
:1028B0001BF0156E03012B512D5D166E2E512C55FC
:1028C000176E55EC1AF003011650145CBF6F1750C9
:1028D000155804D0CFEC1AF0FFEC18F0C06FA5D952
:1028E0000301221D0BE1231D09E175CC22F376CCF7
:1028F00023F3B7C316F3B8C317F340D022510C012A
:10290000755D030123510C0176591EE23DDB06E3A0
:102910000C0105EC19F02351195805E2B7C316F361
:10292000B8C317F30CD03EEC19F00C017551145CD0
:102930000301166F0C01765115580301176F75CC02
:1029400022F376CC23F31AD01FDB18E23EEC19F009
:102950000C017551145C7651155810E305EC19F013
:10296000166E23511958176E1651165C146E1751B6
:102970001758156E14501627155017230C01825145
:10298000831119E0070E03013F5D04E033C335F303
:1029900034C336F340AF04D093DA92EC00F00BD09E
:1029A000408F40BD08D0408D36EC1AF00F0E030169
:1029B0003D27000E3E230C0179A158D00AC314F024
:1029C0000BC315F00CC316F00DC317F0142A74ECEA
:1029D0001BF082CC18F083CC19F01A6A1B6A7E0EA9
:1029E000E96E0C0EEA6EEE501826EE501922EE50EB
:1029F0001A22EE501B221450181838E115501918DD
:102A000035E116501A1832E117501B182FE12EE14C
:102A10003CEC1BF03F51090A24E0010A12E00F0AC6
:102A200006E0010A22E10C0E3F6FA0EF18F00B0E3A
:102A30003F6F36EC1AF01F0E03013D27000E3E23B8
:102A400014D0E3DA0AE1EE507B1907E1EE507C196D
:102A500004E1EE507D1901E104E003010A0E3F6F2D
:102A600004D0F7EC19F0A5EF0FF02ADA12000301F9
:102A7000B9519DD901E3000CB9C345F36AEC00F0EC
:102A80000301BA51BB1103E1010EBA6FBB6B2951AF
:102A90002D5D0C01286F03012A512E590C01296F5D
:102AA000010E285F000E295B03013DEC1AF00C01BA
:102AB0001450285D1550295901E2000C92EC00F0E9
:102AC000030E0301BE1502E1030EBE13BCC32CFCB2
:102AD000BDC32DFC3DEC1AF014500C01285F1550BD
:102AE000295B0301BEA313D0BEA10CD028CC14F0E7
:102AF00029CC15F0D8901532143214500C012C2723
:102B0000155004D00C0128512C2729512D230301E5
:102B100029510C012C25286F03012A510C012D216C
:102B2000296F010E2827000E292333C32AFC34C342
:102B30002BFC0301221D01E1231D13E09FDB145038
:102B40000C012A2715502B232A5103012D5D0C015E
:102B50002B5103012E5905E2ABD90C012A5F155008
:102B60002B5B0C012A510301355D0C012B51030134
:102B700036590CE20C0128510301355D0C01295135
:102B80000301365918E2BEA50ED0000CFDEC19F079
:102B90000AE2285103012B5D0C01295103012C5934
:102BA0000AE2BEB5000C28CC35F329CC36F328CC8C
:102BB00033F329CC34F30301FDEC19F025E2040EC4
:102BC0000301BE1521E02B510C012A5D0301C56FE5
:102BD00003012C510C012B598EDB44C3C1F328CCCB
:102BE000BFF329CCC0F321D8D1DB0EE20C01285170
:102BF00003012B5D146E2C510C012955156E1450D8
:102C00000301335F1550345B28CC2BF329CC2CF314
:102C100084EC1AF029C331F32AC332F336DB070EF2
:102C200003013F5D01E14CD9010C0301C4512AE0CD
:102C3000010A01E01200C15111E0010A01E0120095
:102C4000C5C3E6FFC6C3E6FFC2C3E6FFC3C3E6FFD4
:102C5000BFC3E6FFC0C3E6FFA4EF18F0BF1D01E14C
:102C6000C01D06E0BFC312F4C0C313F49CEC27F0F0
:102C7000C5C329F4C6C32AF4C2C327F4C3C328F4C6
:102C80002CEF29F0C15117E0010A01E01200C21D2A
:102C900001E1C31D06E0C2C314F4C3C315F4A9ECDB
:102CA00027F0C5C324F4C6C325F4BFC322F4C0C3B0
:102CB00023F408EF29F0C5C320F4C6C321F4C2C32E
:102CC0001EF4C3C31FF4BFC31CF4C0C31DF466ECE1
:102CD00028F000EC29F00009FCE012000301C951C2
:102CE0000EE0010A01E01200CDC3E6FFCEC3E6FF0D
:102CF000CBDBC7C3E6FFC8C3E6FF4BEF1AF0C71D27
:102D000001E1C81D06E0C7C312F4C8C313F49CEC6C
:102D100027F0100E0C01106F116B0301CD51CE1175
:102D200037E00C0110510301CD5D0C01115103017D
:102D3000CE5904E2CDC310FCCEC311FC10CCE6FF8B
:102D400011CCE6FFA1DB000EE66E0C0EE66EA3DBF7
:102D500010CC29F411CC2AF40401000E276F0C0EBC
:102D6000286F2CEC29F010CC14F011CC15F0166A59
:102D700014500301CA271550CB231650CC230C0145
:102D800010510301CD5F0C0111510301CE5BC5D77A
:102D90001200140EEA02F3CFEAFFE902F3CFE9FFD3
:102DA000F450EA26430EE9260E0EEA221200146EB3
:102DB000156A090E145C000E1558120041CCC5F3BB
:102DC00042CCC6F30301020ED880C557000EC65789
:102DD000140EC603F3CFC6F3C503F3CFC5F3F45007
:102DE000C6270301010EC46F0C0141250301C26F08
:102DF000000E0C0142210301C36F140EC303F3CF75
:102E0000C3F3C203F3CFC2F3F450C327430EC22768
:102E10000E0EC32360EC1BF0140E086E096A41CC41
:102E20000DF042CC0EF047EC44F006C0BFF307C0F3
:102E3000C0F3430E0301BF270E0EC023F6DE0E01C2
:102E40007B6B7C6B12007ADB740E03013727350E27
:102E50003823060E3923000E3A231200B80E146EE2
:102E60008C0E156E000E166E14CC17F0186A196AC7
:102E7000060E0C6E0D6A0E6A14CC07F018C008F02E
:102E800019C009F065EF44F0EECF7AF0EDCF7BF09A
:102E900011EC24F0F8DBBDEF1AF029512B5D146E14
:102EA0002C512A55156E120063DB020E9AEF1AF0B0
:102EB0002B512D5D146E2E512C5564DB14501200D5
:102EC00074DB100EE9EF1AF07ADB060E61D31450B2
:102ED0000424F36E15500520F46E16500620F86E8B
:102EE000F4CFF7FFF3CFF6FF120006C37EFC07C353
:102EF0007FFC08C380FC09C381FCEDDB56DB040EBC
:102F000068DB7ECC06F37FCC07F380CC08F381CC62
:102F100009F312000301C46B0301C269C36944C30E
:102F2000C1F3120007DBEECF7CF0EECF7DF0EECFE9
:102F30007EF0EFCF7FF016EC24F006C014F007C04F
:102F400015F008C016F009C017F0BDEF1AF0156EA5
:102F500014C0F3FFF46E12000ACC96F30BCC97F377
:102F60000CCC98F303010ACCF6FF962B0BCCF7FFA1
:102F7000000E97230CCCF8FF98230800F5CF0EFC29
:102F800012001DDB1F0E04D375510301B725146E0B
:102F90000C0176510301B821156E22511625166ECB
:102FA00023511721176E1450165C15501758120034
:102FB0001A511825166E1B511921176E165010251F
:102FC000146E1750112122D3F2EC43F00301375154
:102FD000065C146E38510758156E39510858166E34
:102FE0003A510958176E0001800E171412000C5147
:102FF000EA6A100FE96E0C0EEA2212000D51EA6A1D
:10300000110FE96E0C0EEA22120046DBEE500C01A5
:103010007A19120096C3F6FF962B97C3F7FF000E9E
:10302000E3DA010E106F1200C5DA0C0E83DAEF50EE
:10303000FADA040DF3501200EECF14F0EFCF15F0D2
:1030400012000301010EC46F64C3C2F365C3C3F36E
:10305000ECEF1AF044C3C4F335C3C2F336C3C3F371
:103060002FDB7CC3BFF37DC3C0F315EF16F0000167
:103070001624146E000E172085DA14C0F3FF15C055
:10308000F4FF120044C3C4F30EC3C2F30FC3C3F36F
:103090000301C16B0301050EBF6F0B0EC06F15EF6F
:1030A00016F0F2EC43F0065003010225376F07508B
:1030B0000321386F08500421396F095005213A6FF8
:1030C000120038DA06C0EEFFC3DABDEF1AF069C3AA
:1030D000CAF36AC3CBF36BC3CCF344C3C9F32FC3A6
:1030E000C7F330C3C8F36EEF16F00ACC8CF30BCCE9
:1030F0008DF303010ACCE9FF0BCCEAFF8C2B000E09
:103100008D23EFCF0DFC12007ECC0AF37FCC0BF3A6
:1031100080CC0CF381CC0DF33CEF1BF0A0DAFDEF7B
:103120001AF07A5D6B6FEE507B596C6FEE507C59E4
:103130006D6FEE507D596E6FE834000E6E191200FF
:1031400034DA110EE9EF1AF086EC3EF0146E060E3A
:10315000E15E14501200100E9AEF1AF01C0D93DA73
:10316000000E1426010E152214C0E6FF15C0E6FF5E
:103170001200176E16504B25146E17504C2146D274
:1031800044C3C4F300CCC2F301CCC3F399DA82C3C5
:10319000BFF383C3C0F312008CC3E9FF8DC3EAFF02
:1031A0008C2B000E8D23EFCF0DFC0C01010E0F6F49
:1031B00012002B512D5D146E2E512C55156E35516C
:1031C000335D166E34513655176E1200EED9120E5D
:1031D00000DA0301060E3F6F1200065F1550075B11
:1031E0001650085B1750095B1200EECF16F0EFCFB8
:1031F00017F0120070DA0301AE6B0301120056DA09
:103200000301BF6F58DA0301120075510301B7259E
:10321000186E0C0176510301B821196E2251185C09
:1032200012000301C56FC66B44C3C4F31200BE5144
:103230001C0DF3CFE9FFF4CFEAFF000EE926010EE3
:10324000EA22120004EC44F0030106503D5D146EC6
:1032500007503E59156EE834120086EC3EF0166EAB
:10326000060EE15E1650120015C0EBFFBDEF1AF01E
:10327000DCDC0C016F510301B75D120022511625F1
:10328000146E23511721156E120029C32FF32AC380
:1032900030F312000C01276F26510301145D0C015D
:1032A0002751030115591200D880000E6B55000EEE
:1032B0006C55000E6D55000E6E551200146E156A99
:1032C0001450120046C318F347C319F348C31AF346
:1032D00049C31BF31200020E2DD9EECF18F0EFCF29
:1032E00019F012000C012A5103016C5D0C012B51E5
:1032F00003016D5912000301C66F44C3C4F32BC30D
:10330000C2F32CC3C3F3120003018E510C01025D02
:1033100003018F510C0103591200030199510C0153
:10332000025D03019A510C0103591200E9CF14F018
:10333000EACF15F0E9CFE6FFEACFE6FF12000C0175
:1033400026510301255D0C01275103012659120066
:103350000C01265103010E270C01275103010F23F5
:1033600012000401246F256B0401226B236B08EF0C
:1033700029F020D90E0E9AEF1AF031510E5D146E1D
:103380000F513255156E166A176A12000301355136
:10339000335D365134591200156E14502D5D1550A1
:1033A0002E5912007A0EE96E0C0EEA6EEE501200E3
:1033B000180EE66E030EE66E120031510E5D3251AC
:1033C0000F591200B1C3E9FFB2C3EAFF120039512D
:1033D0000301665D0C013A510301675912000A0EA0
:1033E000E66EE66AB1C3E6FFB2C3E6FF1200030170
:1033F000AE6B0301100EE9EF1AF035510C012A5D96
:10340000030136510C012B5912006AEC00F033C352
:1034100035F334C336F31200156E03012B51145CDF
:103420002C511558120003018E07000E8F5B8E5130
:103430008F11120003019907000E9A5B99519A119E
:103440001200272BD89002370337043705371200B4
:10345000146E156A140E145E000E155A1200E4EC78
:103460000FF0F3CF25F3F4CF26F3120004EC44F071
:1034700006C03DF307C03EF31200BA51BC25146EDE
:10348000BB51BD21156E1200CAC3E6FFCBC3E6FFD8
:10349000CCC3E6FF1200B1EC3EF0146E070EE15E05
:1034A000145012000DD903011200010E1626000E51
:1034B000172212006AEC00F092EF00F061C35FF394
:1034C000C1EF02F063C35FF3C1EF02F068C35FF3C3
:1034D000C1EF02F02BC335F32CC336F312001450A6
:1034E0000008000E155412000A0E9AEF1AF031C3AC
:1034F0000EF332C30FF31200120E9AEF1AF004010A
:10350000296F2A6B0401120029C30EF32AC30FF39B
:10351000120006EC29F00C01016F120004CCE9FF47
:1035200005CCEAFFC9EF16F041CCE9FF42CCEAFF37
:10353000C9EF16F0E926000EEA221200F2EC43F081
:1035400006C037F307C038F308C039F309C03AF3AF
:1035500012008EDE0301C56F0C0170510301B859D2
:103560000301C66FD7DC2BC3BFF32CC3C0F312001B
:10357000AFC3E9FFB0C3EAFF1200B3C3E9FFB4C3AE
:10358000EAFF1200156E010E1426000E152212001D
:103590001426AAD814C03BF315C03CF31200B7C3DD
:1035A000C5F3B8C3C6F38AEF17F00301010EAE6F7F
:1035B00003011200B5C3E9FFB6C3EAFF1200408B56
:1035C00004EC44F006C014F007C015F0166A176A40
:1035D0001200AD6FDDEF0BF044C3C1F32FC3BFF397
:1035E00030C3C0F315EF16F0972398C3F8FF982364
:1035F0000800F5CF0EFC0C0112001450715D15503F
:10360000725916507359175074591200156E145090
:103610001219426F15501319436F12003EDCD890F7
:10362000153214321200F00BE842E842E842E84258
:1036300012003ADC1CEF18F005C018F006C019F0B3
:1036400067EF17F02ADC14500E5F15500F5B120065
:1036500015C0EEFF16C0EEFF17C0EEFF120077CCCC
:1036600014F078CC15F0166A176A12006FCCC5F307
:1036700070CCC6F38AEF17F003010A2B000E0B2360
:103680000C230D231200F3CF14F0F4CF15F0120029
:1036900062DDEE50ED101200060EE96E030EEA6ECA
:1036A00012004DEC17F0166A176A1200030133512D
:1036B0000C0175251200030134510C017621120012
:1036C0000301010EC16F1200EECF14F0EECF15F022
:1036D0008CDD8EEF1AF07ACC06F37BCC07F37CCC32
:1036E00008F37DCC09F31200000E152216221722D2
:1036F00012000C01006B080E005D06E200CCCEF259
:10370000B8D90C01002BF7D70201C18312000C01BC
:10371000000E226F020E236F216B080E215D01E364
:10372000B2D0C2EC20F00C0EBEEC20F03EEC21F04A
:10373000166A176A145015101610171001E09DD064
:10374000C2EC20F00C0EC7C2EBFF0D0EC8C2EBFF9F
:103750000201C751C8111DE1000ED880CB55200EC3
:10376000CC5505E3000ECB5D100ECC5903E2CB6BBC
:10377000100ECC6FCBC214F0CCC215F0CB2B000EC8
:10378000CC23C2EC20F00C0E14C0EBFF0D0E15C0C4
:10379000EBFFC65105E0C251C311C411C51113E1BD
:1037A0000A0EE66EE66AE668C2EC20F0D7EC20F07E
:1037B000D4EC3EF0166E050EE15E16501BEC21F0C7
:1037C000050EEF6E4DD0C651040A39E0070A1FE01E
:1037D000020A02E0030A44E1C2EC20F0E0EC20F02F
:1037E000020EC65D02E0000E01D0010E146EC2ECA6
:1037F00020F0140EBEEC20F01450010BF36EFE0E00
:10380000EF14F310EF6E1BEC21F0010E28D0C2EC88
:1038100020F0E0EC20F0C2EC20F0130EBEEC20F023
:10382000EF6AC2EC20F00F0EBEEC20F0270EEE6E19
:10383000EE6AEE6AEE6A1BEC21F0020E10D00A0E60
:10384000E66EE66AC2C2E6FFC3C2E6FFC2EC20F043
:10385000D7EC20F0FFEC20F01BEC21F0050EEF6E12
:10386000C2EC20F00A0EC9C2EBFF0B0ECAC2EBFF7E
:1038700021CCB8F20C0121511200170E2227000EA4
:103880002323212B4AD7FF0C0C013D6B080E3D5D15
:1038900001E3E4D017EC21F0EF50050801E1DBD0A3
:1038A00017EC21F0EF50040801E1D5D017EC21F01E
:1038B000EF50050A01E1CFD0010A01E1CCD0070A9F
:1038C00001E17AD0010A5FE0020A30E0010A01E07A
:1038D000C2D0E2EC29F0000901E1BDD00C0117ECE7
:1038E00021F0EF6A43EC21F0140EBEEC20F0EF5013
:1038F000010B0FE00301010EE56F0C0143EC21F019
:10390000EECFE2F3EECFE3F3EFCFE4F314EC2AF0E3
:10391000A2D00301010EE16F0C0143EC21F0EECFC8
:10392000DFF3EDCFE0F3F4EC29F095D003013E0E88
:10393000E66F0C0EE76F37EC2AF0000901E18BD03F
:10394000E7EC29F000091AE00C0143EC21F03ECC31
:10395000EEFF3FCCEEFF40CCEEFF41CCEEFF17EC8C
:1039600021F0020EEF6E2EEC21F0EF6A2AEC21F02E
:10397000270EEE6EEE6AEE6AEE6A6DD00C0117EC61
:1039800021F0010E67D004EC44F006C014F007C02B
:1039900015F032EC21F006C0EEFF15C0EDFF43EC50
:1039A00021F0E9CFF0F0EACFF1F04BEC31F00C016F
:1039B00017EC21F0030E4ED043EC21F0040EDEDBB9
:1039C000E9CFF4F0EACFF5F043EC21F0E9CFF2F0E3
:1039D000EACFF3F078EC31F0000939E132EC21F074
:1039E000F5EC20F016C0E6FF17C0E6FF04EC44F04B
:1039F000E552E7CF17F0E552E7CF16F01650065C18
:103A0000146E17500758156E0C012AEC21F0EECFFA
:103A100018F0EFCF19F01450185C155019581BE22C
:103A20002EEC21F0EFCF14F0060E145C0DE22EEC1C
:103A300021F0EF2A2AEC21F0D890EF36010EEB3678
:103A4000020EEB36030EEB36F2DB020E03D00C0156
:103A5000EEDB050EEF6E0C013D2B18D712000201B4
:103A6000CD5182DB0E0E8ADBEF50050801E0000C21
:103A7000010C080E0201CE5D01E31200CE5174DB91
:103A80000C0E7CDBEE6AED6ACE516EDBEE6AEE6AFE
:103A9000EE6AEE6ACE5168DB0E0E70DB040EEF6E3E
:103AA0001200080E0201156ACF25146ED05115229E
:103AB000166A176ACF0E14260A0E1522000E162259
:103AC00017220E0E1426000E152216221722140E8F
:103AD0001426000E15221622172214C012F415C047
:103AE00013F49CEC27F0CFC2BDF2D0C2BEF212009C
:103AF000080E0201D1250401606F000E0201D221DF
:103B00000401616F21EC3EF0D1C2BFF2D2C2C0F21B
:103B100012003FEC26F0000903E1F36AF46A120098
:103B20000201D3510401BB5D09E0D3C2BBF4020121
:103B3000B96BBA6B0201CF6BD06BB3DFD3C2B8F2F3
:103B400096DBB9C21CF0BAC21DF079DB1F501B58BE
:103B500014C0F3FF15C0F4FF1200BDC214F0BEC2C2
:103B600015F0166A176AC00E145C050E1558000E83
:103B70001658000E175801E3000CD4C226F427ECA7
:103B800029F00201BD2B000E2ADB01E24BDB010C08
:103B9000FEDA14C004FC15C005FC0201D751145C08
:103BA000D8510C01155804E204CCD7F205CCD8F258
:103BB0000201D751BD27D85112DB01E233DBD7C256
:103BC00029F4D8C22AF4D5C227F4D6C228F42CECA2
:103BD00029F0D7C2F3FFD8C2F4FF1200D8DA14C01C
:103BE00005FC15C006FC0201DC51145CDD510C0122
:103BF000155804E205CCDCF206CCDDF20201DC5102
:103C0000BD27DD51ECDA01E20DDBDCC22EF4DDC2B2
:103C10002FF4D9C22BF4DAC22CF4DBC22DF445EC1C
:103C200029F0DCC2F3FFDDC2F4FF1200DEC2E6FFC2
:103C3000DFC2E6FFEEEC3EF0E552E552F3CFD7F2FD
:103C4000F4CFD8F2DEC2D5F2DFC2D6F2A1DF020194
:103C5000DE51F324146EDF51F420156E14C0F3FF0F
:103C6000F46E1200E0C2E6FFE1C2E6FFE2C2E6FF48
:103C7000FCEC3EF0E552E552E55207C0DCF208C02C
:103C8000DDF2E0C2D9F2E1C2DAF2E2C2DBF2A6DF93
:103C9000196A0201E051F324146EE151F420156E0B
:103CA000E2511920166E14C007F015C008F0096E15
:103CB00012000201B851170DF3CF29FCF4CF2AFCF2
:103CC000000E0C012927020E2A23080E0201B92535
:103CD0000C012B6F000E0201BA210C012C6F8ADA45
:103CE0000C0E4CDA93DAF3CF21FCF4CF22FC82DA0B
:103CF0000A0E44DA8BDAF3CF23FCF4CF24FC8CDAFF
:103D0000F3CF25FCF4CF26FC0C01276B286B00CEEB
:103D10002DFC01CE2EFC02CE2FFC03CE30FC6ADA45
:103D2000EECF31FCEECF32FCEECF33FCEFCF34FCE4
:103D3000356B110E366F2BCC37FC2CCC38FC6CDA83
:103D4000F3CF37FCF4CF38FC0C0E0001826F836B8D
:103D500000012D0E806F0C0E816F2CEC24F0F3CF40
:103D600027FCF4CF28FC0C01271F281F0401DD0EBF
:103D7000126F0A0E136F9CEC27F02BCC5EF42CCC48
:103D80005FF40401110E5D6F35DA29CC5BF42ACCA7
:103D90005CF4AEEC3DF0080E0401296F2A6B0401BF
:103DA000210E276F0C0E286F2CEC29F00401F10E68
:103DB000146F0A0E156FA9EC27F0F3CF39FCF4CF7E
:103DC0003AFC2BCC1AF42CCC1BF4DCEC27F0F3CF10
:103DD0003BFCF4CF3CFC0C01F350F41002E13B69D6
:103DE0003C6939CC14F43ACC15F4A9EC27F0040161
:103DF000F70E126F0A0E136F9CEC27F0020E0401EF
:103E0000296F2A6B04013B0E276F0C0E286F2CECD8
:103E100029F073EC27F00201B96BBA6B0401BB699E
:103E20001200E3C2B8F20201E3510401BC5D03E0F9
:103E3000F36AF46A12000201C1A105D0C191020126
:103E4000D16BD26B55DE0201BF51BB5D146EBC510C
:103E5000C05514C0F3FFF46E12000201BB51BF5DE8
:103E6000BC51C05904E2B8510401BC5D01E0000C32
:103E700006EC29F0E4C2E9FFE5C2EAFFEF6E0201B9
:103E8000BF2B000EC023010C0201BB51BF5DBC5112
:103E9000C05904E2B8510401BC5D03E0F36AF46A5E
:103EA00012000201BF51BB5D0C01006F0201C05145
:103EB000BC590C01016F0201E8510C01005D0201C7
:103EC000E9510C01015904E200CCE8F201CCE9F21D
:103ED000E8C224F4E9C225F4E6C222F4E7C223F4DE
:103EE00008EC29F0F3CFE8F2F4CFE9F20201F35045
:103EF000BF27F450C02312000201C1B309D052EC15
:103F000026F00201BB6BBC6B0401BC690201C183DA
:103F100012000201BB6BBC6B080E0401246F256B01
:103F20000401000E226F0C0E236F08EC29F000CC68
:103F30007AF001CC7BF011EC24F0F3CF00FCF4CF4D
:103F400001FC02CC7AF003CC7BF011EC24F0F3CF2F
:103F500002FCF4CF03FC04CC7AF005CC7BF011EC2E
:103F600024F0F3CF04FCF4CF05FC0C01080E045F31
:103F7000000E055B0651071151E0EAC2E9FFEBC2F2
:103F8000EAFFEECF09FCEECF0AFCEECF0BFCEFCF41
:103F90000CFCECC2E9FFEDC2EAFFEECF0DFCEECF68
:103FA0000EFCEECF0FFCEFCF10FC116B110E126F59
:103FB000EEC213FCEFC214FCEEC27AF0EFC27BF04B
:103FC00011EC24F0F3CF13FCF4CF14FC0C0E000121
:103FD000826F836B0001090E806F0C0E816F2CECD9
:103FE00024F0F3CF15FCF4CF16FC0C01151F161F9F
:103FF0000401606B616B21EC3EF0EEC21AF4EFC27B
:104000001BF4DCEC27F0F3CF17FCF4CF18FC0C0109
:10401000F350151916E11851161913E1ECC2F4F218
:10402000EDC2F5F2EAC2F2F2EBC2F3F20201000EC7
:10403000F06F0C0EF16F12D80C01086FFF0E085DC7
:1040400003E152EC26F0000C08CCBCF404CCBBF22B
:1040500005CCBCF20201C181C193010CF2C2E9FF9F
:10406000F3C2EAFFEE500E0100190BE1EE50011908
:1040700008E1EE50021905E1EE50031902E101E1F9
:10408000FF0C0C011A69000E1B6F020E1C6F196BDE
:10409000080E195D3CE286D80C0E70D89AD8020E34
:1040A0006DD8A3D8165014182BE11750151828E115
:1040B00079D80A0E63D88DD898D8165014181EE1F6
:1040C000175015181BE1F2C2E9FFF3C2EAFFEECF69
:1040D00014F0EECF15F089D865D8EE500001141811
:1040E0000DE1EE5015180AE1EE50161807E1EE50FA
:1040F000171804E103E10C011951120019CC1AFC44
:104100000C01170E1B27000E1C23192BC1D7FF0E05
:104110001A5D27E01A51170DF3CF1BFCF4CF1CFCDE
:10412000000E1B27020E1C230A0EE66EE66AF2C280
:10413000E6FFF3C2E6FF36D81BCC14F01CCC15F01A
:104140001BCCE6FF1CCCE6FF5AD8F0C2E9FFF1C257
:10415000EAFF94D827D80A0E14C0EBFF0B0E15C047
:10416000EBFF0C011A511200170DF3CFE9FFF4CF4A
:10417000EAFF000EE926020EEA221200E926000EEE
:10418000EA22120022CCE9FF23CCEAFF12006FD80A
:10419000BDC21CF0BEC21DF052D8166E1F501B5877
:1041A000176E12001BCCE9FF1CCCEAFF120022CCD8
:1041B00014F023CC15F022CCE6FF23CCE6FF12004E
:1041C000C2C2EEFFC3C2EEFFC4C2EEFFC5C2EEFF25
:1041D000120054D8F0C2E9FFF1C2EAFF1200BE2378
:1041E000BD51B95DBE51BA591200EECF16F0EFCFF6
:1041F00017F0120029CCE9FF2ACCEAFF120086EC66
:104200003EF0166E060EE15E16501200EECF7AF00A
:10421000EDCF7BF011EF24F02BCC7AF02CCC7BF09F
:1042200011EF24F0BDC2B9F2BEC2BAF212002BD80F
:104230000E0EBEEF20F0A6DF0E0EBEEF20F01E6ABF
:104240001F6A1C50185C146E1D501958156E1E50B4
:104250001A58120018D80F0EBEEF20F014D8130E03
:10426000BEEF20F00C010FD8150EBEEF20F0C00EEF
:10427000186E050E196E1A6A1B6A1200EECF14F042
:10428000EFCF15F012003D51B4EF20F0B2C41FFC87
:10429000B3C420FCB4C421FCB5C422FC00016051AD
:1042A00061116211631105E1010E606F616B626B58
:1042B000636B60C0B2F461C0B3F462C0B4F463C0B5
:1042C000B5F40C01236B100E235D04E20CD80C0135
:1042D000232BF9D71FCC06F020CC07F021CC08F017
:1042E00022CC09F012000C01246B0F0E245D32E287
:1042F000B2C414F0B3C415F0B4C416F0B5C417F0CA
:10430000D8901732163215321432B2C418F0010E9A
:104310001816196A1A6A1B6A000E186C191E1922DF
:104320001A1E1A221B1E1B22010E1816196A1A6A5F
:10433000D00E1B16145018180401B26F155019181E
:10434000B36F16501A18B46F17501B18B56F0C01C5
:10435000242BCBD7B2C4F3FFB3C4F4FF1200C2CFF7
:104360000FFCC0CF10FCD5CF11FCD6CF13FCD7CF9C
:1043700012FC010EC26E3F0EC06E880ED56E0C018F
:10438000006B0C01076B086B096B0A6B0C01056B6A
:10439000066BA9DFF3CF0BFCF4CF0CFC0C010D6B0B
:1043A0000E6BD76AD66AC2820400C2B2FED7D6CFDD
:1043B00003FCD7CF04FC97DFF3CF01FCF4CF02FC62
:1043C0000C0103510C0107270C0104510C010823B7
:1043D000000E09230A231A0E0C01075DF20E08597C
:1043E0009E0E0959000E0A590FE37DDFF3500C01B0
:1043F0000B1BF4500C010C1B76DFF3500C010D1B52
:10440000F4500C010E1B39D00C0103510C0105199D
:1044100004E10C0104510C01061901E1C2D70C01A1
:1044200003510C01055D146E06510C010455156E07
:104430000C010C01015114240001606F0C010C01EE
:10444000025115200001616F0001626B636B1EDF7A
:1044500003CC05FC04CC06FC0C01D8900B370C37C0
:104460000D370E3740DFF350800B02E00C010B815B
:104470000C01002B01E101D094D70FCCC2FF10CC6E
:10448000C0FF12CCD7FF13CCD6FF11CCD5FF0BCC7D
:1044900006F00CCC07F00DCC08F00ECC09F000D0E3
:1044A00012000C01226B236B1D6B1E6B1F6B206BAC
:1044B000000164C0E9FF65C0EAFF642B000E6523BC
:1044C000EFCF21FCEF503EE00C01235103083AE30B
:1044D000300E215F225104E12151090829E2000C2C
:1044E000030E225D07E1FE0E215D01E0000C14DBEE
:1044F00007E2000CFE0E215D17E10EDB01E2000C6D
:104500000A0E1E03F3CF16F0640E1F03F350162499
:104510001D25E66E66C014F067C015F02351232BED
:1045200016DB0C01226BC0D72151090801E2000CF7
:10453000222B1FCC20FC1ECC1FFC1DCC1EFC21CC32
:104540001DFCB6D70C01215113E02F0E215D10E0A8
:104550000D0E215D0DE00A0E215D0AE0200E215DA9
:1045600007E0090E215D04E03A0E215D01E0000C38
:10457000D3DA01E2000C0A0E1E03F3CF14F0640E2E
:104580001F03F35014241D25E66E66C0E9FF67C0C3
:10459000EAFFE7D20C01056B066B006B016B026B47
:1045A000036B000168C0F6FF682B69C0F7FF000EBF
:1045B00069236AC0F8FF6A230800F5CF04FCF550B0
:1045C0003EE00C01065103083AE3300E045F05514A
:1045D00004E10451090829E2000C030E055D07E11E
:1045E000FE0E045D01E0000CA1DA07E2000CFE0EF5
:1045F000045D17E19BDA01E2000C0A0E0103F3CF20
:1046000016F0640E0203F35016240025E66E6BC00C
:1046100014F06CC015F00651062B99DA0C01056BED
:10462000BCD70451090801E2000C052B02CC03FCA5
:1046300001CC02FC00CC01FC04CC00FCB2D70C0184
:10464000045110E02F0E045D0DE00D0E045D0AE034
:104650000A0E045D07E0200E045D04E0090E045D0F
:1046600001E0000C63DA01E2000C0A0E0103F3CF53
:1046700014F0640E0203F35014240025E66E6BC0A0
:10468000E9FF6CC0EAFF6DD20C01226B00016D5195
:104690006E1147E00C011D6B100E206F270E216F6D
:1046A000050E1D5D41E26DC008F06EC009F020CC22
:1046B0000DF021CC0EF077EC46F008C01EFC09C0CE
:1046C0001FFC0C010850091002E122511AE0300EC3
:1046D0001E25E66E00014DDAE552E750EF6E1ECC66
:1046E00008F01FCC09F020CC0DF021CC0EF047ECE7
:1046F00044F0065000016D5F07506E5B0C01010E27
:10470000226F0A0E0D6E0E6A20CC08F021CC09F043
:1047100077EC46F008C020FC09C021FC0C011D2BE1
:10472000BFD727DA300EEF6E6FC0E9FF70C0EAFF27
:10473000EF6A120000017251460802E2200E725F19
:104740007151460802E2200E715F7251390802E28F
:10475000370E01D0300E725F7151390802E2370E08
:1047600001D0300E715F7239F00B7111120000012F
:1047700073390F0B736FE850090804E2410E73257B
:10478000F60F1200300E732512000F0E0001741781
:104790007451090804E2410E7425F60F1200300E20
:1047A0007425120075C0E9FF76C0EAFFEFCF00FC68
:1047B00077C0F6FF78C0F7FF79C0F8FF0800F5CFA3
:1047C00001FC0C01005123E0015121E0610E005D6C
:1047D00005E300517A0802E3200E005F610E015DDF
:1047E00005E301517A0802E3200E015F0151D880F0
:1047F000005501E2010C0151005D01E2FF0C0001D6
:10480000752B000E7623772B78237923CBD7015194
:10481000D880005501E2010C0151005D01E2FF0C5E
:10482000000C7BC0F3FF7AC0F4FF120000017F513F
:104830007C1B7C517F1B7F517C1B7E517D1B7D51DE
:104840007E1B7E517D1B7CC006F07DC007F07EC0C4
:1048500008F07FC009F0120082C061FC83C062FCD6
:104860000C01D8906233613380C063FC81C064FC6A
:10487000656B666B676B686B61CC14F062CC15F08E
:104880006107000E625B1450151018E063CCE9FF5D
:1048900064CCEAFF020E6327000E6423EECF14F00F
:1048A000EFCF15F0000114500C01652700011550E1
:1048B0000C016623000E67236823DED700018251B6
:1048C000010B0EE063CCE9FF64CCEAFFEFCF14F0FC
:1048D000000114500C016527000E6623672368232E
:1048E00065CC14F066CC15F0166A176A67CC18F020
:1048F00068CC19F01A6A1B6A145018240C01656FF1
:1049000015501920666F16501A20676F17501B201C
:10491000686F675165276851662365CC14F066CCD3
:1049200015F0141E151E14C0F3FF15C0F4FF12007D
:1049300088C084F089C085F08AC086F08BC087F07B
:104940008CC000FC080E0C01005D0EE387C001FC6A
:1049500086C087F085C086F084C085F001CC84F0E5
:10496000080E0C01005FEED70C0100510BE00001B6
:10497000D89087BFD88084378537863787370C0132
:104980000007F2D784C006F085C007F086C008F0A3
:1049900087C009F000D012000F0ED2D8EF6A8DC088
:1049A000E6FF8EC0E6FF4FEC3FF0E552E5520C010A
:1049B0001D6B0F0E1D5D11E21D51C2D8EF500AE1B3
:1049C0000F0E0C011D5D09E21D511D2BB9D8200EE3
:1049D000EF6EF6D70C011D2BECD71200000191C031
:1049E00014F092C015F09107000E925B1450151050
:1049F0001AE08FC0E9FF90C0EAFF8F2B000E9023D2
:104A0000EFCF00FC0C0100510EE0000193510C01AE
:104A1000005DE4E100018F07000E905B8FC0F3FFA3
:104A200090C0F4FF1200F36AF46A120094C0E9FF28
:104A300095C0EAFFEF6A0001945196250C01046FBE
:104A40000001955197210C01056F010E045F000EC6
:104A5000055B04CCE9FF05CCEAFFEF6A066B076B48
:104A6000980E006F000E016F000198C014F099C0FD
:104A700015F09807000E995B1450151048E004CC0F
:104A8000E9FF05CCEAFFEF5005E096C006FC97C0B1
:104A900007FC3DD00C01020E005F000E015B00CC54
:104AA000E9FF01CCEAFFEECF02FCEDCF03FC06519B
:104AB0000001965D146E97510C010755156E14C0D8
:104AC000E6FFE66E02CCE6FF03CCE6FF0001945160
:104AD0000C010625166E000195510C010721176E79
:104AE00016C0E6FFE66E21EC3FF0186E060EE15EA2
:104AF000185002CCE6FF03CCE6FFEEEC3EF0E552A8
:104B0000E552F3500C010627F4500723ADD706CC2D
:104B1000F3FF07CCF4FF1200D880050E1D55050EDB
:104B20001E55020E1F55000E20551200D880050E8E
:104B30000055050E0155020E0255000E03551200D8
:104B40000001EA6A8D25E96E8E51EA2212000F01FA
:104B50001424E96E000E1520EA6EE552E750EF6E60
:104B60001200030EE926000EEA22E552E750EF6E2E
:104B7000010C6FC0E9FF70C0EAFF6F2B000E7023BD
:104B80001200FC0E92160E01FE8B0E01FDA1FDD748
:104B90000401046B040104810401006B016B0E012C
:104BA000E86BE96B0E01CD0EEC6F0E010A0EED6F96
:104BB0000E01CD0EEA6F0A0EEB6F0E01CE0EE46F02
:104BC0000A0EE56F0E01CE0EE26F0A0EE36F0401CE
:104BD000266B3DDB0E010D0EA06F00000E01320EA4
:104BE000A26F00000E01120EA46F00000E01400E15
:104BF000A36F00000E01120EA66F00000E010C0E36
:104C0000A76F00000E01EE0EAA6F00000E01050E48
:104C1000AB6F00002DCE84FE00002ECE85FE00007E
:104C20002FCE82FE000030CE83FE000031CE80FE0B
:104C3000000032CE81FE00000401100E326F010E22
:104C4000336F0401100E316F56DB0401720E326FA8
:104C5000340E336F0401140E316F4DDB0401326BDF
:104C6000336B0401316B47DBD28412000401010E67
:104C7000306F29DBF350040B01E0010E1200D2A6C5
:104C8000010CF2EC43F004010551065C146E065170
:104C90000758156E166A176A7A0E81DB02E3D29600
:104CA00022D9000C040104B11200048100C421FCCB
:104CB00001C422FC0C01010E215F000E225B21CCFD
:104CC00014F022CC15F0166A176A69DB06E321CCD2
:104CD00018F022CC19F043DB04E2CD0E216F0A0E4E
:104CE000226F0E01FE8D21CCECFE22CCEDFE1200D7
:104CF000D9CE4DFCEECE4FFCEFCE50FC0C014D5109
:104D00000E01D95DF5E1ECCE4DFCEDCE4EFC0C0173
:104D10004F514D5D50514E5911E2CD0E186E0A0E95
:104D2000196E4D514F5D1C6E50514E551D6E1C50ED
:104D3000185C146E1D501958156E14D04D514F1932
:104D400008E14E51501905E1CD0EF36E0A0EF46ED6
:104D500012004F514D5D146E4E515055156E140694
:104D6000000E155A14C0F3FF15C0F4FF12000E0117
:104D7000D95102E1000E87D004010483040104B17B
:104D800003D090DF000E7FD000C402F401C403F40E
:104D900002C47AFF03C47BFF140E0401246F256B49
:104DA0000401000E226F0C0E236F32DA12CC7AF05F
:104DB00013CC7BF011EC24F0F3CF12FCF4CF13FCF6
:104DC00000CC14F001CC15F0166A176AD880CD0E0D
:104DD00014540A0E1554000E1654000E17541BE3FB
:104DE0000C010C010051010B16E10C010C010551E5
:104DF000800B11E10C010C010451100B0CE10C01B2
:104E0000EE0ED8800255050E035505E30C010C018A
:104E10000451800B01E1FF0000CC00F401CC01F44F
:104E2000060EE66EE66A0C0EE66E0C0EE66E07C423
:104E3000E9FF08C4EAFFE9CF14F0EACF15F014C087
:104E4000E6FF15C0E6FF86EC3EF0166E060EE15E4C
:104E5000165009C4E9FF0AC4EAFFEF68080E0C0106
:104E6000135D0DE10C01125104E0060E0C01125D00
:104E700006E109C4E9FF0AC4EAFF12CCEFFF04010E
:104E80000491010E00D012000E01CF0EE26F0A0E47
:104E9000E36FDC0E04010E270A0E0F230EC4E6FE9C
:104EA0000FC4E7FE060E0401296F2A6B0BC427F41A
:104EB0000CC428F4D1D9060E0401296F2A6B040111
:104EC0002D0E276F0E0E286FC7D90401080E266F0E
:104ED000BED904010D5102E1000E01D0060E0401FD
:104EE000266F27EF29F0D28ED29E0C01080E516F4B
:104EF000515151070009FCE16092D286F2EC43F077
:104F000006C005F407C006F4120040DA10250C01B3
:104F1000216F1550040111210C01226F21CC14F0D6
:104F2000156E11DA04E2CE0E215F0A0E225B21CC4F
:104F30007AFF22CC7BFF1200E2CE4DFCE3CE4EFC8A
:104F400012C4E2FE13C4E3FE4DCCF3FF4ECCF4FFDB
:104F500012007ACF4DFC7BCF4EFC14C47AFF15C4EF
:104F60007BFF4DCCF3FF4ECCF4FF12000FDA162579
:104F70000C01166F1550040117210C01176F16CC88
:104F800014F0156EE0D904E2CE0E165F0A0E175B20
:104F90007ACF18FC7BCF19FC16CC7AFF17CC7BFF9D
:104FA00018C41AF419C41BF407D8F3CF16FC18CC94
:104FB0007AFF19CC7BFF12000C014F6B506B516BC9
:104FC000526B7ACF4DFC7BCF4EFC04011A511B1162
:104FD00051E0140ED8801A55000E1B5505E20C0145
:104FE000140E536F546B04D01AC453FC1BC454FCEE
:104FF00053CC24F454CC25F40401550E226F0C0E2E
:10500000236F06D90C01535104011A5F0C0154514E
:1050100004011B5B0C0153A10AD0550E5325E96E08
:105020000C0E5421EA6EEF6A532B000E5423550EDA
:10503000696F0C0E6A6F53515411C7E069CCE9FFD8
:105040006ACCEAFF020E6927000E6A23EECF14F045
:10505000EFCF15F0000114500C014F27000115503F
:105060000C015023000E51235223020E535F000EF9
:10507000545BE1D74DCC7AFF4ECC7BFF4FCC14F084
:1050800050CC15F0166A176A51CC18F052CC19F0B2
:105090001A6A1B6A145018240C014F6F15501920FE
:1050A000506F16501A20516F17501B20526F5151DC
:1050B0004F27525150234FCC14F050CC15F0141EF2
:1050C000151E14C0F3FF15C0F4FF12000C01516B44
:1050D000526B04011C1D09E11D1D07E10C01010EAD
:1050E000516FE2CE1CF4E3CE1DF404011E1D09E154
:1050F0001F1D07E10C01010E526F7ACF1EF47BCF0A
:105100001FF40401010ED8802055000E21552EE316
:105110007ACF4DFC7BCF4EFCE2CE4FFCE3CE50FC71
:105120001EC47AFF1FC47BFF1CC4E2FE1DC4E3FE45
:10513000040120C414F021C415F02007000E215BE7
:105140001450151005E062D80401266F80D8F0D7FE
:105150000C01525104E14DCC7AFF4ECC7BFF5151F2
:105160004EE14FCCE2FE50CCE3FE12000C01515157
:105170000DE004011C5120250C014F6F04011D514D
:1051800021210C014FCCE2FEE8CFE3FE10D914063A
:10519000000E155A14500401202715502123D2BAAD
:1051A000FED71EC4F0FE1FC4F1FE1CC4F4FE1DC4D5
:1051B000F5FEFDD8C8D807E3FFD805E2CE0E0401FE
:1051C000205F0A0E215B20C4F2FE21C4F3FED298B8
:1051D000D28AD2BAFED70C01525111E00401202B21
:1051E000000E2123E4D8AFD806E3E6D804E2CE0EC1
:1051F000205F0A0E215B20C47AFF21C47BFF1200CE
:10520000D250200B200A01E0010E12006150120062
:1052100024C493FC25C494FC0401225123110DE005
:10522000AAD810E0040122C4E9FF23C4EAFF222B1C
:10523000000E232361CFEFFFF3D79DD803E061CFAA
:1052400095FCFBD724C4F3FF25C4F4FF120026C449
:10525000F3FFF3CF61FF1200040129C414F02AC444
:1052600015F02907000E2A5B145015100DE00401FB
:1052700027C4E9FF28C4EAFF272B000E2823EF509C
:10528000F36EF3CF61FFE8D7120004012EC414F0CF
:105290002FC415F02E07000E2F5B1450151012E0CE
:1052A00004012BC4F6FF2B2B2CC4F7FF000E2C237C
:1052B0002DC4F8FF000E2D230800F550F36EF3CF38
:1052C00061FFE3D7120030C4B4FE00000E01010EEE
:1052D000B26F00000E018AB1FDD70E01B26B000063
:1052E000B8CE00FC0000B9CE01FC00CCF3FF01CC2D
:1052F000F4FF00D0120031C4B4FE32C4F3FF33C453
:10530000F4FFC00EF2140C01006F3F0EF216F3CF43
:10531000B6FE0000F4CFB7FE0C010051F2120E01F0
:105320008AB1FDD71200D2940E01FDB5FDD7D2B6D9
:10533000FED70E01FE9B12000E01FE8BFDB102D0C6
:10534000D284FCD71200166A176AD880CD0E145486
:105350000A0E1554000E1654000E175412001A6A45
:105360001B6AD880CD0E18540A0E1954000E1A5418
:10537000000E1B5412000C0193CC14F094CC15F0C9
:105380009307000E945B145015101200140E0401C4
:10539000156A0225146E0351152214501200145C74
:1053A000000E1558000E1658000E175812001EC495
:1053B00014F01FC415F0120020C418F021C419F015
:1053C000AFEF29F00401B7B1000CB781010CFF0E5B
:1053D0000401B65D01E01BDB070EB86FB791B75152
:1053E000020B01E0010E12000001D50E666F030EE4
:1053F000676FDFC364F0E0C365F051EC22F0000991
:1054000005E00401B783070EB86F1200DFC3CFF3C6
:10541000E0C3D0F30301D16BD26BD36B0401B86B43
:10542000E1C3D4F3B79312000001D50E6B6F030EE6
:105430006C6FE2C368F0E3C369F0E4C36AF0CAECDE
:1054400022F0000905E00401B783070EB86F1200CF
:105450000301CF6BD06BE2C3D1F3E3C3D2F3E4C358
:10546000D3F30401B86BE5C3D4F3B793120004017E
:10547000B851060A01E170D1010A01E159D1020ACD
:1054800001E18ED0010A58E0070A3BE0010A14E06E
:10549000030A06E0010A01E086D10301EE6BEF6B1F
:1054A00000010C0EF06F0E0EF16F4BEC31F00301AA
:1054B000EE2B98DA020E18D00001D90EF46F030E0D
:1054C000F56F00010C0EF26F0E0EF36F78EC31F0F9
:1054D00000090CE159DA01E366D1030EEE5D02E347
:1054E000060E01D0010E0401B86F000C0CCED5F3EE
:1054F0000DCED6F30ECED7F30FCED8F30401030EA4
:10550000B86F350E0201C96FCA6B0201C76BC86B59
:105510000201040EC66F0201D50EC26F030EC36FE7
:10552000C46BC56B87EC1BF00401B66FFF0EB65D54
:1055300001E139D1040EB86FB6C4D3F289EC1DF085
:105540008ADA01E130D10301EC2B000EED23EDC32B
:10555000D4F2ADEC1DF0ECC3D4F2ADEC1DF085DA65
:1055600084DA89DA88DA0301CF51D01106E0CFC39B
:10557000F0F3D0C3F1F318D907D0D1C3F2F3D2C3FB
:10558000F3F3D3C3F4F35DD918DAD4C3D4F2ADEC9A
:105590001DF013DA55DA59EC1EF024DA050E02D1AB
:1055A000B6C4E3F211EC1FF056DA06E1EDD901E3DF
:1055B000FAD00401060EF6D002016F0EE46F0C0E55
:1055C00051DA6E0EE46F0C0E53DA0301EC510C014C
:1055D0006E1904E10301ED510C016F1903E07CEC3D
:1055E0001FF0000C0201710EE46F0C0E3BDA700E1E
:1055F000E46F0C0E37DA730EE46F0C0E33DA720EB2
:10560000E46F0C0E2FDA750EE46F0C0E2BDA740EAD
:10561000E46F0C0E27DA770EE46F0C0E23DA760EA9
:10562000E46F0C0E1FDA790EE46F0C0E1BDA780EA5
:10563000E46F0C0E1DDA0C0172CC14F073CC15F073
:105640007207000E735B1450151005E057D9D6D9B8
:105650000FDAD4D9EFD774CC14F075CC15F07407E9
:10566000000E755B1450151012E060D90CE17B51EF
:105670000AE1010E7C1907E17D5105E1040E821952
:1056800002E1835138E09DD9E6E0A6D9FCD776CC7B
:1056900014F077CC15F07607000E775B14501510D8
:1056A00012E044D90CE17B510AE1010E7C1907E1BB
:1056B0007D5105E1040E821902E183511CE081D97C
:1056C000E6E08AD9FCD778CC14F079CC15F07807CD
:1056D000000E795B1450151026E028D920E17B518B
:1056E0001EE1010E7C191BE17D5119E1040E8219A6
:1056F00016E1835114E10401B7830201D50EE46F72
:10570000030EB0D9D60EE46F030EACD9D70EE46FFA
:10571000030EA8D9D80EE46F030EAAD904D051D92C
:10572000D2E05AD9FCD77CEC1FF071D9070EB86FC4
:10573000B7B305D00301D56BD66BD76BD86BE6C377
:10574000E9FFE7C3EAFFD5C3EEFFD6C3EEFFD7C339
:10575000EEFFD8C3EEFF010C020E0301EF5D09E37B
:10576000E6C3E9FFE7C3EAFFEE6AEE6AEE6AEE6AB5
:10577000010CEF2B0E01105111111211131113E036
:105780004DD90C51101B0D51111B0E51121B0F51F5
:10579000131B44D90301EE6BFF0E0401B65D01E05B
:1057A00036D9010EB86F000CF0C300FCF1C301FC48
:1057B0000C0100CCE9FF01CCEAFF002B000E012315
:1057C000EFCF02FC02510CE02E0E025D09E02F0E1D
:1057D000025D06E02C0E025D03E03E0E025DE8E194
:1057E0000301F0510C01005D146E01510301F155EC
:1057F000156E1406000E155A14C003FC14C0D4F222
:10580000ADEC1DF00C0103510201D76FD86BF0C352
:10581000D5F2F1C3D6F2C8EC1DF009D9145003013A
:10582000F0271550F1230C01025109E02F0E025D03
:1058300006E02C0E025D03E03E0E025DB9E1DDEFF5
:105840002CF0F2C300FCF3C301FCF4C302FC0C0116
:1058500000CCF6FF002B01CCF7FF000E012302CC99
:10586000F8FF02230800F5CF03FC03510CE02E0ED5
:10587000035D09E02F0E035D06E02C0E035D03E0DF
:105880003E0E035DE4E1F20EE96E030EEA6EEE50A9
:10589000005D146EEE500159156EEE500259166EF1
:1058A0001406000E155A165A14C004FC14C0D4F283
:1058B000ADEC1DF00C0104510201DC6FDD6BF2C395
:1058C000D9F2F3C3DAF2F4C3DBF2EEEC1DF0AFD899
:1058D000166A14500301F2271550F3231650F423CF
:1058E0000C01035109E02F0E035D06E02C0E035D51
:1058F00003E03E0E035DABE1DDEF2CF0A6D800091E
:1059000001E11200C00E0C010215C00802E125EFF2
:105910002DF0025101E1120002510201E86FE96B22
:105920000201E66BE76B44EC1FF0E8D7E7DF02010A
:105930007B0EE46F0C0E96D87A0EE46F0C0E92D8A4
:105940007D0EE46F0C0E8ED87C0EE46F0C0E8AD8A0
:10595000810EE46F0C0E86D8800EE46F0C0E82D898
:105960007F0EE46F0C0E7ED87E0EE46F0C0E7AD89C
:10597000830EE46F0C0E76D8820EE46F0C0E78D88E
:105980000C01010E7A191200F2EC43F00301E85108
:10599000065C146EE9510758156EEA510858166EE8
:1059A000EB510958176ED880F20E14549E0E155400
:1059B000000E1654000E175412000201D46BADEF06
:1059C0001DF00C0182CC14F083CC15F08207000E80
:1059D000835B14501510120002016B0EE46F0C0E65
:1059E00038EF2DF0F2EC43F006C0E8F307C0E9F31E
:1059F00008C0EAF309C0EBF30401120002016D0EC6
:105A0000E46F0C0E2FD86C0EE46F0C0E1200B6C4AF
:105A1000CEF239EC1DF00401B669120010510C1BD6
:105A200011510D1B12510E1B13510F1B1200F3CFFE
:105A300014F0F4CF15F0010E1426000E15221200FA
:105A40000201010ED46FADEF1DF00201020EE46FF2
:105A50000C0E38EF2DF0F3CF14F0F4CF15F0F35017
:105A6000F410120005D802011200EADF3BEF2DF01E
:105A7000E56F2DEF1FF0A1DFDDEF2CF091DA00EEE6
:105A800000F0140EE80403E3EECFE4FFFBD700EED2
:105A900014F00C0EE80403E3EECFE4FFFBD7E6526C
:105AA0003DEC44F0E55200EE1FF00C0EE80403E379
:105AB000E5CFEDFFFBD700EE13F0140EE80403E38F
:105AC000E5CFEDFFFBD78AD26BDA00EE00F0140EC3
:105AD000E80403E3EECFE4FFFBD700EE14F00C0E76
